:100000000C94250E0C94420E0C94032C0C94420E6E
:100010000C942F2C0C94420E0C94420E0C94420E15
:100020000C94420E0C94420E0C94420E0C94420E10
:100030000C94420E0C94A42D0C94420E0C94420E7F
:100040000C94252D0C94420E0C94420E0C94420EEE
:100050000C94632C0C94B92C0C94420E0C94420E0C
:100060000C94420E0C94420E0C94420E0C94420ED0
:100070000C948E2C0C94420E0C94420E01440E797A
:100080000E470E830E2D2D2D2D20202041424F5541
:10009000543A2020202D2D2D2D00204D4944494D2E
:1000A00049584649582076312E3032202000002011
:1000B00020202020202042793A000000000000008B
:1000C000000000004C617273204F2E20506F6E7440
:1000D0006F70706964616E000020687474703A2FEC
:1000E0002F6C61727365652E646B00000000000068
:1000F0000000000000000000000000000000000000
:100100000000002020436F707972696768742032A4
:10011000303134000000000000000000000000004A
:100120000000000000000000000000000046696CB4
:1001300074657220636F756E743A200000000000D1
:100140000000436F6E6669672073697A653A200024
:10015000000000000000004572726F72733A0000E8
:1001600000000000000000000000000001A50EA833
:100170000EF50EAA0E414444204641494C45442107
:100180000046494C544552204144444544002D2DDD
:100190002D204144442046696C7465723A202D2D0F
:1001A0002D2D00002B0F060F1F10680F01B610B980
:1001B00010BB10C510426F6F746C6F616465722064
:1001C000616374697661746564002873656C656346
:1001D00074206D7573742062650070726573736549
:1001E0006420666F722033207365632E29002A2AEB
:1001F0002A2A204D4944494D4958464958202A2A1F
:100200002A2A002053657475702066696C746572C3
:100210007300000000000000204C6F6164207072C9
:100220006573657400000000000000000020536149
:100230007665207072657365740000000000000030
:100240000000204164642066696C746572000000DF
:10025000000000000000002052656D6F766520668A
:10026000696C746572000000000000002052656F28
:10027000726465722066696C7465727300000000B8
:10028000002053686F77206D696469206C6F670088
:1002900000000000000020426F6F746C6F616465A5
:1002A00072000000000000000000002041626F7535
:1002B00074000000000000000000000000000000CA
:1002C0000140114511471156112D2D2D2053484F36
:1002D00057204D494449204C4F473A00496E7075AC
:1002E000742031206E6F2072742F737973780049F7
:1002F0006E707574203120616C6C0000000000008D
:100300000000496E7075742032206E6F2072742F59
:100310007379737800496E707574203220616C6C4B
:1003200000000000000000004F7574707574206EAE
:100330006F2072742F7379737800004F7574707525
:100340007420616C6C00000000000000000001C31C
:1003500011C511CD11C7112D2D2D2D20204D6573E7
:10036000736167653A20202D2D2D2D0001FC110DA4
:1003700012A21215120108120D12A21215125052D9
:10038000455345542053415645440053415645205A
:100390004552523A20544F4F20424947210044458C
:1003A0004641554C5453204C4F4144454400505213
:1003B00045534554204C4F41444544005052455309
:1003C0004554204C4F4144204552523A2569002D56
:1003D0002D2D2053415645205072657365743A2087
:1003E0002D2D2D002D2D2D204C4F41442050726578
:1003F0007365743A202D2D2D0044656661756C740B
:100400007300537461727420757000507265736567
:1004100074202569002028656D70747929002043B7
:100420004F525255505400204552523A20256900EF
:1004300001F112F8129113201301E912F81291132D
:1004400020132D2D2D2052454D4F56452046696CC9
:100450007465723A202D002D2D2D2052454F5244A7
:1004600045522046696C746572733A005445535482
:100470005F4D4F444500E914C414C714CD14DB1478
:10048000AF1547151015040409049004011D000060
:1004900041542E20736D6F6F7468696E67005374DA
:1004A00061727420203A20004E2E4F6E004E2F4174
:1004B0000046616465496E203A2025690046616402
:1004C000654F75743A202569004F757470757420F6
:1004D0003A2000A816C316CB16CC16DA164B171303
:1004E00017E71602020703ED0401210000436F6EB7
:1004F000642E20726F757465004D6F6465203A201C
:10050000005768656E203E20363400546F67676C74
:100510006500546F67676C65203E203634004F6E6F
:100520002020203A20008E17A917B317B417C01740
:100530000718E817CC17010106044005011F000049
:10054000434320746F2076656C6F6369747900553E
:100550007365203A200051186A18741875188318AA
:100560008619EE18901805040704EC050118000020
:1005700090909080A0D043757276652025552D3ED1
:10058000002555004F6E2020203A20004E2E4F6E41
:1005900000000000000000004E2E4F6E20426C2E26
:1005A0004B6579004E2E4F6E2057682E4B657900B3
:1005B0004E2E4F6666000000000000004B6579205B
:1005C0004166746572542E0043682E20416674653E
:1005D00072542E004C6F7720203A200048696768DB
:1005E000203A200043757276653A20004375727692
:1005F000652066696C746572004C696E6561720095
:1006000000000047616D6D6120302E360047616D3E
:100610006D6120302E380047616D6D6120312E32C2
:100620000047616D6D6120312E36002D532D2073F2
:1006300068617065002D4E2D207368617065000043
:10064000020406080A0C0E10121416181A1C1E209A
:10065000222426282A2C2E30323436383A3C3E408A
:10066000424446484A4C4E50525456585A5C5E607A
:10067000626466686A6C6E70727476787A7C7E806A
:10068000828486888A8C8E90929496989A9C9EA05A
:10069000A2A4A6A8AAACAEB0B2B4B6B8BABCBEC04A
:1006A000C2C4C6C8CACCCED0D2D4D6D8DADCDEE03A
:1006B000E2E4E6E8EAECEEF0F2F4F6F8FAFCFE002A
:1006C000010204050607080A0B0C0D0F1011121485
:1006D000151618191A1B1D1E1F212223252627292E
:1006E0002A2B2D2E2F313234353638393B3C3E3FC4
:1006F000404243454648494B4C4E4F515254565741
:10070000595A5C5E5F6163646668696B6D6F707295
:10071000747678797B7D7F81838587898B8D8F91B6
:100720009395979A9C9EA1A3A5A8AAADAFB2B5B781
:10073000BABDC0C3C7CACED1D5DADEE3E9F0FE0048
:1007400002030506080A0B0D0F1012131517181ACD
:100750001C1D1F2122242627292B2C2E3031333516
:1007600036383A3B3D3F4142444648494B4D4F5055
:1007700052545657595B5D5E6062646668696B6D82
:100780006F71737476787A7C7E8082848687898B99
:100790008D8F91939597999B9D9FA1A3A5A8AAAC96
:1007A000AEB0B2B4B7B9BBBDC0C2C4C6C9CBCED05F
:1007B000D2D5D8DADDDFE2E5E8EBEEF1F5F9FE00BF
:1007C0000205070A0C0E111315181A1D1F212426E5
:1007D000282B2D2F323436383B3D3F424446484B80
:1007E0004D4F515456585A5D5F616366686A6C6E2E
:1007F00070737577797B7D80828486888A8C8E90F1
:10080000939597999B9D9FA1A3A5A7A9ABADAFB1C8
:10081000B3B5B7B9BBBDBFC0C2C4C6C8CACCCDCFC3
:10082000D1D3D5D6D8DADCDDDFE1E2E4E6E7E9EAE8
:10083000ECEEEFF1F2F3F5F6F7F9FAFBFCFDFE0052
:1008400003060A0D101316191C1F2225282B2E3102
:1008500034373A3D404345484B4E515356595C5E00
:10086000616466696C6E717376787B7D8082858742
:100870008A8C8E919395989A9C9EA1A3A5A7A9ABCB
:10088000ADAFB1B4B6B8B9BBBDBFC1C3C5C7C8CAA7
:10089000CCCECFD1D3D4D6D8D9DBDCDEDFE1E2E3D6
:1008A000E5E6E7E9EAEBECEDEFF0F1F2F3F4F5F66B
:1008B000F7F7F8F9FAFAFBFCFCFDFDFDFEFEFE0081
:1008C00001010203040506060708090A0B0C0D0EB8
:1008D00010111213141617181A1B1D1F202224257D
:1008E00027292B2D2F313436383B3D404245484B8C
:1008F0004E5154575A5E6164686B6F72767A7D818F
:1009000084888C8F93969A9DA0A4A7AAADB0B3B605
:10091000B9BCBEC1C3C6C8CACDCFD1D3D5D7D9DA29
:10092000DCDEDFE1E3E4E6E7E8EAEBECEDEEF0F154
:10093000F2F3F4F5F6F7F8F8F9FAFBFCFDFDFE002A
:10094000050A0F13171B1F2226292C2F3234373983
:100950003C3E40424446484A4C4E505153555658EE
:10096000595B5C5E5F606263646667686A6B6C6D4E
:100970006E7071727374757778797A7B7C7D7E8006
:1009800081828384858687898A8B8C8D8E909192D3
:1009900093949697989A9B9C9E9FA0A2A3A5A6A885
:1009A000A9ABADAEB0B2B4B6B8BABCBEC0C2C5C7D2
:1009B000CACCCFD2D5D8DCDFE3E7EBEFF4F9FE9772
:1009C0001AB01AB81A171BC01AAC1B571B081C0404
:1009D000030703D9090219000047656E6572617447
:1009E00065206D73672E005768656E203A200056AB
:1009F000616C2E206368616E6765004F6E206C6FBE
:100A0000616420202020004265666F7265204E2EB2
:100A10004F6E004166746572204E2E4F666600541C
:100A200072616E736C61746520200054797065206A
:100A30003A200056616C2E203A2000C61CE41CECC3
:100A40001CF41C021D601D361D0F1D02020D0355F6
:100A50000A012000004B65792073706C6974207264
:100A60006F757465004475706C2E6F7468657220C4
:100A70003A20256F0046726F6D206B65792020202B
:100A80003A2000BE1DDC1DEF1D881D881D891DF24A
:100A90001D8B1D000000025E0B01070000B41DD875
:100AA0001DEC1D881D881D891DF71D8B1D00000074
:100AB000024F0B01060000AA1DD41DE91D881D88E8
:100AC0001D891DFC1D8B1D00000002400B0105004F
:100AD00000A01DD01DE61D881D881D891D011E8BCF
:100AE0001D00000002310B01040000961DCC1DE327
:100AF0001D881D881D891D061E8B1D0000000228F3
:100B00000B010300008C1DC81DE01D881D881D8978
:100B10001D0B1E8B1D000000021F0B010200004D6B
:100B200049444920496E31004D49444920496E32BB
:100B3000004D49444920496E31205265616C740072
:100B40004D49444920496E32205265616C74004D14
:100B500049444920496E31205379736578004D49E5
:100B6000444920496E3220537973657800BF1FCC09
:100B70001FCF1FD01FD51FF51FE51FDA1F01010F63
:100B800001870B010100004D494449204F75740055
:100B900052756E6E2E20737461747573203A202521
:100BA0006F00B5203F204720A5204820D9203221C2
:100BB000702002020704BC0B011600004D6F64692F
:100BC0006679204343207479706500546F2020209B
:100BD0003A200046726F6D203A2000692176217E0E
:100BE0002186219621A621F521A8210404090217B6
:100BF0000C010B00005C2176217E2186219621A626
:100C000021F521A821040409020F0C010A0000505B
:100C10006564616C203100506564616C2032002095
:100C20002D3E25690043432E202020203A202543D5
:100C3000004761696E2020203A200044494749540A
:100C4000414C004F6666736574203A20256900495F
:100C50006E76657274203A20256F00000000000057
:100C6000000000010001000100010001000100027C
:100C70000002000200020002000200020003000362
:100C80000003000300030003000400040004000448
:100C9000000400040005000500050005000500052E
:100CA0000006000600060006000600060007000712
:100CB00000070007000700070008000800080008F8
:100CC00000080008000900090009000900090009DE
:100CD000000A000A000A000A000A000A000B000BC2
:100CE000000B000B000B000B000C000C000C000CA8
:100CF000000C000D000D000D000D000D000D000E8C
:100D0000000E000E000E000E000F000F000F000F6F
:100D1000000F000F00100010001000100010001154
:100D20000011001100110011001100120012001238
:100D3000001200120013001300130013001300141C
:100D400000140014001400140015001500150015FF
:100D500000150016001600160016001600170017E2
:100D600000170017001700180018001800180018C6
:100D700000190019001900190019001A001A001AA8
:100D8000001A001A001B001B001B001B001B001C8C
:100D9000001C001C001C001D001D001D001D001D6E
:100DA000001E001E001E001E001E001F001F001F50
:100DB000001F002000200020002000200021002132
:100DC0000021002100220022002200220022002314
:100DD00000230023002300240024002400240025F5
:100DE00000250025002500250026002600260026D7
:100DF00000270027002700270028002800280028B7
:100E00000029002900290029002A002A002A002A96
:100E1000002B002B002B002B002C002C002C002C76
:100E2000002D002D002D002D002E002E002E002E56
:100E3000002F002F002F002F003000300030003036
:100E40000031003100310031003200320032003216
:100E500000330033003300340034003400340035F4
:100E600000350035003500360036003600370037D3
:100E700000370037003800380038003900390039B1
:100E80000039003A003A003A003B003B003B003B8F
:100E9000003C003C003C003D003D003D003D003E6C
:100EA000003E003E003F003F003F00400040004049
:100EB0000040004100410041004200420042004326
:100EC0000043004300440044004400440045004502
:100ED00000450046004600460047004700470048DE
:100EE00000480048004900490049004A004A004AB9
:100EF000004B004B004B004C004C004C004D004D93
:100F0000004D004E004E004E004F004F004F00506D
:100F10000050005000510051005100520052005347
:100F20000053005300540054005400550055005520
:100F300000560056005700570057005800580058F8
:100F400000590059005A005A005A005B005B005BD0
:100F5000005C005C005D005D005D005E005E005FA7
:100F6000005F005F0060006000610061006100627E
:100F70000062006300630063006400640065006554
:100F8000006500660066006700670067006800682B
:100F900000690069006A006A006A006B006B006CFF
:100FA000006C006D006D006E006E006E006F006FD3
:100FB00000700070007100710072007200720073A6
:100FC0000073007400740075007500760076007779
:100FD00000770078007800790079007A007A007A4A
:100FE000007B007B007C007C007D007D007E007E1D
:100FF000007F007F008000800081008100820082ED
:1010000000830084008400850085008600860087B8
:1010100000870088008800890089008A008A008B88
:10102000008B008C008D008D008E008E008F008F55
:101030000090009100910092009200930093009420
:1010400000950095009600960097009700980099EB
:101050000099009A009A009B009C009C009D009DB6
:10106000009E009F009F00A000A100A100A200A27E
:1010700000A300A400A400A500A600A600A700A845
:1010800000A800A900AA00AA00AB00AC00AC00AD0B
:1010900000AE00AE00AF00B000B000B100B200B2D0
:1010A00000B300B400B500B500B600B700B700B893
:1010B00000B900BA00BA00BB00BC00BD00BD00BE54
:1010C00000BF00C000C000C100C200C300C300C414
:1010D00000C500C600C700C700C800C900CA00CAD2
:1010E00000CB00CC00CD00CE00CF00CF00D000D18F
:1010F00000D200D300D400D400D500D600D700D849
:1011000000D900DA00DA00DB00DC00DD00DE00DF01
:1011100000E000E100E200E300E300E400E500E6B7
:1011200000E700E800E900EA00EB00EC00ED00EE6B
:1011300000EF00F000F100F200F300F400F500F61B
:1011400000F700F800F900FA00FB00FC00FD00FECB
:1011500000FF000001010102010301040106010773
:1011600001080109010A010B010C010D010E01101A
:1011700001110112011301140115011701180119C0
:10118000011A011B011D011E011F01200121012364
:1011900001240125012601280129012A012C012D04
:1011A000012E01300131013201340135013601389F
:1011B0000139013A013C013D013F01400141014338
:1011C0000144014601470149014A014C014D014FCB
:1011D0000150015201530155015601580159015B5B
:1011E000015C015E016001610163016501660168E6
:1011F000016A016B016D016F01700172017401766A
:1012000001770179017B017D017E018001820184EA
:1012100001860188018A018B018D018F0191019363
:10122000019501970199019B019D019F01A101A3D6
:1012300001A501A701AA01AC01AE01B001B201B440
:1012400001B701B901BB01BD01C001C201C401C6A2
:1012500001C901CB01CE01D001D201D501D701DAFC
:1012600001DC01DF01E101E401E601E901EC01EE4D
:1012700001F101F301F601F901FC01FE0101020493
:101280000207020A020D0210021202150218021BC6
:10129000021E022202250228022B022E02310234F3
:1012A0000238023B023E024202450248024C024F13
:1012B00002530256025A025E026102650269026C22
:1012C000027002740278027C028002840288028C1E
:1012D000029002940298029C02A102A502A902AE09
:1012E00002B202B702BB02C002C502C902CE02D3DB
:1012F00002D802DD02E202E702EC02F102F602FB92
:1013000002010306030B03110316031C0322032827
:10131000032D03330339033F0346034C03520358A1
:10132000035F0365036C0373037A03800387038EF3
:101330000396039D03A403AC03B303BB03C303CB16
:1013400003D303DB03E303EB03F403FC0305040E05
:101350000417042004290433043C04460450045AAE
:101360000464046E04790483048E049904A404B014
:1013700004BB04C704D304DF04EC04F8040505121D
:101380000520052D053B05490558056605750584AD
:10139000059405A405B405C405D505E605F8050AB8
:1013A000061C062F06420656066A067E069306A807
:1013B00006BE06D506EB0603071B0734074D076775
:1013C0000782079D07B907D607F4071208310851AD
:1013D0000873089508B808DC08010928094F09783E
:1013E00009A309CE09FC092A0A5B0A8D0AC10AF77A
:1013F0000A2F0B690BA50BE40B250C690CB00CFA3A
:101400000C470D980DED0D450EA20E040F6A0FD678
:101410000F4810C0103F11C6115412EC128D133931
:1014200014F114B6158A166E1764186E19901ACC3A
:101430001B271DA41E49201D22282474260E2908BE
:101440002C772F79333538E43DD644844DAD588E12
:1014500067647CA49BB9CFFFFFFFFF8D236E2371D0
:1014600023772382236B240A24C82303060F0475E1
:1014700014021A0000506F6C7970686F6E2E207322
:10148000706C69740043682E72616E6765206672C5
:101490006F6D3A2025690043682E72616E67652082
:1014A000746F20203A2025690042726F6164636185
:1014B00073742043432E3A20257900426373742EBF
:1014C0002050726F674368673A2025790042637342
:1014D000742E20502E576865656C3A20257900429D
:1014E0006373742E204368616E2E41543A2025792F
:1014F00000802517251F25292549255625E0258803
:10150000261A0306030B15011E000042617463686E
:101510002073656E646572005768656E3A20004EF0
:1015200065766572004E6F77004F6E206C6F616458
:10153000004F6E207472696767657200536C6F7438
:101540003A20256920004E6F7465734F666600521D
:10155000657365744374726C0050726F674368679B
:10156000000020FF07080A0C0D464748494A4B4C2B
:101570004D4E4F545B5C5D5E5F4D6F64653A20007D
:10158000446F6E27742073656E640053656E64004B
:1015900053656E6420257500EC278C279427F2276D
:1015A0009C27FE2748282A2801010703D615011B7E
:1015B0000000EF278C279427F2279C27FE27482836
:1015C0002A2801010703CC15011C00004475706C2A
:1015D00069636174650046696C7465726564207244
:1015E0006F7574650054797065203A2000416C6C09
:1015F000004368616E20256900416C6C2043430004
:101600008B28A228AA28AB28B528BF28EA28D228E8
:10161000010108041A16011500004D6F646966790E
:10162000206368616E004368616E2E203A20256950
:1016300000002917291F2920292A294C296A293421
:101640002901010C044B16011700005472616E73DE
:10165000706F73650053656D69746F6E6573203AC2
:1016600020256900050BEB0AD10AB70AF50BDB0B45
:10167000F114BF099815B2153B0AD3040016A20B4A
:101680005605260531165B1476046D0B50524553F2
:10169000455420434F525255505421005052455307
:1016A0004554204C4F4144204552523A2569005040
:1016B0005245534554532052455345540042616EA0
:1016C0006B2E53656C00004D6F64756C61742E0059
:1016D0000042726561746800000000556E646566C2
:1016E0002E33000000466F6F7443746C000000508E
:1016F0006F72742E54696D650044617461456E7437
:10170000727900566F6C756D650000000042616C67
:10171000616E6365000000556E6465662E390000D9
:101720000050616E00000000000000457870726596
:1017300073732E00004566662E43746C2E3100458F
:1017400066662E43746C2E3200556E6465662E31CB
:10175000340000556E6465662E3135000047502E0A
:1017600043746C2E31000047502E43746C2E3200AF
:101770000047502E43746C2E33000047502E4374A4
:101780006C2E340000556E6465662E3230000055B4
:101790006E6465662E32310000556E6465662E32C9
:1017A000320000556E6465662E32330000556E645B
:1017B00065662E32340000556E6465662E32350043
:1017C00000556E6465662E32360000556E6465669F
:1017D0002E32370000556E6465662E323800005593
:1017E0006E6465662E32390000556E6465662E3370
:1017F000300000556E6465662E333100004C534254
:10180000005375737461696E500000506F7274619B
:101810006D2E500000536F7374656E2E5000005390
:101820006F66745000000000004C656761746F5073
:10183000000000486F6C64320000000000566172C6
:10184000696174696F6E00496E74656E736974794D
:101850000052656C2E54696D6500004174742E54FD
:10186000696D6500004272696768746E732E00448A
:101870006563617954696D6500566962526174658A
:101880000000005669624465707468000056696221
:1018900044656C61790000556E6465662E373900C9
:1018A0000047502E43746C2E35000047502E437471
:1018B0006C2E36000047502E43746C2E37000047C4
:1018C000502E43746C2E380000506F727461437454
:1018D0006C0000556E6465662E38350000556E64E8
:1018E00065662E38360000556E6465662E38370002
:1018F000004872657356656C000000556E6465663D
:101900002E38390000556E6465662E39300000525D
:101910006576657262000000005472656D6F6C6FD1
:1019200000000043686F7275730000000044657426
:1019300075446570746800506861734465707468BC
:101940000044617461496E632E0000446174614417
:1019500065632E00004E72706E4C53420000004EC4
:1019600072706E4D534200000052706E4C53420034
:1019700000000052706E4D534200000000556E642E
:1019800065662E31303200556E6465662E31303317
:1019900000556E6465662E31303400556E646566A0
:1019A0002E31303500556E6465662E313036005567
:1019B0006E6465662E31303700556E6465662E3173
:1019C000303800556E6465662E31303900556E64CE
:1019D00065662E31313000556E6465662E313131C9
:1019E00000556E6465662E31313200556E64656651
:1019F0002E31313300556E6465662E313134005519
:101A00006E6465662E31313500556E6465662E3123
:101A1000313600556E6465662E31313700556E647F
:101A200065662E31313800556E6465662E31313968
:101A300000536F756E644F6666000052657365747F
:101A40004374726C004C6F63616C4374726C004E33
:101A50006F7465734F666600004F6D6E694F666602
:101A60000000004F6D6E694F6E000000004D6F6EFC
:101A70006F4F6E00000000506F6C794F6E000000D9
:101A800000430000432300440000442300450000BD
:101A90004600004623004700004723004100004164
:101AA00023004200005379736578537461727400A7
:101AB00000005379732E54696D65436F646500535C
:101AC00079732E536F6E67506F7300005379732EC6
:101AD000536F6E6753656C00005379732E556E64B7
:101AE00065662E3400005379732E556E6465662E3C
:101AF0003500005379732E54756E65526571000080
:101B00005379736578456E6400000000005265618A
:101B10006C742E436C6F636B00005265616C742EA5
:101B2000556E6465662E005265616C742E53746147
:101B3000727400005265616C742E436F6E742E00D7
:101B4000005265616C742E53746F70000000526512
:101B5000616C742E556E6465662E005265616C74FE
:101B60002E4153656E7365005265616C742E52652B
:101B700073657400004E2E4F6666200000004E2EE6
:101B80004F6E20200000004B65794154200000007A
:101B900000000000000000000050726F674368679B
:101BA00020004368616E41542000005069746368EE
:101BB0005720000053797374656D20000001020402
:101BC0000507080A0B0C0D4041424344454647486F
:101BD000494A4B4C4D4E545B5C5D5E5F43433A2536
:101BE00069004241443A4E6F20737461747573000A
:101BF0004241443A546F6F2073686F7274005261AF
:101C00007720646174613F004368616E00557365BD
:101C1000005468726F756768004469736361726429
:101C200000284F4646290020284F4E2900282D29FC
:101C300000282B29004E6F00596573004F6666001F
:101C40004F6E00004D4D46040AC811241FBECFEF51
:101C5000D0E1DEBFCDBF11E0A0E0B1E0E2ECFBE7F8
:101C600002C005900D92AE31B107D9F717E0AEE191
:101C7000B1E001C01D92AD35B107E1F70E940B3D07
:101C80000C94DF3D0C9400008091000108951F9397
:101C9000CF93DF93182FCB011B30F8F425E1129F6F
:101CA000B00111246B577F4F0E94513BEC0118305B
:101CB00049F40E948033682FCE01DF91CF911F91AC
:101CC0000C94E73A193089F40E948E36BC01CE019B
:101CD000DF91CF911F910C949C3A612F6B5001962C
:101CE000DF91CF911F910C94412ADF91CF911F91E9
:101CF00008950E945D2A882321F00E945D2A855F55
:101D000008958AE00895CF93DF931F92CDB7DEB791
:101D1000823029F40F90DF91CF910C94DC3969E186
:101D20000E943F3A89830E94790E482F41502981B1
:101D300061E0809100010E947C3B8093000160E0A3
:101D40000F90DF91CF910C948A3980910101089511
:101D500084E10895CF93813009F50E945F3380912B
:101D6000010181500E949333882381F00E948033C7
:101D7000C82F0E9480336C2F625081500E949B3488
:101D80000E945A3363E081E891E005C00E945A3313
:101D900064E085E791E0CF910C94F011823019F462
:101DA000CF910C94DC39843079F018F48330B9F495
:101DB00005C08B3079F08C3091F40EC08091010118
:101DC000833168F48F5F09C080910101823038F05F
:101DD000815003C083E101C081E08093010160E094
:101DE00080910101CF910C948A39CF93DF93EB015D
:101DF000811103C06EE871E004C081500E94282B5D
:101E0000BC01CE01DF91CF910C94513B8091D30462
:101E10000895CF93DF93D82FC0E016C08C2F0E9477
:101E200083339093D2048093D104C093D404D0938D
:101E3000D004DD2369F0D1508091D1040E94042B9D
:101E4000D81730F0D81BCF5F0E948033C81730F30B
:101E5000DF91CF910895CF93DF931092CF040E942A
:101E600080338093D304C0E009C08C2F0E94833359
:101E70000E94042B8D0F8093D304CF5F0E94803388
:101E8000D091D304C81788F380911E018D1718F0E4
:101E9000D150D0931E0180911E01DF91CF91089502
:101EA0008091CF04823079F0833021F0813021F0AD
:101EB00060E00AC063E108C08091D1040E94102B49
:101EC000682F6E5F01C061E180911E010C948A3918
:101ED0001F93CF93DF93C82F80911E010E94090F9B
:101EE000C23049F48091CF04811133C0DF91CF918A
:101EF0001F910C94DC39C13079F56091D0046111E7
:101F00001AC08091D1040E941C2B9091CF04923072
:101F100059F09330F1F091118DC0823009F409C06D
:101F200082E08093CF0486C0813099F0843009F438
:101F300010C083E0F6CF8091CF0481110AC0C09316
:101F4000CF0441E08091D1049091D2040E94E52A0F
:101F500071C01092CF046EC08091CF0481112CC04B
:101F6000C430D9F020F4C33009F060C006C0CB30D3
:101F7000D1F0CC3009F05AC01CC040911E01242F72
:101F800030E08091D30490E00197281739070CF0D6
:101F90004DC04F5F40931E0149C080911E018823B0
:101FA00009F444C002C08091D304815080931E0183
:101FB0003DC010921E013AC0982F9250923058F5B1
:101FC0008091D4040E94EA34D82F192F8091CF0435
:101FD0006AE0823059F48C2F0E943F3A282F49E062
:101FE0006FEF8D2F0E94653BD82F0AC08C2F0E9467
:101FF0003F3A282F49E06FEF812F0E94653B182F51
:102000000E945F336D2F712F8091D4040E94F334AE
:102010000E945A330BC0813049F44C2F6091D00498
:102020008091D1049091D2040E94E52A80911E01F2
:102030000E947B39DF91CF911F910C94500FEF924A
:10204000FF921F93CF93DF931F92CDB7DEB77B0133
:102050009091D304891708F048C00E94090F60913D
:10206000D0048091D1049091D204A701611133C0B2
:102070000E94D22A8091D4040E94EA34182F8091C1
:10208000D10499830E941C2B9981823079F01F3FE3
:1020900051F0112321F01A3020F4105D05C018E52D
:1020A00003C01FE301C011E4F701108B2EE3F70119
:1020B000218B8130D1F09F3F51F0992321F09A304C
:1020C00020F4905D05C098E503C09FE301C091E452
:1020D000F701928B0AC04F5F5F4F0F90DF91CF9156
:1020E0001F91FF90EF900C94D22A0F90DF91CF9127
:1020F0001F91FF90EF900895EF92FF920F931F931F
:10210000CF93DF93F82EE92E062F0E948539835A4C
:10211000914029F510C08D2F0E9483338F1105C087
:102120009E1103C0C00F11E004C00E94042BCF5FBA
:10213000C80FDF5F03C010E0C0E0D0E00E94803332
:10214000D81758F4112339F38C2FDF91CF911F91B9
:102150000F91FF90EF900C947B391111F5CFDF9127
:10216000CF911F910F91FF90EF9008958091020100
:1021700008958AE00895AB0195E1899FB00111248B
:1021800062517E4FCA010C94513B823029F481E0A8
:102190008093020160E071C0813009F04FC08091EE
:1021A0000201853021F168F48230B9F020F48130E9
:1021B00009F065C00FC08330A1F0843009F05FC022
:1021C00013C08730D1F0B0F08830D1F0893009F0F9
:1021D00056C031C083EA91E002C085E793E00C94D9
:1021E000FB398CE693E0FBCF8CE691E0F8CF89E3F6
:1021F00094E0F5CF80E394E0F2CF80EC92E0EFCF73
:102200000E94842E85EB91E00E94CB2E60E081E05D
:102210000E94872E8AEC91E00E94CB2E60E082E043
:102220000E94872E8AED91E00E94CB2E80E00E94D2
:10223000F22B0C94E52D8CE790E0D1CF843079F02F
:1022400018F48330B9F405C08B3079F08C3091F4F8
:102250000EC080910201893068F48F5F09C08091BF
:102260000201823038F0815003C089E001C081E072
:102270008093020160E0809102010C948A390895F4
:1022800010921F0180910301089587E00895282F7F
:10229000CB0130911F01311108C033E1239FB00100
:1022A000112467537D4F0C94513B0895CF93DF93D6
:1022B000C82F80911F01882379F0C23041F40E9419
:1022C000EE3010921F01DF91CF910C9477398C2F53
:1022D000DF91CF910C94F130C23021F4DF91CF9196
:1022E0000C94DC39C13049F5D0910301D330B9F0F9
:1022F00030F4D13051F0D23009F042C00DC0D530A9
:1023000099F078F0D630E1F511C061E081E00E94EB
:10231000D630D0931F0134C060E081E009C061E095
:1023200001C060E082E004C061E001C060E083E0E1
:102330000E94D630C0931F0123C0C43079F018F436
:10234000C330B9F405C0CB3079F0CC3091F40EC075
:1023500080910301863068F48F5F09C0809103018A
:10236000823038F0815003C086E001C081E0809364
:10237000030160E080910301DF91CF910C948A39D1
:10238000DF91CF91089582E0089583E00895815010
:10239000823010F40C94DC390895282FCB012111E0
:1023A00004C067E573E00C94513B223061F4609106
:1023B0002001709121012091230140912201820F7F
:1023C000911D0C94C33B08959093210180932001AB
:1023D00060932201409323018EE493E00C94FB3937
:1023E0009093210180932001109222016093230198
:1023F0008EE493E00C94FB3981E08093240190916A
:1024000004019B3010F08093040180910401089531
:102410001092240180910401089580912401882361
:1024200011F08BE008958CE00895CF93DF931F9215
:10243000CDB7DEB7823029F40F90DF91CF910C94A5
:10244000DC3990912401813009F04EC08091040163
:102450009923A9F081500E94AD3689830E94DC390E
:102460008981811104C063E08EE793E003C061E0DD
:102470008BE893E00F90DF91CF910C94F0118B30AB
:1024800061F40E945F330E9493340E945A330E9489
:10249000DC3962E08EE993E0EDCF61E081500E948B
:1024A000A735813009F44AC0853009F447C00E943D
:1024B0005F338091040160E081500E94A7358983D9
:1024C0000E945A330E94DC398981811104C063E083
:1024D0008EEA93E0CFCF41E0682F8CEB93E00F9032
:1024E000DF91CF910C94E411992311F09AE001C08F
:1024F0009BE0843079F018F48330C1F405C08B3050
:1025000079F08C3099F40FC080910401891770F430
:102510008F5F0AC080910401823040F0815004C076
:102520009093040103C081E08093040160E08091F6
:1025300004010F90DF91CF910C948A390F90DF91B5
:10254000CF9108951F93CF93DF93182FCB011111D3
:102550000AC020912401222319F06FEC73E030C0EF
:1025600064EE73E02DC01B3048F5113029F462E0B1
:1025700074E00E94513B05C0412F6BE074E00E9463
:10258000C33BEC0161E0812F81500E94A73581306F
:1025900021F0D8F0853049F404C065E174E0CE0143
:1025A0000FC045E06EE174E003C0482F67E274E0BD
:1025B000CE01DF91CF911F910C94C33B69EF73E083
:1025C000DF91CF911F910C94513BDF91CF911F91DF
:1025D00008951092260181E08093250180910501E4
:1025E0000895109226011092250180910501089509
:1025F0000E9480338F5F0895CF93843099F018F450
:102600008330E1F405C08B3099F08C30B9F413C0FD
:10261000C09105010E948033C81780F480910501A4
:102620008F5F0AC080910501823040F0815004C064
:102630000E94803301C081E080930501CF9108950D
:10264000CF93DF93C82F813079F5809125018823BE
:10265000B9F0C0910501D0E00E94803390E0C81726
:10266000D9070CF05BC00E945F3380910501815057
:102670000E9426340E945A33DF91CF910C9477390F
:1026800080912601811109C0D09105010E948033FB
:10269000D81719F0C093260131C0109226018091FD
:1026A00005010E947B3933C0823021F4DF91CF9144
:1026B0000C94DC3980912601882331F1D0910501F9
:1026C0008C2F0E94FC12C09105010E948033C81318
:1026D00003C0D093050122C0809105018D17F1F050
:1026E0000E945F336091050161508D2F81500E94DF
:1026F0009B340E945A338D2F0E947B3980910501B3
:102700000E947B3962E004C08C2F0E94FC1260E0C2
:1027100080910501DF91CF910C948A39DF91CF919F
:1027200008951F93CF93DF93182FEB0181110AC0F7
:1027300080912501882319F062E474E021C067E5E7
:1027400074E01EC00E948033412F50E0282F30E0FB
:1027500024173507DCF0812F81500E94833390913C
:102760002601992351F090910501191306C00E948A
:10277000282BBC01CE01019604C00E94282BBC016D
:10278000CE01DF91CF911F910C94513BDF91CF91FE
:102790001F9108955F926F927F928F929F92AF9256
:1027A000BF92CF92DF92EF92FF920F931F93CF933E
:1027B000DF93CDB7DEB764970FB6F894DEBF0FBED8
:1027C000CDBF27982F9A259A2D9894E080E0E7E8CE
:1027D000F3E13197F1F700C000001F9B8F5F91502C
:1027E000B1F794B19F7594B995B19F7595B984303F
:1027F00009F0B4C085E00E94533C85E50E94783C16
:102800008AEA0E94783C82E90E94783C89E40E942E
:10281000783C84E20E94783C0E94692B0E94432EFF
:1028200081E00E94F22B8FEF0E94F03C80E20E9438
:10283000F03C81E60E94F03C8AE50E94F03C80E298
:102840000E94F03CC12CD12CE12CF12CA12C90E267
:10285000B92E21E4822E37EC932E40E4742E55E5F8
:10286000652E6AEA562E60E080E00E94872E8CE694
:1028700094E00E94CB2E0E945B2C682FCE01019623
:102880000E94393BFC01B1928F010E94F82B682F06
:10289000C8010E94393BFC01B192CF01AA2039F056
:1028A000E0907800F090790070927C0006C0C090B3
:1028B0007800D090790080927C0090927A00B701E5
:1028C0000E949C3AFC01B192CF01B6010E949C3A51
:1028D000FC01B082118260E081E00E94872ECE016F
:1028E00001960E94B92E60E002C06091C6008091FE
:1028F000C00087FDFACFCE0101960E94393BFC0152
:10290000B192CF0160E002C06091CE002091C8007A
:1029100027FDFACF0E94393BFC01108260E082E083
:102920000E94872ECE0101960E94B92E0E945B2C38
:1029300083FF03C05092C60005C00E945B2C84FD3B
:102940006092C600FFE72AE186E0F1502040804017
:10295000E1F700C0000081E0A82685CF64960FB69D
:10296000F894DEBF0FBECDBFDF91CF911F910F91C5
:10297000FF90EF90DF90CF90BF90AF909F908F909F
:102980007F906F905F900895109227010895809135
:1029900027018111609328010895FB0180819181B5
:1029A000A281B38180937A0190937B01A0937C01F3
:1029B000B0937D01089580917A0190917B01A0915F
:1029C0007C01B0917D01FB0180839183A283B3835D
:1029D000089590912701911121C098E090937B0177
:1029E00090937C0110927D0191E090937A01109276
:1029F0002901EAE2F1E0ADE2B1E010821282118237
:102A00001C923596159691E0EA37F907B1F7809355
:102A1000280181E08093270180E008958FEF0895D9
:102A2000CF93C62F842F6AE00E943F3A282FC230EE
:102A300091F018F4C13049F505C0C330A9F0C43095
:102A400021F51BC041E861E080917A010E947C3B46
:102A500080937A011AC044E660E080917B010E9475
:102A60007C3B80937B0111C044E660E080917C0157
:102A70000E947C3B80937C0108C040EA60E080912A
:102A80007D010E947C3B80937D01CF910895CA0116
:102A9000623011F128F4662341F06130B1F508C0CD
:102AA0006330F9F0643089F522C060E974E00AC04F
:102AB0006EE974E00E94513B60917A01613021F42B
:102AC00068EA74E00C94513B611103C06DEA74E054
:102AD000F9CF62500C94E73A40917B0161EB74E0CE
:102AE00004C040917C016DEB74E00C94C33B69EC35
:102AF00074E00E94513B60917D01611103C060ED63
:102B00000C94502F61500C947D2F0895EF92FF92FA
:102B10001F93CF93DF931F92CDB7DEB7182F7B01A2
:102B200080917D0181110AC0612FC7010F90DF9153
:102B3000CF911F91FF90EF900C941D3281504983EB
:102B40000E948C2F4981242F482F612FC7010F909D
:102B5000DF91CF911F91FF90EF900C943832FF924C
:102B60000F931F93CF93DF93EB018C819FE0F92E9E
:102B7000F822807F803929F0803D89F18038D9F5AD
:102B800022C09E810F2D10E085E0F89EF0011124F7
:102B9000E95DFE4F83818F5F8383813009F02BC015
:102BA00020917A01213031F4968380E1989F900141
:102BB000112406C02250268390E1299F9001112400
:102BC000358324831CC085E0F89EF0011124E95D63
:102BD000FE4F8381882379F0815083830CC08D81DF
:102BE00095E0F99EF0011124E95DFE4F9381992350
:102BF00021F0868302C081E01CC080E01AC0609191
:102C00002801CE010E94DE3285E0809FF001819F85
:102C1000F00D1124E95DFE4F4481558184E0569505
:102C200047958A95E1F74783BE018F2D0E9486154F
:102C300082E0DF91CF911F910F91FF900895BF9295
:102C4000CF92DF92EF92FF920F931F93CF93DF9378
:102C5000CDB7DEB728970FB6F894DEBF0FBECDBF55
:102C600080912901811161C080912701811102C0E9
:102C700082E05CC05AE2E52E51E0F52E0EE211E052
:102C8000B12CF7018081882309F445C0C180D2802E
:102C9000F80131972081F0E12F9F900111242C1928
:102CA0003D09359527951216130654F440917B0182
:102CB00084E0489FA00111244217530774F40CC00C
:102CC00040917C01E4E04E9FA00111245195419573
:102CD0005109241735070CF49A012C0D3D1DF701FD
:102CE00032832183690124E0D694C7942A95E1F7C1
:102CF000F80180818C1579F04C2DBE016F5F7F4FFC
:102D00008B2D0E94861560912801CE0101960E94AC
:102D1000DE32F801C082B394F5E0EF0EF11C0B5FD8
:102D20001F4F80E1B812ADCFA3CF8150809329010E
:102D300028960FB6F894DEBF0FBECDBFDF91CF91BE
:102D40001F910F91FF90EF90DF90CF90BF9008956B
:102D5000EEE7F1E080E090E02081222339F0019657
:102D6000349685309105C1F78FEF0895FC01EE0F81
:102D7000FF1FEE0FFF1FE258FE4F91E0908311827C
:102D800012821382089594E0899FF0011124E25881
:102D9000FE4F108208950895DB019C91B4E08B9F53
:102DA000F0011124E258FE4F9283DB0111968C91C1
:102DB0008383089594E0899FF0011124E258FE4F27
:102DC0008281DB018C93838111968C930895CF933C
:102DD000DF93C82F842F613089F46AE00E943F3A64
:102DE00094E0C99FE0011124C258DE4F282F4FE91B
:102DF00060E08B810E947C3B8B8312C0623081F447
:102E00006AE00E943F3A94E0C99FE0011124C25851
:102E1000DE4F282F42E060E08A810E947C3B8A835B
:102E2000DF91CF910895CF93C82FCA01611103C0DC
:102E30006DEE74E02BC0613071F46EE175E00E94BC
:102E4000513B24E0C29FF0011124E258FE4F638100
:102E5000CF910C947D2F6230E1F469EF74E00E9411
:102E6000513B24E0C29FF0011124E258FE4F228121
:102E7000213039F018F0223061F406C061E075E0CD
:102E800005C06BE075E002C062E175E0CF910C9483
:102E9000513BCF910895FF920F931F93CF93DF93F0
:102EA0008B01FB019481907FC82FD0E0903B21F5EE
:102EB000F580CC0FDD1FCC0FDD1FC258DE4F8B819C
:102EC0000E948C2FF8121EC08A81813071F018F098
:102ED000823081F406C081E0F8019681903448F494
:102EE00007C0F8018681803428F081E09981911132
:102EF00080E0898380E00CC0CC0FDD1FCC0FDD1F8C
:102F0000C258DE4F8981811102C081E001C082E098
:102F1000DF91CF911F910F91FF900895E2E9F1E0C9
:102F200080E090E02081222339F0019633968530AD
:102F30009105C1F78FEF0895FC01EE0FFF1FE80F19
:102F4000F91FEE56FE4F128294E6918391E0908332
:102F5000089590E0FC01EE0FFF1FE80FF91FEE56F9
:102F6000FE4F108208950895FB01208190E0FC013E
:102F7000EE0FFF1FE80FF91FEE56FE4F2283089554
:102F800090E0FC01EE0FFF1FE80FF91FEE56FE4F19
:102F90008281FB0180830895CF93DF93C82F842F14
:102FA000613099F46AE00E943F3A4C2F50E0EA0108
:102FB000CC0FDD1FC40FD51FCE56DE4F282F4FE993
:102FC00060E08A810E947C3B8A83DF91CF910895E3
:102FD000CF93C82FCA01611105C060E475E0CF919D
:102FE0000C94513B613089F46FE475E00E94513BD1
:102FF0002C2F30E0F901EE0FFF1FE20FF31FEE560A
:10300000FE4F6281CF910C947D2FCF910895FF9256
:103010000F931F93CF93DF938B01FB019481907FDC
:103020009039A9F0903B01F5F58090E0EC01CC0FD0
:10303000DD1FC80FD91FCE56DE4F8A810E948C2F0C
:10304000F81212C0F8018681898380E00EC090E0FA
:10305000FC01EE0FFF1FE80FF91FEE56FE4F8181B6
:10306000FB01868382E001C081E0DF91CF911F9157
:103070000F91FF900895A82FB0E095E0899FF0018F
:103080001124EE55FE4FE081AE52BE4FE63018F0EF
:1030900080EB8C930895F0E0E059FA4FE491EC93C3
:1030A0000895E2ECF1E080E090E02081222339F005
:1030B0000196339686309105C1F78FEF0895FC0194
:1030C000EE0FFF1FE80FF91FE054FE4F108291E052
:1030D0009283089590E0FC01EE0FFF1FE80FF91FA7
:1030E000E054FE4F12820895089595E0899FD00123
:1030F0001124AE55BE4F95E0FB0101900D929A95BB
:10310000E1F70C943B1895E0899FF0011124EE55EE
:10311000FE4F85E0DB0101900D928A95E1F708955D
:103120001F93CF93DF93182FC62F842F6AE00E943E
:103130003F3A282FC230D9F020F4C13009F045C001
:1031400006C0C33011F1C43009F03FC032C085E081
:10315000189FE0011124CE55DE4F44EA60E08881DB
:103160000E947C3B8883812F0E943B182EC085E003
:10317000189FE0011124CE55DE4F4FE760E88C81A7
:103180000E94653B8C8363E00FC085E0189FF001CF
:103190001124EE55FE4F42815381420F511D27FDF0
:1031A0005A955383428362E08EE0912F0E947C10F7
:1031B0000CC085E0189FE0011124CE55DE4F46E09B
:1031C00060E089810E947C3B898360E08EE0912FE2
:1031D0000E947C10DF91CF911F910895FF920F9371
:1031E0001F93CF93DF93C82FCA01623009F455C0F3
:1031F00030F4662359F0613009F082C02CC063308E
:1032000009F45CC0643009F07BC069C0D0E0FE0105
:10321000EE0FFF1FEC0FFD1FE054FE4FF0804F2D0F
:1032200066E775E00E94C33B8C0185E08C9FB0018E
:103230008D9F700D11246D557E4F8F2D0E946F1A3A
:10324000482F61E875E0C801DF91CF911F910F9180
:10325000FF900C94C33B64E875E00E94513B25E06D
:10326000C29FE0011124CE55DE4F6881663068F4BC
:103270002CE0629FB001112464577A4FDF91CF9107
:103280001F910F91FF900C94513B6650DF91CF91AD
:103290001F910F91FF900C947D2F64ED75E00E94BB
:1032A000513B25E0C29FB00111246D557E4FDF9147
:1032B000CF911F910F91FF900C94471A6CED75E020
:1032C0000E94513B25E0C29FB00111246D557E4FF5
:1032D000DF91CF911F910F91FF900C94551A64EEDE
:1032E00075E00E94513B25E0C29FB00111246D554D
:1032F0007E4FDF91CF911F910F91FF900C944B1A4D
:10330000DF91CF911F910F91FF900895FF920F933E
:103310001F93CF93DF93EB01082F10E08C81807F08
:10332000F801EE52FE4F9081891341C085E0809FE5
:10333000F001819FF00D1124EE55FE4F8081863003
:1033400038F0FD8086500E948C2FF81230C012C0D9
:10335000823059F0853081F0813009F00BC08D81C9
:103360000E946F2F811106C022C08D810E946F2F95
:1033700081111DC082E001C081E0C80FD11D8C8188
:10338000F801EE0FFF1FE00FF11FE054FE4F8083A6
:1033900091E0918395E0909FB001919F700D112471
:1033A0006D557E4F0E946F1A8C8382E001C081E0D0
:1033B000DF91CF911F910F91FF900895DF92EF92CF
:1033C000FF920F931F93CF93DF931092A10162EAB4
:1033D000E62E61E0F62E02EC11E0C0E0D0E075E0F0
:1033E000D72EF7011082DC9EC001DD9E900D1124C6
:1033F0008D559E4F0E943F1AF80110828C2F0E941B
:103400003B182196F5E0EF0EF11C0D5F1F4FC63003
:10341000D10539F7DF91CF911F910F91FF90EF9078
:10342000DF9008951F93CF93DF93C1ECD1E010E0BC
:103430008881882331F0188260E08EE0912F0E940D
:103440007C101F5F2396163099F7DF91CF911F9163
:1034500008952EEFAC01249FC001259F900D1124EB
:1034600097FF02C081589F4F9C01220F232F221FDC
:10347000330B260F311D67FD3A95C9010895FC01F4
:10348000108280E490E09283818313820895FB018F
:1034900063810C94E73AFB016081FAE06F9FB00111
:1034A000112467507A4F0C94513BFB0141815281AA
:1034B000EEEFE49F9001E59F300D112437FF02C02D
:1034C00021583F4F220F232F221F330BFB01438133
:1034D000240F311D47FD3A95B9010C949C3ADB014C
:1034E000EC9190E8E99FF0011124E80FF11DE15CF7
:1034F000F94FE49111962D913C911297E29FC001F2
:10350000E39F900D1124880F892F881F990B139624
:103510002C91820F911D27FD9A95803891051CF4FE
:1035200097FD03C008958FE7089580E00895E1E0D6
:10353000F2E020E030E09081992341F02F5F3F4F8F
:1035400032962A303105B9F78FEF0895F901EE0F61
:10355000FF1FE050FE4F808381E08183822F08951A
:10356000E82FF0E0EE0FFF1FE050FE4F11820895AC
:10357000E82FF0E0EE0FFF1FE050FE4F608308954C
:1035800094E0899FF0011124E852FE4F80819181DF
:10359000A281B381FB0180839183A283B3830895C9
:1035A0000F931F93CF93DF9300D0CDB7DEB78B017E
:1035B000642F94E0899FF0011124E852FE4F81812D
:1035C00081110AC04281C8010F900F90DF91CF9105
:1035D0001F910F910C941432813051F44281C80133
:1035E0000F900F90DF91CF911F910F910C941D328E
:1035F000823059F442815381C8010F900F90DF91BE
:10360000CF911F910F910C942632228183502983F0
:103610004A830E948C2F2981482F6A81C8010F900C
:103620000F90DF91CF911F910F910C9438320F932F
:103630001F93CF93DF93CDB7DEB728970FB6F894DB
:10364000DEBF0FBECDBFDB01082F10E0F801EE0F8B
:10365000FF1FEE0FFF1FE852FE4F9C9111964C91F9
:10366000119712963C91129713962C919083418357
:1036700032832383913081F440E0BE016F5F7F4F3E
:103680000E94D01AF801EE0FFF1FE050FE4F60813C
:10369000CE0101960E94163328960FB6F894DEBF2D
:1036A0000FBECDBFDF91CF911F910F910895CF93A2
:1036B000C82FCA01611103C069ED79E013C0613000
:1036C000A1F467EE79E00E94513B24E0C29FF00133
:1036D0001124E852FE4F60812CE0629FB00111245A
:1036E0006151764FCF910C94513B6230E9F46BE21B
:1036F0007AE00E94513B24E0C29FF0011124E8527D
:10370000FE4F6181613031F018F0623049F406C03B
:1037100060EC01C060EDCF910C94502F60EEFBCFB8
:103720006350CF910C947D2F6330A1F463E37AE072
:103730000E94513B24E0C29FF0011124E852FE4F49
:10374000218162817381211102C06F5F7F4FCF9110
:103750000C949C3ACF910895DF92EF92FF920F93D1
:103760001F93CF93DF93CDB7DEB729970FB6F894A9
:10377000DEBF0FBECDBFD82E8B01FB018481482F49
:103780004F70ED2CF12CF701EE0FFF1FEE0FFF1F16
:10379000E852FE4F90819330B9F0943081F092302E
:1037A00041F5807F803929F5F701EE0FFF1FE050CA
:1037B000FE4F6081C80149870E94DE324985B80109
:1037C0008D2D0E94D01A13C0807F803891F4BE01E5
:1037D0006F5F7F4F8D2D0E94D01AF701EE0FFF1FF4
:1037E000E050FE4F6081CE0101960E94DE3282E001
:1037F00001C081E029960FB6F894DEBF0FBECDBFA1
:10380000DF91CF911F910F91FF90EF90DF9008957E
:103810009F92AF92BF92CF92DF92EF92FF920F935F
:103820001F93CF93DF93CDB7DEB729970FB6F894E8
:10383000DEBF0FBECDBF982E162F6AE0842F4987BA
:103840000E943F3A282F4985113079F434E0939E45
:103850008001112408521E4F44E060E0F80180818D
:103860000E947C3BF801808369C01230B1F4F4E01F
:103870009F9E8001112408521E4F42EA60E0F80129
:1038800081810E947C3BF80181831382128263E074
:1038900087E0992D0E947C1051C0133009F04EC072
:1038A000E92CF12C6701CC0CDD1CCC0CDD1C860155
:1038B00008521E4FF80181818230B1F4A280B3809A
:1038C00064E6842F0E943F3A4FEF5FE160E070EEC4
:1038D0009501280F311D87FD3A95C9010E948D3B46
:1038E000F8019383828313C06AE0842F0E943F3AD9
:1038F0005801F2E0AF0EB11C282F4FE760E0F8014D
:1039000082810E947C3BF8018283F5011182F601DD
:10391000E852FE4F8081811111C040E0BE016F5F0F
:103920007F4F892D0E94D01AF701EE0FFF1FE05044
:10393000FE4F6081CE0101960E94163329960FB684
:10394000F894DEBF0FBECDBFDF91CF911F910F91D5
:10395000FF90EF90DF90CF90BF90AF909F90089531
:10396000CF93DF93E9EDF1E0A1E0B2E0EF01219721
:1039700018821082128211821C923496129682E072
:10398000E130F80799F7DF91CF910895E4E1F2E093
:1039900020E030E09081992341F02F5F3F4F349633
:1039A00025303105B9F78FEF0895F901EE0FFF1FAC
:1039B000EE0FFF1FEC5EFD4F91E0908381838CE35F
:1039C00082831382822F089594E0899FF00111244D
:1039D000EC5EFD4F1082089594E0899FF001112460
:1039E000EC5EFD4F61830895DB019C91B4E08B9FF9
:1039F000F0011124EC5EFD4F9283DB0111968C9156
:103A00008383089594E0899FF0011124EC5EFD4FBB
:103A10008281DB018C93838111968C930895CF93DF
:103A2000DF93C82F842F613089F46AE00E943F3A07
:103A300094E0C99FE0011124CC5EDD4F282F4FE7B1
:103A400060E08A810E947C3B8A830DC0623059F419
:103A500094E0C99FE0011124CC5EDD4F41E06B8111
:103A60000E94543A8B83DF91CF910895CF93C82F52
:103A7000CA01611105C065E57AE0CF910C94513B14
:103A8000613071F465E77AE00E94513B24E0C29F07
:103A9000F0011124EC5EFD4F6281CF910C94382F20
:103AA000623061F424E0C29FF0011124EC5EFD4F0E
:103AB000438165E67AE0CF910C94C33BCF910895A2
:103AC000DB0114969C911497907F903921F0903AE5
:103AD00011F0903861F494E0899FF0011124EC5EBC
:103AE000FD4F15969C918281981780F40DC094E04B
:103AF000899FF0011124EC5EFD4F8381882321F022
:103B00006181CD010E94DE3281E0089582E0089556
:103B1000089580E008950895909133029F3F21F425
:103B20008093330280E008958FEF089590914102D1
:103B30009F3F21F48093410280E008958FEF089524
:103B4000909134029F3F21F48093340280E00895E5
:103B50008FEF0895909142029F3F21F4809342029B
:103B600080E008958FEF0895909135029F3F21F4F2
:103B70008093350280E008958FEF0895909143027D
:103B80009F3F21F48093430280E008958FEF0895D2
:103B90008FEF8093330208958FEF80934102089551
:103BA0008FEF8093340208958FEF8093420208953F
:103BB0008FEF8093350208958FEF8093430208952D
:103BC0006093330208956093410208956093340234
:103BD00008956093420208956093350208956093BA
:103BE00043020895CA016EE57BE00C94513BCA0183
:103BF0006FE47BE00C94513BCA0160E47BE00C94E1
:103C0000513BCA0161E37BE00C94513BCA0168E27D
:103C10007BE00C94513BCA016FE17BE00C94513B7B
:103C200080912D02982F907F903941F490912F022E
:103C3000911104C08F70806880932D0208951092B6
:103C40002802109232028FEF809333028093340265
:103C50008093350210923602109240028093410206
:103C600080934202809343020895AF92BF92CF9215
:103C7000DF92EF92FF920F931F93CF93DF93CDB715
:103C8000DEB728970FB6F894DEBF0FBECDBF182F52
:103C90000E94F42E082F843091F481E08B838C8372
:103CA0001D83CE0101960E94D82F609134026F3F90
:103CB00009F48CC0CE0101960E94DE3287C0FF2439
:103CC000F39484E0D82ECC24CA9492E0B92EA02E8E
:103CD000AA9480912802811149C010922C0210925E
:103CE0002B02F09228020023A9F0F0922C021093EC
:103CF0002D02812F0E94DF2E8F5F8093310281E0A1
:103D00008A1518F0F092320202C010923202EE24AC
:103D1000E3940EC080913202882329F0F0922C02A5
:103D2000B0922B0204C0D0922B02C0923102E12C3F
:103D30009091310280912C02981345C080912B0202
:103D4000816080932B0289E292E00E94CD2F8091C6
:103D500033028F3F41F00E94101E6091330289E2CE
:103D600092E00E94DE32109228022DC0011123C081
:103D7000612F89E292E00E9452329091310280914B
:103D80002C02981323C080912B02816080932B0218
:103D900089E292E00E94CD2F809133028F3F41F063
:103DA0000E94101E6091330289E292E00E94DE328E
:103DB000109228020BC080912B02886080932B0206
:103DC0001092280286CFEE2009F483CF28960FB6F2
:103DD000F894DEBF0FBECDBFDF91CF911F910F9141
:103DE000FF90EF90DF90CF90BF90AF900895AF928B
:103DF000BF92CF92DF92EF92FF920F931F93CF93D8
:103E0000DF93CDB7DEB728970FB6F894DEBF0FBEAD
:103E1000CDBF182F0E94F42E082F843091F481E03A
:103E20008B838C831D83CE0101960E94F22F6091BB
:103E300042026F3F09F48CC0CE0101960E94DE322F
:103E400087C0FF24F39424E0D22ECC24CA9432E01D
:103E5000B32EA82EAA9480913602811149C01092E7
:103E60003A0210923902F09236020023A9F0F09241
:103E70003A0210933B02812F0E94DF2E8F5F8093C6
:103E80003F0281E08A1518F0F092400202C01092C1
:103E90004002EE24E3940EC080914002882329F072
:103EA000F0923A02B092390204C0D0923902C09224
:103EB0003F02E12C90913F0280913A02981345C055
:103EC0008091390281608093390287E392E00E94F9
:103ED000E72F809141028F3F41F00E94101E6091B8
:103EE000410287E392E00E94DE32109236022DC03A
:103EF000011123C0612F87E392E00E94523290911A
:103F00003F0280913A02981323C080913902816068
:103F10008093390287E392E00E94E72F809141026B
:103F20008F3F41F00E94101E6091410287E392E0B2
:103F30000E94DE32109236020BC0809139028860F6
:103F4000809339021092360286CFEE2009F483CF97
:103F500028960FB6F894DEBF0FBECDBFDF91CF918C
:103F60001F910F91FF90EF90DF90CF90BF90AF9097
:103F700008959091360280912802892B08958091AE
:103F80004402811107C081E080934402809346027D
:103F900080E008958FEF08951092440208950895E7
:103FA000FB01808180934602089580914602FB01C7
:103FB00080830895842F613039F441E06091460296
:103FC0000E94543A809346020895CA01611104C0C8
:103FD00067E87BE00C94513B613031F4409146023C
:103FE00060E97BE00C94C33B08951F93CF93DF936C
:103FF000EB018C810E94F42E843089F408C0FE010C
:10400000E10FF11D84810E94072D1F5F01C010E0A8
:104010008B811817A0F3CE010E940C3025C080912F
:104020004602882349F09C8180914502981304C080
:104030008A8182608A8309C08A818D7F8A838C818C
:104040000E94072D8C818093450211E007C0FE017C
:10405000E10FF11D84810E94072D1F5F8B811817CE
:10406000B0F3CE010E94013080E0DF91CF911F912B
:104070000895109244028FEF80934502089595E0D1
:10408000899FF0011124E95BFD4F10820895089586
:1040900095E0899FF0011124E95BFD4F8181DB01EF
:1040A0008C93828111968C930895CF93DF93EC01CA
:1040B0008981813031F018F0823049F404C080EAFF
:1040C00003C080EC01C080ED8B838FEF05C090EBC7
:1040D0009B8383500E948C2F8C83DF91CF91089516
:1040E0001F93CF93DF93182F842F613089F46AE0F8
:1040F0000E943F3A25E0129FE0011124C95BDD4F89
:10410000282F41EA60E089810E947C3B898312C0AC
:10411000623081F46AE00E943F3A95E0199FE00125
:104120001124C95BDD4F282F41EA61E08A810E949A
:104130007C3B8A8325E0129FC0011124895B9D4F3F
:10414000DF91CF911F910C945520FB012081F5E068
:104150008F9FC0011124895B9D4FFC012183FB01CE
:104160002181FC0122830C945520CF93DF93E7E457
:10417000F2E0C0E0D0E08081882339F021963596C6
:10418000C530D105C1F78FEF11C085E08C9FF001DC
:104190008D9FF00D1124E95BFD4F83E081838283C5
:1041A00081E08083CF010E9455208C2FDF91CF9139
:1041B00008951F93CF93DF93EB019C81492F407F9C
:1041C000282F30E055E0859FF0011124E95BFD4F79
:1041D0008381481332C084818F3F19F04D81481389
:1041E0002CC085E0829FF001839FF00D1124E95BD4
:1041F000FD4F892F8F7091819150923010F01E8168
:1042000001C01D819281913019F0923051F404C0A7
:1042100092E09B83806C02C09B83806D8C831D83A6
:104220000AC093E09B83806B8C83828183500E94C1
:104230008C2F8D831E8382E001C081E0DF91CF91BE
:104240001F910895613031F018F0623041F405C0DB
:1042500060EA01C060EC0C94502F60EDFCCF63501D
:104260000C947D2FCF93C82FCA01611105C06CEB50
:104270007BE0CF910C94513B613061F463ED7BE0C6
:104280000E94513B25E0C29FF0011124E95BFD4FE4
:1042900061810DC0623071F46BEC7BE00E94513B98
:1042A00025E0C29FF0011124E95BFD4F6281CF91AF
:1042B0000C942221CF91089590916802911107C02A
:1042C00091E0909368028093690280E008958FEFF7
:1042D000089590916C02911107C091E090936C0247
:1042E00080936D0281E008958FEF089594E0899F97
:1042F000F0011124E859FD4F1082089594E0899F40
:10430000F0011124E859FD4F6183089594E0899FDD
:10431000F0011124E05AFD4FDB014D915D916D914B
:104320007C914083518362837383089594E0899FD5
:10433000F0011124E05AFD4F80819181A281B38167
:10434000FB0180839183A283B383089580E0089565
:104350001F93CF93DF93C82FD62F142F6AE0842F9B
:104360000E943F3A282FD230B1F018F4D130C9F56D
:1043700005C0D330E9F0D430A1F527C084E0C89F50
:10438000E0011124C05ADD4F4EE960E08A810E94AD
:104390007C3B8A8326C084E0C89FE0011124C05A78
:1043A000DD4F4FEF60E088810E947C3B888319C01D
:1043B00084E0C89FE0011124C05ADD4F4FE760E858
:1043C00089810E94653B89830CC084E0C89FE0011D
:1043D0001124C05ADD4F41E06B81812F0E94543A75
:1043E0008B83DF91CF911F910895CF93C82FCA017E
:1043F000623051F130F4662351F0613009F04FC062
:1044000019C06330B1F1643009F049C03CC0C1113A
:1044100003C06FE07CE002C067E17CE00E94513B9A
:1044200024E0C29FF0011124E859FD4F43816FE160
:104430007CE032C024E0C29FF0011124E05AFD4F1D
:10444000428165E27CE028C061E37CE00E94513B50
:1044500024E0C29FF0011124E05AFD4F60816111F8
:1044600005C06BE37CE0CF910C94513BCF910C9451
:10447000C23A24E0C29FF0011124E05AFD4F41816D
:1044800063E47CE009C024E0C29FF0011124E05AFB
:10449000FD4F43816FE47CE0CF910C94C33BCF91FF
:1044A0000895CF93C82F0E947D2DAC0184E0C89F52
:1044B00090011124F901E859FD4F8281803420F4E4
:1044C0004B3A524030F403C04535514010F480E07F
:1044D00001C08FE7F901E859FD4F8283F901E05AE5
:1044E000FD4F8381F901E859FD4F882321F08FE7C3
:1044F0009281891B01C08281CF9108951F93CF9330
:10450000DF93C82F0E947D2DFC0134E0C39FE001A2
:104510001124DE01A05ABD4F8C9111961C91E1151A
:1045200094E0F90738F4EE0FFF1FE55AF34F259199
:10453000349102C02FEF3FEFA82FB0E00E94AA3DB8
:10454000472F582F692F7727812F992787FD90951F
:10455000840F951F97FD04C0803891051CF403C09B
:1045600080E001C08FE7FE01E859FD4F9281292FBD
:104570002F77382F321B232F11F4906808C097FF34
:1045800005C027FD219522300CF401C0982FFE01B3
:10459000E859FD4F9283C05ADD4F8B81882319F073
:1045A000892F809501C0892F8F77DF91CF911F913F
:1045B000089584E08093620281E08093630292E335
:1045C000909360029FEF909361029AE0909366024D
:1045D0008093670210926402109265020895CF934F
:1045E000DF93CDB7DEB729970FB6F894DEBF0FBEC5
:1045F000CDBF80916802882331F1809160028111E2
:1046000003C00E94512203C080E00E947E22282F16
:1046100080916B022817B9F020936B02809162029F
:1046200029870E948C2F2985482F60E0CE010196B2
:104630000E94383260916902CE0101960E94DE32FA
:1046400081E08093700280916C02882339F180911F
:104650006402811104C081E00E94512203C081E004
:104660000E947E22282F80916F022817B9F0209394
:104670006F028091660229870E948C2F2985482F1E
:1046800060E0CE0101960E94383260916D02CE0149
:1046900001960E94DE3281E08093710229960FB666
:1046A000F894DEBF0FBECDBFDF91CF91089580910A
:1046B0007002882339F01092700260E084E090E08C
:1046C0000E947C1080917102882339F0109271024F
:1046D00060E085E091E00E947C10089510927502E0
:1046E0000895809175028111609376020895FB010F
:1046F00080819181A2818093720290937302A09332
:10470000740208958091720290917302A0917402D4
:10471000FB0180839183A28308959091750291118A
:104720001FC08093760281E08093750280937202AD
:1047300087E0809373028FE0809374028FEF809301
:10474000770210927802EAE7F2E01082DF01119717
:104750001C92329682E0E838F807B9F780E00895B5
:104760008FEF089520917302EAE7F2E090E00AC02B
:10477000DF0111973C913F3F19F43081381731F038
:104780009F5F32969213F4CF8FEF0895892F08958B
:104790001F93CF93DF93182FC62FD42F65E0842F5C
:1047A0000E943F3A282FC33019F128F4C13049F054
:1047B000C23061F514C0C530F9F0E0F0C63031F513
:1047C0001DC04FE060E0809172020E947C3B8093AC
:1047D000720262E081E1912F0E947C1017C049E0D3
:1047E00061E0809173020E947C3B809373020EC053
:1047F00041E005C042E003C044E001C048E06091F0
:1048000074028D2F0E94543A80937402DF91CF91ED
:104810001F910895CA016330E9F020F4613061F01E
:1048200088F406C0653011F1D8F0663061F524C017
:1048300065E774E10C94513B409172024F5F65E86B
:1048400074E11FC04091730220917202420F67E928
:1048500074E117C040917402417069EA74E111C0BB
:104860004091740242706BEB74E10BC04091740292
:1048700044706DEC74E105C04091740248706FEDB6
:1048800074E10C94C33B0895609177026F3F11F07F
:104890000E940D3281E0909177029F3F09F480E001
:1048A00008951F93CF93DF93EC0110E00CC060914B
:1048B0007202610FCE010E940D3260917602CE012C
:1048C0000E94DE321F5F80917302181780F3DF9120
:1048D000CF911F9108951F93CF93DF93EB018C81AC
:1048E000807F803B09F480C048F4803989F0803AA9
:1048F00009F46CC0803809F093C043C0803D09F4CE
:1049000085C0803E09F47DC0803C09F089C074C038
:104910004D8130917302EAE7F2E02FEF9FEF10E054
:104920000EC0DF0111978C918F3F39F050815417E1
:1049300049F0821710F4282F912F1F5F329613131E
:10494000F0CF192F1F3F09F46DC060917202610F03
:10495000CE010E940D3280917202810F8093770206
:10496000E12FF0E08D81DF01AA0FBB1FAB58BD4FD7
:1049700015968C93EE0FFF1FE758FD4F8FEF808346
:1049800031C08D810E94B223182F8F3F09F44AC095
:1049900060917202680FCE010E940D32E12FF0E0AB
:1049A000EE0FFF1FE758FD4F8EEF808320917302BB
:1049B000E9E7F2E090E007C0808181508E3F08F483
:1049C00080839F5F32969213F7CF0CC08D810E9437
:1049D000B2238F3F39F160917202680F4E81CE0190
:1049E0000E941D3282E01FC08091740280FF12C0BD
:1049F000CE010E94512416C08091740281FDF8CF2F
:104A000009C08091740282FDF3CF04C080917402CA
:104A100083FDEECFCE010E9444248111E3CF02C07A
:104A200081E001C080E0DF91CF911F91089595E072
:104A3000899FF0011124E557FD4F1082089595E0FC
:104A4000899FF0011124E557FD4F80818111618319
:104A50000895CF93DF9390E02AE1289FE001299FFA
:104A6000D00D1124CB56DD4FFB01DE0101900D92DC
:104A70002A95E1F72881223049F425E0289FF001AA
:104A8000299FF00D1124E557FD4F1382DF91CF913F
:104A900008959AE1899FF0011124EB56FD4F8AE1B8
:104AA000DB0101900D928A95E1F70895282F30E0FF
:104AB0009AE1899FF0011124EB56FD4F80818330EC
:104AC000E9F4DB0114968C911497807F803BB1F45C
:104AD00085E0829FF001839FF00D1124E557FD4F83
:104AE000928116968C91992321F0803438F41282A9
:104AF00005C0813418F0138281E0828381E008953B
:104B000090918B02992341F09091900291112FC0C6
:104B100041E050E091E003C040E050E090E02AE145
:104B2000249FF001259FF00D1124EB56FD4F1082BC
:104B3000118220E030E06FEFDF01A20FB31F129669
:104B40006C932F5F3F4F28313105B1F725E0249F4B
:104B5000F001259FF00D1124E557FD4F818381E081
:104B6000808312828FEF83831482892F08958FEFC1
:104B7000089561110AC09AE1899FF0011124EB5652
:104B8000FD4F818180FD1AC00BC0613059F49AE15C
:104B9000899FF0011124EB56FD4F818181FD0EC0EC
:104BA0008FEF08956A31E0F79AE1899FF0011124AF
:104BB000E60FF11DEB56FD4F808108958EEF0895AD
:104BC0000F931F93CF93DF93182FCA01613051F0D9
:104BD00030F0623061F1633009F078C04FC06BE0B3
:104BE00075E116C068E175E10E94513B2AE1129F10
:104BF000F0011124EB56FD4F2081213079F030F087
:104C0000223079F0233009F061C00EC06FE175E108
:104C1000DF91CF911F910F910C94513B65E275E1AB
:104C2000F7CF69E275E1F4CF61E375E1F1CF25E0FB
:104C3000129FF0011124E557FD4FC4814C2F4F5FA7
:104C40006CE375E10E94C33BC11103C066E475E1EA
:104C5000DFCFC13019F46FE475E1DACFC43019F455
:104C600069E575E1D5CFEC2FF0E0E15AFA4E649199
:104C7000DF91CF911F910F910C940E2F69E775E191
:104C80000E94513BEC0185E0189FF0011124E5578B
:104C9000FD4F0481602F812F0E94B9258F3F19F4A9
:104CA00060E875E104C08E3F21F46BE875E1CE0148
:104CB000AFCF043009F48F5F482F60E975E1CE0172
:104CC000DF91CF911F910F910C94C33BDF91CF9156
:104CD0001F910F910895E82F262FCA01E11103C0FB
:104CE00020E04BE711C0E13019F420E049E70CC0A7
:104CF000E43021F4462F60E00C941432EA3138F4A9
:104D0000F0E0E15AFA4E449160E00C943832089594
:104D1000BF92CF92DF92EF92FF920F931F93CF93A8
:104D2000DF93CDB7DEB728970FB6F894DEBF0FBE7E
:104D3000CDBFD82E162FB42E6AE0842F0E943F3AA2
:104D4000282F123011F11330A1F1113009F080C079
:104D5000ED2CF12C8AE1D89E800111240B561D4FB9
:104D600043E060E0F80180810E947C3BF801808391
:104D7000813009F06DC085E08E9DF0018F9DF00DB2
:104D80001124E557FD4F138263C0F5E0DF9E8001DB
:104D9000112405571D4F49E160E0F80184810E940C
:104DA0007C3BF801848363E086E09D2D0E947C10AB
:104DB0004FC0ED2CF12C85E0D89EF0011124E55771
:104DC000FD4FC480C1100AC08AE18E9D80018F9D75
:104DD000100D11240B561D4F41E00CC0F1E08AE18B
:104DE0008E9D80018F9D100D1124CF120BC00B568C
:104DF0001D4F42E0F80161818B2D0E94543AF80169
:104E000081830CC00C0D111D0D561D4F4FE76FEF28
:104E1000F80182810E94653BF80182836C2D8D2D03
:104E20000E94B9258F3FA1F0AE014F5F5F4F682F01
:104E30008C2D0E946B2685E08E9DF0018F9DF00DDC
:104E40001124E557FD4F6181CE0101960E94163372
:104E500028960FB6F894DEBF0FBECDBFDF91CF917D
:104E60001F910F91FF90EF90DF90CF90BF9008952A
:104E7000CF92DF92EF92FF920F931F93CF93DF9326
:104E8000CDB7DEB729970FB6F894DEBF0FBECDBF02
:104E90000EE812E0D12CF80133978081811107C010
:104EA000D3940B5F1F4F82E0D812F5CF26C0780154
:104EB000E2E0EE1AF108F801C080F9E1FC1580F398
:104EC0006C2D8D2D0E94B925282F8F3F79F0AE01D2
:104ED0004F5F5F4F682F8C2D29870E946B26F7014B
:104EE0006081CE0101960E94DE322985F801808121
:104EF0008F5F80832F3FF9F2D3CF29960FB6F894B6
:104F0000DEBF0FBECDBFDF91CF911F910F91FF90FC
:104F1000EF90DF90CF90089597E0899FF0011124E2
:104F2000E753FD4F1082089597E0899FF001112407
:104F3000E753FD4F6183089597E0899FF0011124A5
:104F4000E753FD4F8381FB0180830895CF93DF9367
:104F5000EC018B81811103C01C821D820EC0813146
:104F600020F49FE09C83815007C090EF9C838831A0
:104F700030F489508295807F8D838FEF05C090EB50
:104F80009D8388510E948C2F8E83DF91CF9108954D
:104F9000CF93DF93E9ECF2E0C0E0D0E09081992379
:104FA00039F021963796CA30D105C1F78FEF11C07D
:104FB00097E09C9FF0019D9FF00D1124E753FD4F5A
:104FC000818381E0808362831382CF010E94A627C0
:104FD0008C2FDF91CF91089561E00C94C82760E099
:104FE0000C94C827FB012081F7E08F9FC00111249A
:104FF00087539D4FFC0123830C94A627DB01282FA8
:1050000030E097E0899FF0011124E753FD4F848140
:1050100014969C91149789239581891317C08681D2
:105020008F3F29F015969C91159798130FC087E034
:10503000829FF001839FF00D1124E753FD4F828181
:10504000811106C06181CD010E94DE3281E00895A8
:1050500082E00895CF93DF93C82F842F6130A9F4A5
:105060006AE00E943F3A97E0C99FE0011124C753CC
:10507000DD4F282F46EB60E08B810E947C3B8B83C9
:10508000CE01DF91CF910C94A627DF91CF910895A7
:10509000CF93C82FCA01611111C027E0C29FF00150
:1050A0001124E753FD4F2281222319F066ED75E1AB
:1050B00002C06CEC75E1CF910C94513B613049F525
:1050C00065EE75E10E94513B27E0C29FF00111247B
:1050D000E753FD4F4381411103C06DEE75E1EBCF06
:1050E000413128F461EF75E1CF910C94C33B443119
:1050F00019F469EF75E1DFCF642F483130F469505E
:105100006295607FCF910C94502F6851CF910C9491
:105110007D2FCF910895EFE0F3E080E090E02081D3
:10512000222339F00196329685309105C1F78FEF31
:105130000895FC01EE0FFF1FE15FFC4F118291E02B
:1051400090830895E82FF0E0EE0FFF1FE15FFC4F22
:10515000108208950895FB019081E82FF0E0EE0F92
:10516000FF1FE15FFC4F91830895E82FF0E0EE0F01
:10517000FF1FE15FFC4F8181FB0180830895FB01EC
:105180009481907F903F61F0E82FF0E0EE0FFF1FD9
:10519000E15FFC4F8181892BFB01848382E00895CC
:1051A00081E00895CF93DF93C82F842F613079F485
:1051B0006AE00E943F3AD0E0CC0FDD1FC15FDC4FB8
:1051C000282F4FE060E089810E94653B8983DF9151
:1051D000CF910895E82FCA01611104C06AE176E118
:1051E0000C94513B613059F4F0E0EE0FFF1FE15F8A
:1051F000FC4F41814F5F66E276E10C94C33B08951A
:10520000E9E1F3E080E090E02081222339F001968B
:10521000329685309105C1F78FEF0895FC01EE0FAE
:10522000FF1FE75EFC4F118291E090830895E82F05
:10523000F0E0EE0FFF1FE75EFC4F10820895089527
:10524000E82FF0E0EE0FFF1FE75EFC4FDB018C91D3
:1052500081830895E82FF0E0EE0FFF1FE75EFC4F1B
:105260008181FB0180830895CF93DF93C82F842F22
:10527000613079F46CE00E943F3AD0E0CC0FDD1F42
:10528000C75EDC4F282F40E660EA89810E94653BBB
:105290008983DF91CF910895CF93DF93EB019C81B8
:1052A000907F903921F0903A11F0903879F4E82FFE
:1052B000F0E0EE0FFF1FE75EFC4F21814FE760E05B
:1052C0008D810E94653B8D8382E001C081E0DF918A
:1052D000CF910895E82FCA01611104C06BE476E113
:1052E0000C94513B613051F4F0E0EE0FFF1FE75E8C
:1052F000FC4F418165E576E10C94C33B0895109223
:105300002303109224030895E0912303EA3050F41C
:10531000EF5FE0932303F0E0EE0FFF1FED5DFC4F26
:10532000808361830895E0912303EA3050F4EF5FB6
:10533000E0932303F0E0EE0FFF1FED5DFC4F808351
:1053400061830895CF93DF93D82FC62F0E945F2CDF
:10535000909123039A3078F49F5F909323030E94E7
:10536000612CE0912303F0E0EE0FFF1FED5DFC4F99
:10537000D083C18304C0DF91CF910C94612CDF9165
:10538000CF9108951F93CF93DF9300D01F92CDB795
:10539000DEB7182F6091240380E00E94872E612FD2
:1053A000CE0101960E94393B89810E949F2E8A81FD
:1053B0000E949F2E8CE30E949F2E809124038E5F7B
:1053C000823118F48093240302C0109224030F90BA
:1053D0000F900F90DF91CF911F9108950F931F931E
:1053E000CF93DF93CDB7DEB727970FB6F894DEBF24
:1053F0000FBECDBF8C016091240380E00E94872EF8
:10540000B801CE0101960E94683AFC011082CE01DB
:1054100001960E94B92E809124038A5F823118F48C
:105420008093240302C01092240327960FB6F894A9
:10543000DEBF0FBECDBFDF91CF911F910F910895B9
:10544000EF92FF921F93CF93DF931F92CDB7DEB7FA
:10545000182FE82EF92E07C0F70181917F0169838B
:105460000E94C22969818E2D811B8617A8F30F9097
:10547000DF91CF911F91FF90EF9008951092230339
:105480000895CF93DF9320912303621798F4C62FDA
:10549000D0E0CC0FDD1FCB5DDC4F68810E94E73A86
:1054A0002DE2FC012193CF01698170E0DF91CF9162
:1054B0000C949C3ADF91CF91089580912303089535
:1054C000E82F862FE43160F4F0E0EE0FFF1FEC5977
:1054D000F94E25913491F90125913491F9010994FE
:1054E0008FEF0895E82F892FE43170F4F0E0EE0F8C
:1054F000FF1FEC59F94E259134912E5F3F4FF90172
:1055000045915491FA0109940895E82F892FE431C7
:1055100070F4F0E0EE0FFF1FEC59F94E2591349135
:105520002C5F3F4FF90145915491FA010994089578
:10553000E82F892FE43170F4F0E0EE0FFF1FEC59F3
:10554000F94E259134912A5F3F4FF90145915491CD
:10555000FA0109940895E82F892FE43170F4F0E0FE
:10556000EE0FFF1FEC59F94E25913491285F3F4F04
:10557000F90145915491FA0109940895E82F892F72
:10558000E43170F4F0E0EE0FFF1FEC59F94E259175
:105590003491265F3F4FF90145915491FA010994E6
:1055A00081E00895E82F892FE43170F4F0E0EE0FE8
:1055B000FF1FEC59F94E25913491245F3F4FF901BB
:1055C000A591B491FD0109940895E82F892FE43144
:1055D00070F4F0E0EE0FFF1FEC59F94E2591349175
:1055E000225F3F4FF901A591B491FD0109940895FF
:1055F000E82FF0E0EE0FFF1FEC59F94E85919491E2
:105600004096FC0184910895E82FF0E0EE0FFF1F13
:10561000EC59F94E859194914196FC01849108953D
:10562000E82FF0E0EE0FFF1FEC59F94E85919491B1
:105630004296FC0184910895E82FF0E0EE0FFF1FE1
:10564000EC59F94E859194914396FC01849108950B
:10565000E82FF0E0EE0FFF1FEC59F94E8591949181
:105660004496FC0125913491C90108950F931F932D
:10567000E82FF0E0EE0FFF1FEC59F94E8591949161
:105680004696FC010591159125913491B801C90107
:105690001F910F910895CF92DF92EF92FF92CF93D7
:1056A0006B017C01C0E08C2F0E94362B6C157D05B0
:1056B0008E059F0529F0CF5FC431A9F78FEF01C098
:1056C0008C2FCF91FF90EF90DF90CF9008952C9882
:1056D000089588E10FB6F8948093600010926000FE
:1056E0000FBE2FEF22B911B888EF85B914B828B9C9
:1056F00087E290E017B82BB91AB82C9A249A2B9805
:10570000239A2D98259A5B9A5398179A0F98E9E651
:10571000F0E0208124602083E99AEBE6F0E020812C
:1057200020682083E8E6F0E020812160208322B118
:10573000286322B921B1277C21B99093C5008093B9
:10574000C4001092C00028E92093C10026E02093F5
:10575000C2001092390310923A039093CD008093C7
:10576000CC001092C80080E98093C9002093CA0041
:1057700010923C0310923B03109280008AE08093C9
:10578000810087EA91E6909389008093880082E007
:1057900080936F001092B00097E09093B10084BDA9
:1057A00095E095BD16BC93E197BD80936E00109275
:1057B0003D0310923F0310923E0380E480937C00EF
:1057C00087E880937A0083E080937E0008958111BA
:1057D0000C94672B2C9A0895882311F02D9A089524
:1057E0002D980895882311F02B9A08952B980895E9
:1057F00089B183FB882780F990B1991F9927991F58
:10580000990F892B08951F920F920FB60F921124B2
:105810002F933F934F935F936F937F938F939F93B8
:10582000AF93BF93EF93FF9360B180B165FB6627A1
:1058300060F991E0692780780E94AE37FF91EF917F
:10584000BF91AF919F918F917F916F915F914F9198
:105850003F912F910F900FBE0F901F9018951F92A0
:105860000F920FB60F9211242F933F934F935F9394
:105870006F937F938F939F93AF93BF93EF93FF9318
:1058800060B189B165FB662760F991E0692788708E
:105890000E94EC37FF91EF91BF91AF919F918F9153
:1058A0007F916F915F914F913F912F910F900FBE1C
:1058B0000F901F90189580B1809588730895F89483
:1058C0000895789408951F920F920FB60F921124A5
:1058D0002F933F934F935F936F937F938F939F93F8
:1058E000AF93BF93EF93FF930E94672B8091C60005
:1058F0000E94351E80E00E94E72BFF91EF91BF913F
:10590000AF919F918F917F916F915F914F913F9157
:105910002F910F900FBE0F901F9018951F920F920E
:105920000FB60F9211242F933F934F935F936F9372
:105930007F938F939F93AF93BF93EF93FF930E94B7
:10594000672B8091CE000E94F71E80E00E94E72B1B
:10595000FF91EF91BF91AF919F918F917F916F9147
:105960005F914F913F912F910F900FBE0F901F901D
:1059700018951F920F920FB60F9211242F933F93F9
:105980004F935F936F937F938F939F93AF93BF9347
:10599000EF93FF930E94672B8091C00085FF1BC08F
:1059A00080913A0390913903891781F0E82FF0E054
:1059B000E05CFC4F90819093C6008D3118F01092FE
:1059C0003A0309C08F5F80933A0305C08091C100FC
:1059D0008F7D8093C10080E00E94E72BFF91EF91C3
:1059E000BF91AF919F918F917F916F915F914F91F7
:1059F0003F912F910F900FBE0F901F90189581E04F
:105A00002091390390913A03291380E00895E091A1
:105A10003903ED3118F01092390304C09E2F9F5FB7
:105A20009093390320913A0390913903291303C0CD
:105A3000E093390304C0F0E0E05CFC4F8083809188
:105A4000C10080628093C10008951F920F920FB62B
:105A50000F9211242F933F934F938F939F934091D5
:105A60003D0320913E0330913F0380917800909157
:105A70007900820F931F411114C0969587959695D2
:105A8000879590935F0380935E0310923F0310927B
:105A90003E0380E480937C0087EC80937A0081E071
:105AA00020C04430A1F4969587959695879590935C
:105AB00061038093600310923F0310923E0381E4E0
:105AC00080937C0087EC80937A0085E00AC09093F5
:105AD0003F0380933E0387EC80937A00842F8F5F8F
