:100000000C94250D0C94420D0C94F9240C94420D83
:100010000C9425250C94420D0C94420D0C94420D29
:100020000C94420D0C94420D0C94420D0C94420D14
:100030000C94420D0C949A260C94420D0C94420D93
:100040000C941B260C94420D0C94420D0C94420D02
:100050000C9459250C94AF250C94420D0C94420D30
:100060000C94420D0C94420D0C94420D0C94420DD4
:100070000C9484250C94420D0C94420D01440D58AF
:100080000D470D620D2D2D2D2D20202041424F5565
:10009000543A2020202D2D2D2D0020204D4944495B
:1000A0004D49584649582076312E31000000002035
:1000B00020202020202042793A000000000000008B
:1000C000000000004C617273204F2E20506F6E7440
:1000D0006F70706964616E000020687474703A2FEC
:1000E0002F6C61727365652E646B00000000000068
:1000F0000000000000000000000000000000000000
:100100000000002020436F707972696768742032A4
:10011000303134000000000000000000000000004A
:1001200000000000000000000000000000457272A6
:100130006F72733A00000000000000000000000031
:10014000000001840D870DD60D890D4144442046E1
:1001500041494C4544210046494C544552204144B4
:10016000444544002D2D2D204144442046696C74A3
:1001700065723A202D2D2D2D00000C0EE70DF90E85
:10018000490E01900F930F950F9F0F426F6F746C84
:100190006F6164657220616374697661746564007F
:1001A0002873656C656374206D75737420626500D7
:1001B0007072657373656420666F72203320736597
:1001C000632E29002A2A2A2A204D4944494D49589C
:1001D000464958202A2A2A2A00205365747570201F
:1001E00066696C7465727300000000000000204CAA
:1001F0006F61642070726573657400000000000018
:10020000000000205361766520707265736574008C
:100210000000000000000000204164642066696C5A
:1002200074657200000000000000000000205265AC
:100230006D6F76652066696C746572000000000061
:1002400000002052656F726465722066696C746587
:10025000727300000000002053686F77206D69649E
:1002600069206C6F670000000000000020426F6F83
:10027000746C6F6164657200000000000000000093
:10028000002041626F757400000000000000000053
:10029000000000000000011A101F10211030102D66
:1002A0002D2D2053484F57204D494449204C4F474E
:1002B0003A00496E7075742031206E6F2072742F71
:1002C0007379737800496E707574203120616C6C9D
:1002D0000000000000000000496E7075742032209C
:1002E0006E6F2072742F7379737800496E70757415
:1002F000203220616C6C00000000000000004F758F
:1003000074707574206E6F2072742F737973780017
:10031000004F757470757420616C6C0000000000F3
:1003200000000000019D109F10A710A1102D2D2D81
:100330002D20204D6573736167653A20202D2D2D8A
:100340002D0001CA10DB106711E31001D610DB107D
:100350006711E310505245534554205341564544CC
:100360000044454641554C5453204C4F414445446C
:1003700000505245534554204C4F41444544005091
:100380005245534554204C4F4144204552523A2542
:1003900069002D2D2D2053415645205072657365FF
:1003A000743A202D2D2D002D2D2D204C4F41442011
:1003B0005072657365743A202D2D2D004465666179
:1003C000756C747300537461727420757000507290
:1003D00065736574202569002028656D707479291E
:1003E0000020434F525255505400204552523A205B
:1003F00025690001B611BD115612E51101AE11BDFE
:10040000115612E5112D2D2D2052454D4F564520E8
:1004100046696C7465723A202D002D2D2D205245B1
:100420004F524445522046696C746572733A0054C9
:100430004553545F4D4F4445009F13B813C213C337
:1004400013D113D4143C14DE1305040704CF0401A4
:1004500018000090909080A0D0437572766520259A
:10046000552D3E002555004F6E2020203A20004E8D
:100470002E4F6E00000000000000004E2E4F6E2038
:10048000426C2E4B6579004E2E4F6E2057682E4BD6
:100490006579004E2E4F6666000000000000004B9C
:1004A0006579204166746572542E0043682E2041A0
:1004B00066746572542E004C6F7720203A200048F5
:1004C000696768203A200043757276653A200043D8
:1004D000757276652066696C746572004C696E652C
:1004E00061720000000047616D6D6120302E3600A2
:1004F00047616D6D6120302E380047616D6D612060
:10050000312E320047616D6D6120312E36002D5342
:100510002D207368617065002D4E2D207368617009
:10052000650000020406080A0C0E10121416181AB0
:100530001C1E20222426282A2C2E30323436383A0B
:100540003C3E40424446484A4C4E50525456585AFB
:100550005C5E60626466686A6C6E70727476787AEB
:100560007C7E80828486888A8C8E90929496989ADB
:100570009C9EA0A2A4A6A8AAACAEB0B2B4B6B8BACB
:10058000BCBEC0C2C4C6C8CACCCED0D2D4D6D8DABB
:10059000DCDEE0E2E4E6E8EAECEEF0F2F4F6F8FAAB
:1005A000FCFE00010204050607080A0B0C0D0F10E3
:1005B000111214151618191A1B1D1E1F212223258E
:1005C0002627292A2B2D2E2F313234353638393B28
:1005D0003C3E3F404243454648494B4C4E4F5152AA
:1005E000545657595A5C5E5F6163646668696B6D07
:1005F0006F7072747678797B7D7F81838587898B34
:100600008D8F919395979A9C9EA1A3A5A8AAADAF13
:10061000B2B5B7BABDC0C3C7CACED1D5DADEE3E939
:10062000F0FE0002030506080A0B0D0F1012131549
:1006300017181A1C1D1F2122242627292B2C2E3087
:1006400031333536383A3B3D3F4142444648494BC9
:100650004D4F5052545657595B5D5E6062646668F8
:10066000696B6D6F71737476787A7C7E8082848614
:1006700087898B8D8F91939597999B9D9FA1A3A51A
:10068000A8AAACAEB0B2B4B7B9BBBDC0C2C4C6C9EB
:10069000CBCED0D2D5D8DADDDFE2E5E8EBEEF1F56E
:1006A000F9FE000205070A0C0E111315181A1D1F7A
:1006B000212426282B2D2F323436383B3D3F42440F
:1006C00046484B4D4F515456585A5D5F61636668BA
:1006D0006A6C6E70737577797B7D80828486888A78
:1006E0008C8E90939597999B9D9FA1A3A5A7A9AB4D
:1006F000ADAFB1B3B5B7B9BBBDBFC0C2C4C6C8CA40
:10070000CCCDCFD1D3D5D6D8DADCDDDFE1E2E4E65B
:10071000E7E9EAECEEEFF1F2F3F5F6F7F9FAFBFCB4
:10072000FDFE0003060A0D101316191C1F222528B2
:100730002B2E3134373A3D404345484B4E515356AA
:10074000595C5E616466696C6E717376787B7D80DE
:100750008285878A8C8E919395989A9C9EA1A3A559
:10076000A7A9ABADAFB1B4B6B8B9BBBDBFC1C3C526
:10077000C7C8CACCCECFD1D3D4D6D8D9DBDCDEDF44
:10078000E1E2E3E5E6E7E9EAEBECEDEFF0F1F2F3C5
:10079000F4F5F6F7F7F8F9FAFAFBFCFCFDFDFDFEBF
:1007A000FEFE0001010203040506060708090A0B04
:1007B0000C0D0E10111213141617181A1B1D1F20E2
:1007C00022242527292B2D2F313436383B3D40421A
:1007D00045484B4E5154575A5E6164686B6F727650
:1007E0007A7D8184888C8F93969A9DA0A4A7AAADC8
:1007F000B0B3B6B9BCBEC1C3C6C8CACDCFD1D3D5BC
:10080000D7D9DADCDEDFE1E3E4E6E7E8EAEBECEDBA
:10081000EEF0F1F2F3F4F5F6F7F8F8F9FAFBFCFD77
:10082000FDFE00050A0F13171B1F2226292C2F324D
:100830003437393C3E40424446484A4C4E5051536E
:10084000555658595B5C5E5F606263646667686AB0
:100850006B6C6D6E7071727374757778797A7B7C5E
:100860007D7E8081828384858687898A8B8C8D8E2C
:1008700090919293949697989A9B9C9E9FA0A2A3E6
:10088000A5A6A8A9ABADAEB0B2B4B6B8BABCBEC04E
:10089000C2C5C7CACCCFD2D5D8DCDFE3E7EBEFF4D3
:1008A000F9FEE515FE15061665160E16FA16A516BE
:1008B000561704030703BC080219000047656E655C
:1008C00072617465206D73672E005768656E203AFB
:1008D000200056616C2E206368616E6765004F6E64
:1008E000206C6F616420202020004265666F726575
:1008F000204E2E4F6E004166746572204E2E4F665C
:1009000066005472616E736C6174652020005479C6
:100910007065203A200056616C2E203A20004A185B
:1009200068187B181418141815187E18171800006A
:100930000002F9090107000040186418781814181B
:10094000141815188318171800000002EA09010688
:10095000000036186018751814181418151888181F
:10096000171800000002DB09010500002C185C18B4
:1009700072181418141815188D1817180000000292
:10098000CC0901040000221858186F181418141804
:1009900015189218171800000002C309010300007F
:1009A000181854186C1814181418151897181718C4
:1009B00000000002BA09010200004D4944492049E3
:1009C0006E31004D49444920496E32004D49444939
:1009D00020496E31205265616C74004D49444920B4
:1009E000496E32205265616C74004D49444920497A
:1009F0006E31205379736578004D49444920496E22
:100A000032205379736578004B1A581A5B1A5C1AB6
:100A1000611A861A761A661A01010F01220A01016B
:100A200000004D494449204F75740052756E6E2E7A
:100A300020737461747573203A20256F00461BD0B3
:100A40001AD81A361BD91A6A1BC31B011B020207CC
:100A500004570A011600004D6F64696679206374BB
:100A6000726C2E00546F2020203A200046726F6D69
:100A7000203A2000FA1B071C0F1C171C271C371CD0
:100A8000821C391C04040902B00A010B0000ED1B92
:100A9000071C0F1C171C271C371C821C391C040444
:100AA0000902A80A010A0000506564616C20310047
:100AB000506564616C203200202D3E25690043435F
:100AC0002E202020203A202543004761696E2020F7
:100AD000203A20004449474954414C004F66667310
:100AE0006574203A20256900496E76657274203A53
:100AF00020256F0000000000000000000100010040
:100B000001000100010001000200020002000200D9
:100B100002000200020003000300030003000300C0
:100B200003000400040004000400040004000500A5
:100B3000050005000500050005000600060006008A
:100B40000600060006000700070007000700070070
:100B50000700080008000800080008000800090055
:100B6000090009000900090009000A000A000A003A
:100B70000A000A000A000B000B000B000B000B0020
:100B80000B000C000C000C000C000C000D000D0004
:100B90000D000D000D000D000E000E000E000E00E9
:100BA0000E000F000F000F000F000F000F001000CD
:100BB00010001000100010001100110011001100B1
:100BC0001100110012001200120012001200130096
:100BD0001300130013001300140014001400140079
:100BE000140015001500150015001500160016005C
:100BF0001600160016001700170017001700170040
:100C00001800180018001800180019001900190021
:100C1000190019001A001A001A001A001A001B0005
:100C20001B001B001B001B001C001C001C001C00E8
:100C30001D001D001D001D001D001E001E001E00C9
:100C40001E001E001F001F001F001F0020002000AC
:100C5000200020002000210021002100210022008E
:100C60002200220022002200230023002300230070
:100C70002400240024002400250025002500250050
:100C80002500260026002600260027002700270032
:100C90002700280028002800280029002900290012
:100CA00029002A002A002A002A002B002B002B00F2
:100CB0002B002C002C002C002C002D002D002D00D2
:100CC0002D002E002E002E002E002F002F002F00B2
:100CD0002F00300030003000300031003100310092
:100CE0003100320032003200320033003300330072
:100CF0003400340034003400350035003500350050
:100D0000360036003600370037003700370038002D
:100D10003800380039003900390039003A003A000B
:100D20003A003B003B003B003B003C003C003C00E9
:100D30003D003D003D003D003E003E003E003F00C6
:100D40003F003F00400040004000400041004100A3
:100D5000410042004200420043004300430044007F
:100D6000440044004400450045004500460046005C
:100D70004600470047004700480048004800490037
:100D8000490049004A004A004A004B004B004B0012
:100D90004C004C004C004D004D004D004E004E00EC
:100DA0004E004F004F004F005000500050005100C7
:100DB00051005100520052005300530053005400A0
:100DC0005400540055005500550056005600570079
:100DD00057005700580058005800590059005A0051
:100DE0005A005A005B005B005B005C005C005D0029
:100DF0005D005D005E005E005F005F005F00600000
:100E000060006100610061006200620063006300D5
:100E100063006400640065006500650066006600AC
:100E200067006700670068006800690069006A0081
:100E30006A006A006B006B006C006C006D006D0056
:100E40006E006E006E006F006F0070007000710029
:100E500071007200720072007300730074007400FD
:100E600075007500760076007700770078007800CE
:100E7000790079007A007A007A007B007B007C00A0
:100E80007C007D007D007E007E007F007F00800072
:100E90008000810081008200820083008400840041
:100EA000850085008600860087008700880088000E
:100EB000890089008A008A008B008B008C008D00DD
:100EC0008D008E008E008F008F00900091009100A9
:100ED0009200920093009300940095009500960074
:100EE0009600970097009800990099009A009A0040
:100EF0009B009C009C009D009D009E009F009F0009
:100F0000A000A100A100A200A200A300A400A400D0
:100F1000A500A600A600A700A800A800A900AA0096
:100F2000AA00AB00AC00AC00AD00AE00AE00AF005C
:100F3000B000B000B100B200B200B300B400B50020
:100F4000B500B600B700B700B800B900BA00BA00E3
:100F5000BB00BC00BD00BD00BE00BF00C000C000A3
:100F6000C100C200C300C300C400C500C600C70062
:100F7000C700C800C900CA00CA00CB00CC00CD0021
:100F8000CE00CF00CF00D000D100D200D300D400DB
:100F9000D400D500D600D700D800D900DA00DA0096
:100FA000DB00DC00DD00DE00DF00E000E100E2004D
:100FB000E300E300E400E500E600E700E800E90004
:100FC000EA00EB00EC00ED00EE00EF00F000F100B5
:100FD000F200F300F400F500F600F700F800F90065
:100FE000FA00FB00FC00FD00FE00FF000001010113
:100FF00002010301040106010701080109010A01B8
:101000000B010C010D010E01100111011201130160
:10101000140115011701180119011A011B011D0105
:101020001E011F01200121012301240125012601A8
:10103000280129012A012C012D012E013001310145
:101040003201340135013601380139013A013C01E0
:101050003D013F0140014101430144014601470177
:1010600049014A014C014D014F0150015201530108
:1010700055015601580159015B015C015E01600197
:10108000610163016501660168016A016B016D011F
:101090006F017001720174017601770179017B01A2
:1010A0007D017E01800182018401860188018A011F
:1010B0008B018D018F019101930195019701990198
:1010C0009B019D019F01A101A301A501A701AA0107
:1010D000AC01AE01B001B201B401B701B901BB016D
:1010E000BD01C001C201C401C601C901CB01CE01CD
:1010F000D001D201D501D701DA01DC01DF01E10124
:10110000E401E601E901EC01EE01F101F301F60170
:10111000F901FC01FE010102040207020A020D02AC
:1011200010021202150218021B021E0222022502E0
:1011300028022B022E023102340238023B023E0208
:101140004202450248024C024F02530256025A0222
:101150005E026102650269026C027002740278022A
:101160007C028002840288028C029002940298021F
:101170009C02A102A502A902AE02B202B702BB0202
:10118000C002C502C902CE02D302D802DD02E202C9
:10119000E702EC02F102F602FB02010306030B0375
:1011A000110316031C03220328032D033303390301
:1011B0003F0346034C03520358035F0365036C036C
:1011C00073037A03800387038E0396039D03A403AE
:1011D000AC03B303BB03C303CB03D303DB03E303BE
:1011E000EB03F403FC0305040E0417042004290494
:1011F00033043C04460450045A0464046E04790425
:1012000083048E049904A404B004BB04C704D3046B
:10121000DF04EC04F8040505120520052D053B0547
:10122000490558056605750584059405A405B405AA
:10123000C405D505E605F8050A061C062F06420674
:1012400056066A067E069306A806BE06D506EB0677
:1012500003071B0734074D07670782079D07B90778
:10126000D607F40712083108510873089508B80822
:10127000DC08010928094F097809A309CE09FC09EE
:101280002A0A5B0A8D0AC10AF70A2F0B690BA50B04
:10129000E40B250C690CB00CFA0C470D980DED0D04
:1012A000450EA20E040F6A0FD60F4810C0103F1152
:1012B000C6115412EC128D133914F114B6158A1696
:1012C0006E1764186E19901ACC1B271DA41E492096
:1012D0001D22282474260E29082C772F79333538BF
:1012E000E43DD644844DAD588E67647CA49BB9CF51
:1012F000FFFFFFFF201EFB1DFE1D041E121E2E1FE2
:10130000BD1E671E04070F040E13021A0000506F63
:101310006C7970686F6E2E2073706C69740043680E
:101320002E72616E67652066726F6D3A20256900C6
:1013300043682E72616E676520746F20203A202505
:101340006900536D6F6F746865204B657941543A3D
:10135000200042726F6164636173742043432E3ACC
:1013600020257900426373742E2050726F674368A2
:10137000673A20257900426373742E20502E5768F7
:1013800065656C3A20257900426373742E204368AA
:10139000616E2E41543A20257900E22082208A2075
:1013A000E8209220F4203E21202101010703DD13D3
:1013B000011B0000E52082208A20E8209220F420F2
:1013C0003E21202101010703CE13011C00004475BA
:1013D000706C6963617465206D73672E00526F7560
:1013E0007465206D73672E0054797065203A200073
:1013F000416C6C004368616E20256900416C6C2073
:1014000043430081219821A021A121AB21B521E0F6
:1014100021C821010108041D140115000053657441
:10142000206368616E6E656C004368616E2E203AC1
:1014300020256900F6210D221522162220224222A3
:1014400060222A2201010C044E140117000054727C
:10145000616E73706F73650053656D69746F6E654F
:1014600073203A20256900A00986096C09520938C1
:10147000091E098E0A740A9A13B41303143D0A3420
:10148000143904A208F412080A00005052455345CA
:101490005420434F52525550542100505245534509
:1014A00054204C4F4144204552523A256900505235
:1014B00045534554532052455345540042616E6B89
:1014C0002E53656C00004D6F64756C61742E0000C6
:1014D00042726561746800000000556E6465662E96
:1014E00033000000466F6F7443746C000000506F4F
:1014F00072742E54696D650044617461456E747236
:101500007900566F6C756D650000000042616C617A
:101510006E6365000000556E6465662E390000003C
:1015200050616E0000000000000045787072657325
:10153000732E00004566662E43746C2E310045669E
:10154000662E43746C2E3200556E6465662E3134FF
:101550000000556E6465662E3135000047502E43FD
:10156000746C2E31000047502E43746C2E320000F4
:1015700047502E43746C2E33000047502E43746C3A
:101580002E340000556E6465662E32300000556EB4
:101590006465662E32310000556E6465662E323207
:1015A0000000556E6465662E32330000556E64652A
:1015B000662E32340000556E6465662E32350000AA
:1015C000556E6465662E32360000556E6465662E73
:1015D00032370000556E6465662E32380000556E55
:1015E0006465662E32390000556E6465662E3330B0
:1015F0000000556E6465662E333100004C53420086
:101600005375737461696E500000506F7274616D30
:101610002E500000536F7374656E2E500000536F90
:1016200066745000000000004C656761746F5000E4
:101630000000486F6C64320000000000566172695F
:101640006174696F6E00496E74656E7369747900B8
:1016500052656C2E54696D6500004174742E546996
:101660006D6500004272696768746E732E00446590
:1016700063617954696D65005669625261746500F1
:1016800000005669624465707468000056696244DF
:10169000656C61790000556E6465662E373900000F
:1016A00047502E43746C2E35000047502E43746C07
:1016B0002E36000047502E43746C2E3700004750E2
:1016C0002E43746C2E380000506F72746143746C3A
:1016D0000000556E6465662E38350000556E6465F1
:1016E000662E38360000556E6465662E3837000069
:1016F0004872657356656C000000556E6465662E11
:1017000038390000556E6465662E39300000526528
:1017100076657262000000005472656D6F6C6F0038
:10172000000043686F7275730000000044657475B3
:101730004465707468005068617344657074680033
:1017400044617461496E632E0000446174614465B4
:10175000632E00004E72706E4C53420000004E72B9
:10176000706E4D534200000052706E4C53420000A8
:10177000000052706E4D534200000000556E6465CB
:10178000662E31303200556E6465662E313033007E
:10179000556E6465662E31303400556E6465662E74
:1017A00031303500556E6465662E31303600556E29
:1017B0006465662E31303700556E6465662E3130B3
:1017C0003800556E6465662E31303900556E64659B
:1017D000662E31313000556E6465662E3131310030
:1017E000556E6465662E31313200556E6465662E25
:1017F00031313300556E6465662E31313400556EDB
:101800006465662E31313500556E6465662E313162
:101810003600556E6465662E31313700556E64654D
:10182000662E31313800556E6465662E31313900CF
:10183000536F756E644F666600005265736574433E
:1018400074726C004C6F63616C4374726C004E6F09
:101850007465734F666600004F6D6E694F66660073
:1018600000004F6D6E694F6E000000004D6F6E6F8F
:101870004F6E00000000506F6C794F6E000000004A
:101880004300004323004400004423004500004679
:101890000000462300470000472300410000412389
:1018A00000420000537973657853746172740000CC
:1018B000005379732E54696D65436F6465005379E5
:1018C000732E536F6E67506F7300005379732E53EE
:1018D0006F6E6753656C00005379732E556E6465A7
:1018E000662E3400005379732E556E6465662E356E
:1018F00000005379732E54756E6552657100005364
:1019000079736578456E6400000000005265616C73
:10191000742E436C6F636B00005265616C742E55BE
:101920006E6465662E005265616C742E537461722C
:101930007400005265616C742E436F6E742E00004B
:101940005265616C742E53746F70000000526561B3
:101950006C742E556E6465662E005265616C742E33
:101960004153656E7365005265616C742E526573E8
:10197000657400004E2E4F6666200000004E2E4F0C
:101980006E20200000004B657941542000000000CB
:10199000000000000000000050726F67436867207D
:1019A000004368616E4154200000506974636857B9
:1019B00020000053797374656D2000000102040556
:1019C00007080A0B0C0D404142434445464748492D
:1019D0004A4B4C4D4E545B5C5D5E5F43433A256918
:1019E000004241443A4E6F20737461747573004233
:1019F00041443A546F6F2073686F7274005261777C
:101A000020646174613F004368616E005573650036
:101A10005468726F7567680044697363617264002B
:101A2000284F4646290020284F4E2900282D2900FE
:101A3000282B29004E6F00596573004F6666004FD2
:101A40006E00004D4D46020AC80011241FBECFEFA4
:101A5000D0E1DEBFCDBF11E0A0E0B1E0E6E1FDE600
:101A600002C005900D92AE31B107D9F715E0AEE195
:101A7000B1E001C01D92AB31B107E1F70E94B5356D
:101A80000C9489360C940000809100010895282F51
:101A9000CB01293040F435E1239FB00111246B576D
:101AA0007F4F0C940234622F695001960C943723B7
:101AB0000E945323882321F00E945323875F0895B7
:101AC00087E00895CF93DF931F92CDB7DEB78230C2
:101AD00029F40F90DF91CF910C94A13269E10E941B
:101AE000043389830E94580D482F4150298161E0B9
:101AF000809100010E942D348093000160E00F90DE
:101B0000DF91CF910C944F3280910101089582E1D1
:101B10000895CF93813019F50E94532C80910101D3
:101B200081500E94872C882389F00E94742CC82F32
:101B30000E94742C6C2F625081500E948B2D0E9449
:101B40004E2C43E060E087E591E006C00E944E2CF9
:101B500044E060E08BE491E0CF910C94BE108230C1
:101B600019F4CF910C94A132843079F018F48330B9
:101B7000B9F405C08B3079F08C3091F40EC08091AF
:101B80000101813168F48F5F09C0809101018230C9
:101B900038F0815003C081E101C081E080930101F0
:101BA00060E080910101CF910C944F32CF93DF938D
:101BB000EB01811103C064E671E004C081500E9412
:101BC0001E24BC01CE01DF91CF910C940234809190
:101BD00039030895CF93DF93D82FC0E016C08C2F20
:101BE0000E94772C9093380380933703C0933A0375
:101BF000D0933603DD2369F0D150809137030E94E2
:101C0000FA23D81730F0D81BCF5F0E94742CC81766
:101C100030F3DF91CF910895CF93DF931092350386
:101C20000E94742C80933903C0E009C08C2F0E945D
:101C3000772C0E94FA238D0F80933903CF5F0E9487
:101C4000742CD0913903C81788F380911E018D1729
:101C500018F0D150D0931E0180911E01DF91CF91D9
:101C6000089580913503823079F0833021F08130FE
:101C700021F060E00AC063E108C0809137030E9450
:101C80000624682F6E5F01C061E180911E010C94F3
:101C90004F321F93CF93DF93C82F80911E010E9474
:101CA000EA0DC23049F48091350381112CC0DF91D7
:101CB000CF911F910C94A132C13041F58091360330
:101CC00081111AC0809137030E941224909135032C
:101CD000923059F09330B9F0911186C0823009F4F6
:101CE00009C082E0809335037FC0813061F0843089
:101CF00009F409C083E0F6CF80913503811103C058
:101D0000C093350371C0109235036EC080913503C6
:101D100081112CC0C430D9F020F4C33009F060C068
:101D200006C0CB30D1F0CC3009F05AC01CC0409175
:101D30001E01242F30E08091390390E0019728178D
:101D400039070CF04DC04F5F40931E0149C0809190
:101D50001E01882309F444C002C0809139038150D8
:101D600080931E013DC010921E013AC0982F9250E0
:101D7000923058F580913A030E94DA2DD82F192F0E
:101D8000809135036AE0823059F48C2F0E9404332D
:101D9000282F49E06FEF8D2F0E941634D82F0AC0EC
:101DA0008C2F0E940433282F49E06FEF812F0E946F
:101DB0001634182F0E94532C6D2F712F80913A03E7
:101DC0000E94E32D0E944E2C0BC0813049F44C2F11
:101DD0006091360380913703909138030E94DB2392
:101DE00080911E010E944032DF91CF911F910C948F
:101DF000310EEF92FF921F93CF93DF931F92CDB7D7
:101E0000DEB77B0190913903891708F048C00E9422
:101E1000EA0D609136038091370390913803A70152
:101E2000611133C00E94C82380913A030E94DA2DC9
:101E3000182F8091370399830E9412249981823050
:101E400079F01F3F51F0112321F01A3020F4105D7A
:101E500005C018E503C01FE301C011E4F701108BB2
:101E60002EE3F701218B8130D1F09F3F51F0992370
:101E700021F09A3020F4905D05C098E503C09FE3FF
:101E800001C091E4F701928B0AC04F5F5F4F0F9042
:101E9000DF91CF911F91FF90EF900C94C8230F908A
:101EA000DF91CF911F91FF90EF900895EF92FF92F5
:101EB0000F931F93CF93DF93F82EE92E062F0E94E6
:101EC0004A328957914029F510C08D2F0E94772CF6
:101ED0008F1105C09E1103C0C00F11E004C00E9405
:101EE000FA23CF5FC80FDF5F03C010E0C0E0D0E08F
:101EF0000E94742CD81758F4112339F38C2FDF91DA
:101F0000CF911F910F91FF90EF900C9440321111DF
:101F1000F5CFDF91CF911F910F91FF90EF90089532
:101F20008091020108958AE00895AB0195E1899FAF
:101F3000B00111246C537E4FCA010C9402348230DC
:101F400029F481E08093020160E071C0813009F0E2
:101F50004FC080910201853021F168F48230B9F0E0
:101F600020F4813009F065C00FC08330A1F08430C7
:101F700009F05FC013C08730D1F0B0F08830D1F0E5
:101F8000893009F056C031C089E791E002C08BE486
:101F900093E00C94C03282E493E0FBCF82E491E0C2
:101FA000F8CF8CEF93E0F5CF83EF93E0F2CF86E9A3
:101FB00092E0EFCF0E9478278BE891E00E94BF2744
:101FC00060E081E00E947B2780EA91E00E94BF27C9
:101FD00060E082E00E947B2780EB91E00E94BF27B7
:101FE00080E00E94E8240C94D9268CE790E0D1CFC1
:101FF000843079F018F48330B9F405C08B3079F06F
:102000008C3091F40EC080910201893068F48F5FAA
:1020100009C080910201823038F0815003C089E00C
:1020200001C081E08093020160E0809102010C9484
:102030004F32089510921F0180910301089587E0A7
:102040000895282FCB0130911F01311108C033E1D1
:10205000239FB001112461567D4F0C9402340895E2
:10206000CF93DF93C82F80911F01882379F0C2306E
:1020700041F40E94E22910921F01DF91CF910C944C
:102080003C328C2FDF91CF910C94E529C23021F4A2
:10209000DF91CF910C94A132C13049F5D091030169
:1020A000D330B9F030F4D13051F0D23009F042C021
:1020B0000DC0D53099F078F0D630E1F511C061E06F
:1020C00081E00E94CA29D0931F0134C060E081E002
:1020D00009C061E001C060E082E004C061E001C0CD
:1020E00060E083E00E94CA29C0931F0123C0C4306E
:1020F00079F018F4C330B9F405C0CB3079F0CC30A6
:1021000091F40EC080910301863068F48F5F09C09E
:1021100080910301823038F0815003C086E001C015
:1021200081E08093030160E080910301DF91CF9112
:102130000C944F32DF91CF91089582E0089583E0AF
:1021400008958150823010F40C94A1320895282F04
:10215000CB01211104C06DE273E00C9402342230F3
:1021600061F460912001709121012091230140913F
:102170002201820F911D0C947434089590932101D3
:1021800080932001609322014093230184E293E035
:102190000C94C03281E080932401909104019B3023
:1021A00010F080930401809104010895109224019D
:1021B00080910401089580912401882311F08BE01F
:1021C00008958CE00895CF93DF931F92CDB7DEB7CB
:1021D000823029F40F90DF91CF910C94A13290912D
:1021E0002401813009F045C080910401992351F008
:1021F00081500E947E2F0E94A13243E060E084E57E
:1022000093E00EC08B3089F40E94532C0E94802DE5
:102210000E944E2C0E94A13242E060E081E693E0F1
:102220000F90DF91CF910C94BE1061E081500E941D
:10223000972E813009F447C0853009F444C00E94CC
:10224000532C8091040160E081500E94972E898375
:102250000E944E2C0E94A1328981811105C043E069
:1022600060E081E793E0DCCF41E0682F8FE793E007
:10227000D7CF992311F09AE001C09BE0843079F028
:1022800018F48330C1F405C08B3079F08C3099F4A8
:102290000FC080910401891770F48F5F0AC080918C
:1022A0000401823040F0815004C09093040103C0C7
:1022B00081E08093040160E0809104010F90DF9140
:1022C000CF910C944F320F90DF91CF9108951F93CF
:1022D000CF93DF93182FCB0111110AC02091240155
:1022E000222319F062E973E030C067EA73E02DC081
:1022F0001B3048F5113029F465EC73E00E9402347C
:1023000005C0412F6EEC73E00E947434EC0161E073
:10231000812F81500E94972E813021F0D8F0853096
:1023200049F404C068ED73E0CE010FC045E061EEF2
:1023300073E003C0482F6AEE73E0CE01DF91CF91C6
:102340001F910C9474346CEB73E0DF91CF911F916B
:102350000C940234DF91CF911F91089510922601C1
:1023600081E0809325018091050108951092260156
:10237000109225018091050108950E94742C8F5FB1
:102380000895CF93843099F018F48330E1F405C0B8
:102390008B3099F08C30B9F413C0C09105010E94C4
:1023A000742CC81780F4809105018F5F0AC080915A
:1023B0000501823040F0815004C00E94742C01C09D
:1023C00081E080930501CF910895CF93DF93C82FCB
:1023D000813079F5809125018823B9F0C0910501FC
:1023E000D0E00E94742C90E0C817D9070CF05BC0B5
:1023F0000E94532C8091050181500E941A2D0E9449
:102400004E2CDF91CF910C943C32809126018111AA
:1024100009C0D09105010E94742CD81719F0C093FF
:10242000260131C010922601809105010E944032A0
:1024300033C0823021F4DF91CF910C94A13280918E
:102440002601882331F1D09105018C2F0E94C11102
:10245000C09105010E94742CC81303C0D0930501DC
:1024600022C0809105018D17F1F00E94532C6091DC
:10247000050161508D2F81500E948B2D0E944E2CA2
:102480008D2F0E944032809105010E94403262E00F
:1024900004C08C2F0E94C11160E080910501DF9182
:1024A000CF910C944F32DF91CF9108951F93CF932A
:1024B000DF93182FEB0181110AC080912501882339
:1024C00019F065E074E021C06AE174E01EC00E946A
:1024D000742C412F50E0282F30E024173507DCF012
:1024E000812F81500E94772C90912601992351F0E1
:1024F00090910501191306C00E941E24BC01CE0153
:10250000019604C00E941E24BC01CE01DF91CF9130
:102510001F910C940234DF91CF911F9108955F9227
:102520006F927F928F929F92AF92BF92CF92DF92E3
:10253000EF92FF920F931F93CF93DF93CDB7DEB748
:1025400064970FB6F894DEBF0FBECDBF27982F9AC1
:10255000259A2D9894E080E0E7E8F3E13197F1F7D0
:1025600000C000001F9B8F5F9150B1F794B19F7521
:1025700094B995B19F7595B9843009F0B4C085E0E0
:102580000E94FD3485E50E9422358AEA0E942235A8
:1025900082E90E94223589E40E94223584E20E9469
:1025A00022350E945F240E94372781E00E94E824A0
:1025B0008FEF0E949A3580E20E949A3581E60E9450
:1025C0009A358AE50E949A3580E20E949A35C12C9C
:1025D000D12CE12CF12CA12C90E2B92E21E4822EF9
:1025E00037EC932E40E4742E55E5652E6AEA562E9C
:1025F00060E080E00E947B278FE294E00E94BF278A
:102600000E945125682FCE0101960E94EA33FC01F9
:10261000B1928F010E94EE24682FC8010E94EA3314
:10262000FC01B192CF01AA2039F0E0907800F0903F
:10263000790070927C0006C0C0907800D09079003C
:1026400080927C0090927A00B7010E944D33FC0189
:10265000B192CF01B6010E944D33FC01B0821182CC
:1026600060E081E00E947B27CE0101960E94AD27A9
:1026700060E002C06091C6008091C00087FDFACF83
:10268000CE0101960E94EA33FC01B192CF0160E0D5
:1026900002C06091CE002091C80027FDFACF0E94B1
:1026A000EA33FC01108260E082E00E947B27CE01C9
:1026B00001960E94AD270E94512583FF03C05092CE
:1026C000C60005C00E94512584FD6092C600FFE748
:1026D0002AE186E0F15020408040E1F700C0000090
:1026E00081E0A82685CF64960FB6F894DEBF0FBEB2
:1026F000CDBFDF91CF911F910F91FF90EF90DF90B1
:10270000CF90BF90AF909F908F907F906F905F9091
:102710000895A82FB0E095E0899FF0011124E85DAD
:10272000FE4FE081A85ABE4FE63018F080EB8C9344
:102730000895F0E0ED5AFB4FE491EC930895E8E43E
:10274000F1E080E090E02081222339F00196339679
:1027500086309105C1F78FEF0895FC01EE0FFF1F42
:10276000E80FF91FEA5BFE4F108291E09283089513
:1027700090E0FC01EE0FFF1FE80FF91FEA5BFE4F30
:1027800012820895089595E0899FD0011124A85DD3
:10279000BE4F95E0FB0101900D929A95E1F70C94E4
:1027A000891395E0899FF0011124E85DFE4F85E0D3
:1027B000DB0101900D928A95E1F708951F93CF9365
:1027C000DF93182FC62F842F6AE00E940433282F2E
:1027D000C230D9F020F4C13009F045C006C0C33082
:1027E00011F1C43009F03FC032C085E0189FE0010C
:1027F0001124C85DDE4F44EA60E088810E942D34D8
:102800008883812F0E9489132EC085E0189FE001E4
:102810001124C85DDE4F4FE760E88C810E941634BA
:102820008C8363E00FC085E0189FF0011124E85D00
:10283000FE4F42815381420F511D27FD5A9553830C
:10284000428362E08DE0912F0E94560F0CC085E01C
:10285000189FE0011124C85DDE4F46E060E08981E9
:102860000E942D34898360E08DE0912F0E94560FE5
:10287000DF91CF911F910895FF920F931F93CF93F4
:10288000DF93C82FCA01623009F455C030F46623C3
:1028900059F0613009F082C02CC0633009F45CC08B
:1028A000643009F07BC069C0D0E0FE01EE0FFF1F6D
:1028B000EC0FFD1FEA5BFE4FF0804F2D69E574E0E1
:1028C0000E9474348C0185E08C9FB0018D9F700D47
:1028D0001124675D7E4F8F2D0E94BD15482F64E641
:1028E00074E0C801DF91CF911F910F91FF900C947C
:1028F000743467E674E00E94023425E0C29FE00170
:102900001124C85DDE4F6881663068F42CE0629F58
:10291000B001112461597B4FDF91CF911F910F912D
:10292000FF900C9402346650DF91CF911F910F916C
:10293000FF900C94712867EB74E00E94023425E04C
:10294000C29FB0011124675D7E4FDF91CF911F912F
:102950000F91FF900C9495156FEB74E00E94023478
:1029600025E0C29FB0011124675D7E4FDF91CF91BA
:102970001F910F91FF900C94A31567EC74E00E94D7
:10298000023425E0C29FB0011124675D7E4FDF91C4
:10299000CF911F910F91FF900C949915DF91CF91DA
:1029A0001F910F91FF900895FF920F931F93CF9364
:1029B000DF93EB01082F10E08C81807FF801E85A4B
:1029C000FE4F9081891341C085E0809FF001819F77
:1029D000F00D1124E85DFE4F8081863038F0FD80D7
:1029E00086500E948028F81230C012C0823059F000
:1029F000853081F0813009F00BC08D810E94632801
:102A0000811106C022C08D810E94632881111DC0E2
:102A100082E001C081E0C80FD11D8C81F801EE0F6A
:102A2000FF1FE00FF11FEA5BFE4F808391E091836F
:102A300095E0909FB001919F700D1124675D7E4FCE
:102A40000E94BD158C8382E001C081E0DF91CF91AF
:102A50001F910F91FF900895DF92EF92FF920F93D5
:102A60001F93CF93DF931092270168E2E62E61E077
:102A7000F62E08E411E0C0E0D0E075E0D72EF701B3
:102A80001082DC9EC001DD9E900D1124875D9E4F5B
:102A90000E948D15F80110828C2F0E9489132196B7
:102AA000F5E0EF0EF11C0D5F1F4FC630D10539F771
:102AB000DF91CF911F910F91FF90EF90DF900895DC
:102AC0001F93CF93DF93C7E4D1E010E08881882380
:102AD00031F0188260E08DE0912F0E94560F1F5F49
:102AE0002396163099F7DF91CF911F9108952EEF1D
:102AF000AC01249FC001259F900D112497FF02C0B7
:102B000081589F4F9C01220F232F221F330B260F2A
:102B1000311D67FD3A95C9010895FC01108280E4DA
:102B200090E09283818313820895FB0163810C946A
:102B30009833FB016081FAE06F9FB0011124645269
:102B40007B4F0C940234FB0141815281EEEFE49FF4
:102B50009001E59F300D112437FF02C021583F4FEF
:102B6000220F232F221F330BFB014381240F311D22
:102B700047FD3A95B9010C944D33DB01EC9190E897
:102B8000E99FF0011124E80FF11DEE5DFA4FE49189
:102B900011962D913C911297E29FC001E39F900DF9
:102BA0001124880F892F881F990B13962C91820F5F
:102BB000911D27FD9A95803891051CF497FD03C05F
:102BC00008958FE7089580E00895E7E8F1E020E0B8
:102BD00030E09081992341F02F5F3F4F32962A30A9
:102BE0003105B9F78FEF0895F901EE0FFF1FEA578E
:102BF000FE4F808381E08183822F0895E82FF0E0EB
:102C0000EE0FFF1FEA57FE4F11820895E82FF0E004
:102C1000EE0FFF1FEA57FE4F6083089594E0899FEF
:102C2000F0011124E25AFE4F80819181A281B3818B
:102C3000FB0180839183A283B38308950F931F9335
:102C4000CF93DF9300D0CDB7DEB78B01642F94E034
:102C5000899FF0011124E25AFE4F818181110AC03F
:102C60004281C8010F900F90DF91CF911F910F917A
:102C70000C94082B813051F44281C8010F900F90C1
:102C8000DF91CF911F910F910C94112B823059F449
:102C900042815381C8010F900F90DF91CF911F9116
:102CA0000F910C941A2B2281835029834A830E940E
:102CB00080282981482F6A81C8010F900F90DF91E9
:102CC000CF911F910F910C942C2B0F931F93CF93A7
:102CD000DF93CDB7DEB728970FB6F894DEBF0FBEEF
:102CE000CDBFDB01082F10E0F801EE0FFF1FEE0F44
:102CF000FF1FE25AFE4F9C9111964C91119712962C
:102D00003C91129713962C919083418332832383B5
:102D1000913081F440E0BE016F5F7F4F0E941E162C
:102D2000F801EE0FFF1FEA57FE4F6081CE010196BA
:102D30000E940A2C28960FB6F894DEBF0FBECDBFB6
:102D4000DF91CF911F910F910895CF93C82FCA01A2
:102D5000611103C06CEB78E013C06130A1F46AEC40
:102D600078E00E94023424E0C29FF0011124E25A6C
:102D7000FE4F60812CE0629FB00111246E52774FAC
:102D8000CF910C9402346230E9F46EE079E00E9455
:102D9000023424E0C29FF0011124E25AFE4F618107
:102DA000613031F018F0623049F406C060EC01C0C7
:102DB00060EDCF910C94442860EEFBCF6350CF912F
:102DC0000C9471286330A1F466E179E00E9402342A
:102DD00024E0C29FF0011124E25AFE4F218162815A
:102DE0007381211102C06F5F7F4FCF910C944D33DF
:102DF000CF910895DF92EF92FF920F931F93CF939D
:102E0000DF93CDB7DEB729970FB6F894DEBF0FBEBC
:102E1000CDBFD82E8B01FB018481482F4F70ED2C44
:102E2000F12CF701EE0FFF1FEE0FFF1FE25AFE4FCE
:102E300090819330B9F0943081F0923041F5807FE9
:102E4000803929F5F701EE0FFF1FEA57FE4F608129
:102E5000C80149870E94D22B4985B8018D2D0E9457
:102E60001E1613C0807F803891F4BE016F5F7F4FC4
:102E70008D2D0E941E16F701EE0FFF1FEA57FE4F21
:102E80006081CE0101960E94D22B82E001C081E0D8
:102E900029960FB6F894DEBF0FBECDBFDF91CF915C
:102EA0001F910F91FF90EF90DF9008959F92AF9246
:102EB000BF92CF92DF92EF92FF920F931F93CF9327
:102EC000DF93CDB7DEB729970FB6F894DEBF0FBEFC
:102ED000CDBF982E162F6AE0842F49870E940433B5
:102EE000282F4985113079F434E0939E8001112414
:102EF000025A1E4F44E060E0F80180810E942D34A8
:102F0000F801808369C01230B1F4F4E09F9E800123
:102F10001124025A1E4F42EA60E0F80181810E94AA
:102F20002D34F80181831382128263E08EE0992DA3
:102F30000E94560F51C0133009F04EC0E92CF12CFD
:102F40006701CC0CDD1CCC0CDD1C8601025A1E4F27
:102F5000F80181818230B1F4A280B38064E6842FCD
:102F60000E9404334FEF5FE160E070EE9501280F9F
:102F7000311D87FD3A95C9010E943E34F8019383C3
:102F8000828313C06AE0842F0E9404335801F2E068
:102F9000AF0EB11C282F4FE760E0F80182810E943C
:102FA0002D34F8018283F5011182F601E25AFE4FB9
:102FB0008081811111C040E0BE016F5F7F4F892D7C
:102FC0000E941E16F701EE0FFF1FEA57FE4F6081A9
:102FD000CE0101960E940A2C29960FB6F894DEBF06
:102FE0000FBECDBFDF91CF911F910F91FF90EF905A
:102FF000DF90CF90BF90AF909F900895CF93DF93D5
:10300000EFE5F1E0A7E8B1E0EF0121971882108227
:10301000128211821C923496129681E0E738F807EA
:1030200099F7DF91CF910895089580E0089508956C
:103030009091A5019F3F21F48093A50180E0089520
:103040008FEF08959091B3019F3F21F48093B301D6
:1030500080E008958FEF08959091A6019F3F21F49D
:103060008093A60180E008958FEF08959091B401B8
:103070009F3F21F48093B40180E008958FEF08957D
:103080009091A7019F3F21F48093A70180E00895CC
:103090008FEF08959091B5019F3F21F48093B50182
:1030A00080E008958FEF08958FEF8093A501089534
:1030B0008FEF8093B30108958FEF8093A601089559
:1030C0008FEF8093B40108958FEF8093A701089547
:1030D0008FEF8093B50108956093A50108956093E3
:1030E000B30108956093A60108956093B401089513
:1030F0006093A70108956093B5010895CA0169EF2F
:1031000079E00C940234CA016AEE79E00C9402343E
:10311000CA016BED79E00C940234CA016CEC79E0E1
:103120000C940234CA0163EC79E00C940234CA01B5
:103130006AEB79E00C94023480919F01982F907F84
:10314000903941F49091A101911104C08F70806871
:1031500080939F01089510929A011092A4018FEF1D
:103160008093A5018093A6018093A7011092A801E6
:103170001092B2018093B3018093B4018093B501A2
:103180000895AF92BF92CF92DF92EF92FF920F938A
:103190001F93CF93DF93CDB7DEB728970FB6F89480
:1031A000DEBF0FBECDBF182F0E94E827082F843046
:1031B00091F481E08B838C831D83CE0101960E9464
:1031C000CC286091A6016F3F09F48CC0CE01019616
:1031D0000E94D22B87C0FF24F39484E0D82ECC2405
:1031E000CA9492E0B92EA02EAA9480919A018111DE
:1031F00049C010929E0110929D01F0929A01002305
:10320000A9F0F0929E0110939F01812F0E94D32775
:103210008F5F8093A30181E08A1518F0F092A401DA
:1032200002C01092A401EE24E3940EC08091A40188
:10323000882329F0F0929E01B0929D0104C0D092A3
:103240009D01C092A301E12C9091A30180919E0168
:10325000981345C080919D01816080939D018BE909
:1032600091E00E94C1288091A5018F3F41F00E940A
:103270009C186091A5018BE991E00E94D22B1092DD
:103280009A012DC0011123C0612F8BE991E00E94AA
:10329000462B9091A30180919E01981323C08091A9
:1032A0009D01816080939D018BE991E00E94C1287E
:1032B0008091A5018F3F41F00E949C186091A5016B
:1032C0008BE991E00E94D22B10929A010BC0809161
:1032D0009D01886080939D0110929A0186CFEE2017
:1032E00009F483CF28960FB6F894DEBF0FBECDBF8A
:1032F000DF91CF911F910F91FF90EF90DF90CF90D2
:10330000BF90AF900895AF92BF92CF92DF92EF92AD
:10331000FF920F931F93CF93DF93CDB7DEB728971C
:103320000FB6F894DEBF0FBECDBF182F0E94E8275E
:10333000082F843091F481E08B838C831D83CE0130
:1033400001960E94E6286091B4016F3F09F48CC099
:10335000CE0101960E94D22B87C0FF24F39424E073
:10336000D22ECC24CA9432E0B32EA82EAA948091F7
:10337000A801811149C01092AC011092AB01F092EA
:10338000A8010023A9F0F092AC011093AD01812FA8
:103390000E94D3278F5F8093B10181E08A1518F0D6
:1033A000F092B20102C01092B201EE24E3940EC07A
:1033B0008091B201882329F0F092AC01B092AB0168
:1033C00004C0D092AB01C092B101E12C9091B10147
:1033D0008091AC01981345C08091AB0181608093CE
:1033E000AB0189EA91E00E94DB288091B3018F3F15
:1033F00041F00E949C186091B30189EA91E00E941B
:10340000D22B1092A8012DC0011123C0612F89EA8F
:1034100091E00E94462B9091B1018091AC019813EC
:1034200023C08091AB0181608093AB0189EA91E078
:103430000E94DB288091B3018F3F41F00E949C18CD
:103440006091B30189EA91E00E94D22B1092A80109
:103450000BC08091AB0188608093AB011092A801F2
:1034600086CFEE2009F483CF28960FB6F894DEBFFE
:103470000FBECDBFDF91CF911F910F91FF90EF90C5
:10348000DF90CF90BF90AF9008959091A801809168
:103490009A01892B08958091B601811107C081E0BE
:1034A0008093B6018093B80180E008958FEF08956E
:1034B0001092B60108950895FB0180818093B801B0
:1034C00008958091B801FB0180830895613069F40B
:1034D00050E0477F4330510531F04430510529F425
:1034E0001092B80108956093B8010895CA0161115E
:1034F00004C062E27AE00C940234613031F440910D
:10350000B8016BE27AE00C94743408951F93CF9362
:10351000DF93EB018C810E94E827843089F408C096
:10352000FE01E10FF11D84810E94FD251F5F01C096
:1035300010E08B811817A0F3CE010E94002925C04E
:103540008091B801882349F09C818091B70198133C
:1035500004C08A8182608A8309C08A818D7F8A83C0
:103560008C810E94FD258C818093B70111E007C0FA
:10357000FE01E10FF11D84810E94FD251F5F8B81FB
:103580001817B0F3CE010E94F52880E0DF91CF91AB
:103590001F9108951092B6018FEF8093B70108959F
:1035A00095E0899FF0011124E35BFC4F10820895A0
:1035B000089595E0899FF0011124E35BFC4F818120
:1035C000DB018C93828111968C930895CF93DF93C6
:1035D000EC018981813031F018F0823049F404C067
:1035E00080EA03C080EC01C080ED8B838FEF05C0C3
:1035F00090EB9B8383500E9480288C83DF91CF9136
:1036000008951F93CF93DF93182F842F613089F48F
:103610006AE00E94043325E0129FE0011124C35B9D
:10362000DC4F282F41EA60E089810E942D34898394
:1036300012C0623081F46AE00E94043395E0199F61
:10364000E0011124C35BDC4F282F41EA61E08A814D
:103650000E942D348A8325E0129FC0011124835BD0
:103660009C4FDF91CF911F910C94E61AFB012081B2
:10367000F5E08F9FC0011124835B9C4FFC012183E7
:10368000FB012181FC0122830C94E61ACF93DF9386
:10369000EDE4F3E0C0E0D0E08081882339F02196AA
:1036A0003596C530D105C1F78FEF11C085E08C9FED
:1036B000F0018D9FF00D1124E35BFC4F83E08183CB
:1036C000828381E08083CF010E94E61A8C2FDF91F4
:1036D000CF9108951F93CF93DF93EB019C81492FE6
:1036E000407F282F30E055E0859FF0011124E35BF7
:1036F000FC4F8381481332C084818F3F19F04D8184
:1037000048132CC085E0829FF001839FF00D1124A7
:10371000E35BFC4F892F8F7091819150923010F0B4
:103720001E8101C01D819281913019F0923051F4B7
:1037300004C092E09B83806C02C09B83806D8C836D
:103740001D830AC093E09B83806B8C8382818350AE
:103750000E9480288D831E8382E001C081E0DF917A
:10376000CF911F910895613031F018F0623041F42B
:1037700005C060EA01C060EC0C94442860EDFCCF09
:1037800063500C947128CF93C82FCA01611105C0F2
:1037900067E57AE0CF910C940234613061F46CE615
:1037A0007AE00E94023425E0C29FF0011124E35B1D
:1037B000FC4F61810DC0623071F464E67AE00E94D2
:1037C000023425E0C29FF0011124E35BFC4F6281CB
:1037D000CF910C94B31BCF91089590914403911114
:1037E00007C091E0909344038093450380E00895DF
:1037F0008FEF089590914803911107C091E0909345
:1038000048038093490381E008958FEF089594E081
:10381000899FF0011124EC5BFC4F1082089594E025
:10382000899FF0011124EC5BFC4F6183089594E0C3
:10383000899FF0011124E45CFC4FDB014D915D9107
:103840006D917C914083518362837383089594E0EA
:10385000899FF0011124E45CFC4F80819181A28159
:10386000B381FB0180839183A283B383089580E0B9
:103870000895CF93DF93C82FD62F842F6AE00E943C
:103880000433282FD230B1F018F4D130C1F505C07F
:10389000D330E9F0D43099F527C084E0C89FE00127
:1038A0001124C45CDC4F4EE960E08A810E942D3413
:1038B0008A8325C084E0C89FE0011124C45CDC4FEA
:1038C0004FEF60E088810E942D34888318C084E027
:1038D000C89FE0011124C45CDC4F4FE760E8898198
:1038E0000E94163489830BC084E0C89FE001112434
:1038F000C45CDC4F81E012160CF080E08B83DF911A
:10390000CF910895CF93C82FCA01623051F130F49E
:10391000662351F0613009F04FC019C06330B1F136
:10392000643009F049C03CC0C11103C068EA7AE0C4
:1039300002C060EB7AE00E94023424E0C29FF001F2
:103940001124EC5BFC4F438168EB7AE032C024E049
:10395000C29FF0011124E45CFC4F42816EEB7AE0DF
:1039600028C06AEC7AE00E94023424E0C29FF00191
:103970001124E45CFC4F6081611105C064ED7AE0C4
:10398000CF910C940234CF910C94733324E0C29FF6
:10399000F0011124E45CFC4F41816CED7AE009C038
:1039A00024E0C29FF0011124E45CFC4F438168EEE7
:1039B0007AE0CF910C947434CF910895CF93C82FAF
:1039C0000E947326AC0184E0C89F90011124F90184
:1039D000EC5BFC4F8281803420F44B3A524030F44F
:1039E00003C04535514010F480E001C08FE7F90174
:1039F000EC5BFC4F8283F901E45CFC4F8381F901AD
:103A0000EC5BFC4F882321F08FE79281891B01C07A
:103A10008281CF9108951F93CF93DF93C82F0E9487
:103A20007326FC0134E0C39FE0011124DE01A45C95
:103A3000BC4F8C9111961C91E11594E0F90738F474
:103A4000EE0FFF1FEC50F54F2591349102C02FEF80
:103A50003FEFA82FB0E00E945436472F582F692F10
:103A60007727812F992787FD9095840F951F97FDC4
:103A700004C0803891051CF403C080E001C08FE7CA
:103A8000FE01EC5BFC4F9281292F2F77382F321BE0
:103A9000232F11F4906808C097FF05C027FD2195DA
:103AA00022300CF401C0982FFE01EC5BFC4F928396
:103AB000C45CDC4F8B81882319F0892F809501C06D
:103AC000892F8F77DF91CF911F91089584E08093A4
:103AD0003E0381E080933F0392E390933C039FEF8A
:103AE00090933D039AE09093420380934303109296
:103AF0004003109241030895CF93DF93CDB7DEB713
:103B000029970FB6F894DEBF0FBECDBF8091440356
:103B1000882331F180913C03811103C00E94DE1C97
:103B200003C080E00E940B1D282F809147032817B7
:103B3000B9F02093470380913E0329870E94802893
:103B40002985482F60E0CE0101960E942C2B6091C0
:103B50004503CE0101960E94D22B81E080934C0355
:103B600080914803882339F180914003811104C07A
:103B700081E00E94DE1C03C081E00E940B1D282F03
:103B800080914B032817B9F020934B038091420397
:103B900029870E9480282985482F60E0CE01019660
:103BA0000E942C2B60914903CE0101960E94D22BDA
:103BB00081E080933B0329960FB6F894DEBF0FBED9
:103BC000CDBFDF91CF91089580914C03882339F0C8
:103BD00010924C0360E086E090E00E94560F8091C6
:103BE0003B03882339F010923B0360E087E091E0CB
:103BF0000E94560F08951092B90108958091B9015D
:103C000081116093BA010895FB0180819181A281A5
:103C1000B3818093F3019093F401A093F501B093E5
:103C2000F60108958091F3019091F401A091F501BE
:103C3000B091F601FB0180839183A283B383089541
:103C4000CF93DF939091B901911127C08093BA016E
:103C500081E08093B9018093F30187E08093F401C0
:103C60001092F5018FE08093F6018FEF8093BB01F6
:103C70001092BC01EEEBF1E0A2ECB1E01082EF019A
:103C800021971882138212821C923696169681E032
:103C9000E83EF80799F780E001C08FEFDF91CF9100
:103CA00008952091F401EEEBF1E090E00AC0DF010D
:103CB00011973C913F3F19F43081381731F09F5FE5
:103CC00036969213F4CF8FEF0895892F0895CF93EE
:103CD000DF93D82FC62F842F65E00E940433282F4E
:103CE000C43071F138F4C230C9F008F5C13009F0C0
:103CF00041C006C0C63061F190F1C730D9F52FC080
:103D00004FE060E08091F3010E942D348093F30135
:103D100062E080E19D2F0E94560F2CC049E061E0D7
:103D20008091F4010E942D348093F40123C045E07A
:103D300060E08091F5010E942D348093F5011AC056
:103D400091E018160CF090E08091F6018E7F0FC084
:103D50008091F6018B7F12164CF494E008C080919C
:103D6000F6018D7F121614F492E001C090E0892BC9
:103D70008093F601DF91CF910895CA016330F1F08D
:103D800020F4613069F090F408C0653061F128F1E9
:103D9000663079F16730D1F532C06EE073E11BC057
:103DA0004091F3014F5F6EE173E12EC04091F40149
:103DB0002091F301420F60E373E126C062E473E1F6
:103DC0000E9402346091F501662319F070E00C94B2
:103DD0004D336BE37AE10C9402344091F60141706B
:103DE00062E573E111C04091F601427064E673E14F
:103DF0000BC04091F601447066E773E105C0409145
:103E0000F601427068E873E10C947434089560918F
:103E1000BB016F3F11F00E94012B81E09091BB012B
:103E20009F3F09F480E008951F93CF93DF93EC0147
:103E300010E00CC06091F301610FCE010E94012BD4
:103E40006091BA01CE010E94D22B1F5F8091F401D4
:103E5000181780F3DF91CF911F9108951F93CF938F
:103E6000DF93EB018C81807F803B09F48EC048F4A6
:103E7000803989F0803A09F46FC0803809F0A1C018
:103E800045C0803D09F493C0803E09F48BC0803C5E
:103E900009F097C082C04D813091F401AEEBB1E0E2
:103EA0002FEF9FEF10E00EC0FD01319780818F3F13
:103EB00039F05C91541749F0821710F4282F912F94
:103EC0001F5F16961313F0CF192F1F3F09F47BC005
:103ED0006091F301610FCE010E94012B8091F301EB
:103EE000810F8093BB018D8126E0129FF001112488
:103EF000E754FE4F85838FEF84838E81818720E195
:103F0000829FC00111249087878324C08D810E94E5
:103F1000511E182F8F3F09F456C06091F301680FAE
:103F2000CE010E94012B86E0189FF0011124E75476
:103F3000FE4F8EEF84832091F401EDEBF1E090E0F1
:103F400007C0808181508E3F08F480839F5F369642
:103F50009213F7CF82E038C08D810E94511E182F36
:103F60008F3F89F16091F301680FCE010E94012B10
:103F70008E8196E0199FF0011124E754FE4F81874E
:103F80008091F501882331F31EC08091F60180FFF6
:103F900012C0CE010E94141F16C08091F60181FD4F
:103FA000F8CF09C08091F60182FDF3CF04C0809163
:103FB000F60183FDEECFCE010E94071F8111CACF0B
:103FC00002C081E001C080E0DF91CF911F91089590
:103FD000AF92BF92CF92DF92EF92FF920F931F9317
:103FE000CF93DF93CDB7DEB728970FB6F894DEBF37
:103FF0000FBECDBF8091BC01811170C08091B9010D
:10400000811102C083E06BC08091F50181115AC01B
:10401000F9CF4B2D50E0A49EF001A59EF00D112488
:10402000E754FE4F84818F3F09F04AC06781708555
:10403000A091F5012A2F30E0CB010A2E02C0880F93
:10404000991F0A94E2F7861B970B618570E1679FC1
:10405000800D911D112421503109B60102C0660F57
:10406000771F2A95E2F7860F971F02C096958795CE
:10407000AA95E2F7908787837C0124E0F694E79481
:104080002A95E1F74F5F5F4FA49E8001A59E100D1A
:10409000112407541E4FD8018C918E1589F0609120
:1040A000F3016B0D2E2D4581CE0101960E94362B1A
:1040B0006091BA01CE0101960E94D22BF801E082F4
:1040C000B39406C0B12C86E0A82ECC24C394D12C86
:1040D0008091F401B81608F49CCF94CF815080935E
:1040E000BC0128960FB6F894DEBF0FBECDBFDF919E
:1040F000CF911F910F91FF90EF90DF90CF90BF90E5
:10410000AF90089597E0899FF0011124E35BFC4F85
:104110001082089597E0899FF0011124E35BFC4F22
:104120006183089597E0899FF0011124E35BFC4FC0
:104130008381FB0180830895CF93DF93EC018B8112
:10414000811103C01C821D820EC0813120F49FE0CA
:104150009C83815007C090EF9C83883130F4895054
:104160008295807F8D838FEF05C090EB9D83885172
:104170000E9480288E83DF91CF910895CF93DF93A3
:10418000EDE4F3E0C0E0D0E09081992339F021968E
:104190003796CA30D105C1F78FEF11C097E09C9FC9
:1041A000F0019D9FF00D1124E35BFC4F818381E0C2
:1041B000808362831382CF010E949C208C2FDF9129
:1041C000CF91089561E00C94BE2060E00C94BE2075
:1041D000FB012081F7E08F9FC0011124835B9C4F7E
:1041E000FC0123830C949C20DB01282F30E097E016
:1041F000899FF0011124E35BFC4F848114969C910C
:10420000149789239581891317C086818F3F29F0E0
:1042100015969C91159798130FC087E0829FF00127
:10422000839FF00D1124E35BFC4F8281811106C056
:104230006181CD010E94D22B81E0089582E0089532
:10424000CF93DF93C82F842F6130A9F46AE00E94D6
:10425000043397E0C99FE0011124C35BDC4F282F92
:1042600046EB60E08B810E942D348B83CE01DF9181
:10427000CF910C949C20DF91CF910895CF93C82FBC
:10428000CA01611111C027E0C29FF0011124E35B54
:10429000FC4F2281222319F06DED73E102C06EEC18
:1042A00073E1CF910C940234613049F568EE73E10B
:1042B0000E94023427E0C29FF0011124E35BFC4F0F
:1042C0004381411103C060EF73E1EBCF413128F42A
:1042D00064EF73E1CF910C947434443119F46CEFB2
:1042E00073E1DFCF642F483130F469506295607F0D
:1042F000CF910C9444286851CF910C947128CF91A0
:104300000895EDE4F3E080E090E02081222339F08D
:104310000196329685309105C1F78FEF0895FC0123
:10432000EE0FFF1FE35BFC4F118291E09083089535
:10433000E82FF0E0EE0FFF1FE35BFC4F10820895C3
:104340000895FB019081E82FF0E0EE0FFF1FE35B83
:10435000FC4F91830895E82FF0E0EE0FFF1FE35B21
:10436000FC4F8181FB0180830895FB019481907F44
:10437000903F61F0E82FF0E0EE0FFF1FE35BFC4F92
:104380008181892BFB01848382E0089581E0089577
:10439000CF93DF93C82F842F613079F46AE00E94B5
:1043A0000433D0E0CC0FDD1FC35BDC4F282F4FE080
:1043B00060E089810E9416348983DF91CF9108954E
:1043C000E82FCA01611104C06DE174E10C9402345C
:1043D000613059F4F0E0EE0FFF1FE35BFC4F4181C9
:1043E0004F5F69E274E10C9474340895EDE4F3E0F6
:1043F00080E090E02081222339F0019632968530CA
:104400009105C1F78FEF0895FC01EE0FFF1FE35BED
:10441000FC4F118291E090830895E82FF0E0EE0FB9
:10442000FF1FE35BFC4F108208950895E82FF0E032
:10443000EE0FFF1FE35BFC4FDB018C91818308953E
:10444000E82FF0E0EE0FFF1FE35BFC4F8181FB01E3
:1044500080830895CF93DF93C82F842F613079F440
:104460006CE00E940433D0E0CC0FDD1FC35BDC4F57
:10447000282F40E660EA89810E9416348983DF9103
:10448000CF910895CF93DF93EB019C81907F90397A
:1044900021F0903A11F0903879F4E82FF0E0EE0F27
:1044A000FF1FE35BFC4F21814FE760E08D810E949D
:1044B00016348D8382E001C081E0DF91CF910895B1
:1044C000E82FCA01611104C06EE474E10C94023457
:1044D000613051F4F0E0EE0FFF1FE35BFC4F4181D0
:1044E00068E574E10C94743408951092F701109209
:1044F000F8010895E091F701EA3050F4EF5FE0939E
:10450000F701F0E0EE0FFF1FE950FE4F808361835B
:104510000895E091F701EA3050F4EF5FE093F7017E
:10452000F0E0EE0FFF1FE950FE4F80836183089596
:10453000CF93DF93D82FC62F0E9455259091F70176
:104540009A3078F49F5F9093F7010E945725E0918D
:10455000F701F0E0EE0FFF1FE950FE4FD083C1835B
:1045600004C0DF91CF910C945725DF91CF9108952E
:104570001F93CF93DF9300D01F92CDB7DEB7182FD4
:104580006091F80180E00E947B27612FCE010196A7
:104590000E94EA3389810E9493278A810E9493278F
:1045A0008CE30E9493278091F8018E5F823118F48A
:1045B0008093F80102C01092F8010F900F900F90B5
:1045C000DF91CF911F9108950F931F93CF93DF93A6
:1045D000CDB7DEB727970FB6F894DEBF0FBECDBFBD
:1045E0008C016091F80180E00E947B27B801CE0128
:1045F00001960E941933FC011082CE0101960E949F
:10460000AD278091F8018A5F823118F48093F80118
:1046100002C01092F80127960FB6F894DEBF0FBEC5
:10462000CDBFDF91CF911F910F910895EF92FF922F
:104630001F93CF93DF931F92CDB7DEB7182FE82ECD
:10464000F92E07C0F70181917F0169830E94B8228A
:1046500069818E2D811B8617A8F30F90DF91CF9172
:104660001F91FF90EF9008951092F7010895CF9356
:10467000DF932091F701621798F4C62FD0E0CC0F9A
:10468000DD1FC750DE4F68810E9498332DE2FC0188
:104690002193CF01698170E0DF91CF910C944D336C
:1046A000DF91CF9108958091F7010895E82F862F2B
:1046B000E23160F4F0E0EE0FFF1FE959FB4E259167
:1046C0003491F90125913491F90109948FEF0895FE
:1046D000E82F892FE23170F4F0E0EE0FFF1FE95967
:1046E000FB4E259134912E5F3F4FF9014591549136
:1046F000FA0109940895E82F892FE23170F4F0E06F
:10470000EE0FFF1FE959FB4E259134912C5F3F4F6F
:10471000F90145915491FA0109940895E82F892FE0
:10472000E23170F4F0E0EE0FFF1FE959FB4E2591E6
:1047300034912A5F3F4FF90145915491FA01099450
:104740000895E82F892FE23170F4F0E0EE0FFF1F9B
:10475000E959FB4E25913491285F3F4FF90145916E
:104760005491FA0109940895E82F892FE23170F4E9
:10477000F0E0EE0FFF1FE959FB4E25913491265FC3
:104780003F4FF90145915491FA01099481E0089550
:10479000E82F892FE23170F4F0E0EE0FFF1FE959A6
:1047A000FB4E25913491245F3F4FF901A591B491BF
:1047B000FD0109940895E82F892FE23170F4F0E0AB
:1047C000EE0FFF1FE959FB4E25913491225F3F4FB9
:1047D000F901A591B491FD0109940895E82FF0E045
:1047E000EE0FFF1FE959FB4E859194914096FC0115
:1047F00084910895E82FF0E0EE0FFF1FE959FB4E7A
:10480000859194914196FC0184910895E82FF0E000
:10481000EE0FFF1FE959FB4E859194914296FC01E2
:1048200084910895E82FF0E0EE0FFF1FE959FB4E49
:10483000859194914396FC0184910895E82FF0E0CE
:10484000EE0FFF1FE959FB4E859194914496FC01B0
:1048500025913491C90108950F931F93E82FF0E03B
:10486000EE0FFF1FE959FB4E859194914696FC018E
:104870000591159125913491B801C9011F910F91AE
:104880000895CF92DF92EF92FF92CF936B017C015C
:10489000C0E08C2F0E942C246C157D058E059F0591
:1048A00029F0CF5FC231A9F78FEF01C08C2FCF91D4
:1048B000FF90EF90DF90CF9008952C98089588E1B5
:1048C0000FB6F89480936000109260000FBE2FEF37
:1048D00022B911B888EF85B914B828B987E290E0F9
:1048E00017B82BB91AB82C9A249A2B98239A2D987A
:1048F000259A5B9A5398179A0F98E9E6F0E0208181
:1049000024602083E99AEBE6F0E020812068208390
:10491000E8E6F0E020812160208322B1286322B9FB
:1049200021B1277C21B99093C5008093C4001092D7
:10493000C00028E92093C10026E02093C200109215
:104940000D0210920E029093CD008093CC00109235
:10495000C80080E98093C9002093CA001092100219
:1049600010920F02109280008AE08093810087EA03
:1049700091E6909389008093880082E080936F0095
:104980001092B00097E09093B10084BD95E095BD82
:1049900016BC93E197BD80936E00109211021092A5
:1049A00013021092120280E480937C0087E88093C7
:1049B0007A0083E080937E00089581110C945D2439
:1049C0002C9A0895882311F02D9A08952D98089512
:1049D000882311F02B9A08952B98089589B183FBB1
:1049E000882780F990B1991F9927991F990F892BD2
:1049F00008951F920F920FB60F9211242F933F9399
:104A00004F935F936F937F938F939F93AF93BF93D6
:104A1000EF93FF9360B180B165FB662760F991E089
:104A2000692780780E947330FF91EF91BF91AF9119
:104A30009F918F917F916F915F914F913F912F91B6
:104A40000F900FBE0F901F9018951F920F920FB6E8
:104A50000F9211242F933F934F935F936F937F9304
:104A60008F939F93AF93BF93EF93FF9360B189B1FF
:104A700065FB662760F991E0692788700E94B13074
:104A8000FF91EF91BF91AF919F918F917F916F9126
:104A90005F914F913F912F910F900FBE0F901F90FC
:104AA000189580B1809588730895F8940895789446
:104AB00008951F920F920FB60F9211242F933F93D8
:104AC0004F935F936F937F938F939F93AF93BF9316
:104AD000EF93FF930E945D248091C6000E94C1184D
:104AE00080E00E94DD24FF91EF91BF91AF919F91F3
:104AF0008F917F916F915F914F913F912F910F9087
:104B00000FBE0F901F9018951F920F920FB60F9225
:104B100011242F933F934F935F936F937F938F93C2
:104B20009F93AF93BF93EF93FF930E945D24809177
:104B3000CE000E94831980E00E94DD24FF91EF9156
:104B4000BF91AF919F918F917F916F915F914F91A5
:104B50003F912F910F900FBE0F901F9018951F92AD
:104B60000F920FB60F9211242F933F934F935F93A1
:104B70006F937F938F939F93AF93BF93EF93FF9325
:104B80000E945D248091C00085FF1BC080910E02B1
:104B900090910D02891781F0E82FF0E0EC5EFD4F57
:104BA00090819093C6008D3118F010920E0209C0CA
:104BB0008F5F80930E0205C08091C1008F7D80932E
:104BC000C10080E00E94DD24FF91EF91BF91AF9181
:104BD0009F918F917F916F915F914F913F912F9115
:104BE0000F900FBE0F901F90189581E020910D023D
:104BF00090910E02291380E00895E0910D02ED31AD
:104C000018F010920D0204C09E2F9F5F90930D022A
:104C100020910E0290910D02291303C0E0930D0222
:104C200004C0F0E0EC5EFD4F80838091C1008062A3
:104C30008093C10008951F920F920FB60F92112416
:104C40002F933F934F938F939F9340911102209105
:104C50001202309113028091780090917900820FB6
:104C6000931F411114C096958795969587959093BB
:104C7000330280933202109213021092120280E4E7
:104C800080937C0087EC80937A0081E020C04430E0
:104C9000A1F4969587959695879590933502809384
:104CA0003402109213021092120281E480937C006D
:104CB00087EC80937A0085E00AC09093130280937A
:104CC000120287EC80937A00842F8F5F8770809325
:104CD00011029F918F914F913F912F910F900FBE95
:104CE0000F901F901895811105C0209134023091CA
:104CF000350209C0813029F420913202309133020B
:104D000002C020E030E0C9010895811106C0F89486
:104D1000209134023091350207C0813039F4F89483
:104D20002091320230913302789402C020E030E0CA
:104D3000C90108951F920F920FB60F9211242F935D
:104D40003F934F935F936F937F938F939F93AF9313
:104D5000BF93EF93FF9380910F0290911002019601
:104D60009093100280930F020E947C1D0E94E81F06
:104D70000E94D02B0E94EF30FF91EF91BF91AF9135
:104D80009F918F917F916F915F914F913F912F9163
:104D90000F900FBE0F901F90189580910F02909169
:104DA00010020895F89480910F0290911002789467
:104DB00008952DE088E190E00FB6F894A8958093CF
:104DC00060000FBE20936000F894FFCF8091360200
:104DD000811116C018B817B85E9A5D9882E48A955A
:104DE000F1F700C05F9A82E48A95F1F700C096B1AE
:104DF0008BB18F718BB997FD03C081E08093360230
:104E0000809136020895CF93C82F0E94E62688230A
:104E1000E1F3C8B98FEF87B95E985D9A82E48A950D
:104E2000F1F700C05F9A82E48A95F1F700C08BB178
:104E30008F758BB910923602CF910895CF93C82FFA
:104E40000E94E6268823E1F3C8B98FEF87B95E9800
:104E50005D9882E48A95F1F700C05F9A82E48A95B2
:104E6000F1F700C05F9810923602CF910895CF936A
:104E700018B817B88BB18F718BB98AB1806E8AB9A7
:104E80002FEF89EF90E0215080409040E1F700C083
:104E90000000C1E0C093360280E30E941E278FE22B
:104EA00095E70197F1F700C00000C093360280E358
:104EB0000E941E2787E893E10197F1F700C00000E8
:104EC000C093360280E30E941E278CE30E941E27B7
:104ED00088E00E941E2781E00E941E2786E00E9433
:104EE0001E278EE00E941E2780E8CF910C941E277B
:104EF00081E00C941E27843010F4643128F06DEFAB
:104F000070E082E00C947A2280FF02C090E401C03D
:104F100090E081FF02C084E101C080E06058690F29
:104F2000860F0C941E270C9403270F931F93CF9387
:104F3000DF931F92CDB7DEB7082F10E006C0802F99
:104F400069830E9403271F5F69811613F8CF0F90B2
:104F5000DF91CF911F910F9108951F93CF93DF930E
:104F6000182FEC0102C00E9403279C2F911B8991EE
:104F70008111F9CF892FDF91CF911F9108951F9350
:104F8000CF93DF93182FEC0103C00E9403272196D3
:104F90009C2F911BFE0184918111F7CF892FDF9106
:104FA000CF911F910895803F50F0813F11F481E02F
:104FB0000895833FE1F3823F49F080E0089587FF41
:104FC000FCCF807F803C99F3803D89F382E0089597
:104FD00087FF12C0982F907F903F51F4883F70F464
:104FE000803F11F485E00895873FE1F383E0089561
:104FF000903B31F482E0089580E0089584E00895C4
:1050000081E00895262F30E0603248F44AE0429F64
:10501000B001439F700D112464547B4E1BC060345B
:1050200078F4205231094AE0429FB001439F700D4D
:10503000112464547B4E0E9402346CEF75E10AC067
:10504000205431094AE0429FB001439F700D112462
:1050500060507A4E0C940234CF93AC01862F6CE0F2
:105060000E946036C82F292F30E0B901660F771FE4
:10507000620F731F6058774ECA010E9402346C2F72
:105080006550CF910C949833603F68F0262F30E044
:10509000205F31094DE0429FB001439F700D112404
:1050A0006C55774E0EC062956F70262F30E02850F9
:1050B000310949E0429FB001439F700D11246C58A3
:1050C000764E0C9402346CE00E94603691509A3017
:1050D00030F4E92FF0E0E05FFE4F8081089580E03A
:1050E00008956F3138F4E62FF0E0E454F64E649101
:1050F0000C940228462F4F516BED79E10C947434D7
:105100008F3130F4E82FF0E0E454F64E84910895A6
:105110008F51089520919803203278F4A09198033C
:1051200028E0A29FD0011124A55EBB4F28E0FC011E
:1051300001900D922A95E1F705C06EE770E08CE0D2
:105140000E947A22809198038F5F809398038091C8
:105150009803803210F010929803089510929A03E9
:1051600088E0809395031092960310929403109216
:1051700093031092970381E080939803809399039F
:10518000089520919603213031F420919403211148
:1051900002C00C948A28089520919603213051F47E
:1051A00020919403211106C020919303211102C084
:1051B0000C948A28089520919603223031F420918E
:1051C0009403211102C00C948A280895209196031B
:1051D000223051F420919403211106C020919303B1
:1051E000211102C00C948A2808952091960323303F
:1051F00031F420919403211102C00C948A2808955F
:1052000020919603233051F420919403211106C07C
:1052100020919303211102C00C948A280895DF92F3
:10522000EF92FF920F931F93CF93DF93809196039A
:10523000882309F4A7C080919403811112C0809142
:105240009803882311F0815001C08FE1909197035A
:10525000891739F08093970381E080939903109226
:105260009A0380919903882309F48CC010929903C2
:10527000C0E0D0E060E2D62E7E0155E0EE0CFF1CCF
:105280005A95E1F7C70185569C4F209197033091BD
:105290009A03231B2C0F022F035007FD005EE8E04A
:1052A0000E9F80011124055E1B4FB8010E94152A34
:1052B000FC01C7018D559C4FD192E817F907E0F327
:1052C000B801CF010E944F2A21969E0145E0220F8E
:1052D000331F4A95E1F725563C4F03C0FC01D1929C
:1052E000CF0182179307D0F3C430D10529F6C0E06F
:1052F000D0E060E08C2F0E947B27F12C8E0185E0AE
:10530000000F111F8A95E1F7809195038F0D803270
:1053100038F4F801E80FF11DE556FC4F808101C01B
:1053200080E20E949327F394F4E1FF12EDCF2196DF
:10533000C430D105F1F662E180E00E947B278091C4
:105340009603813011F481E307C0823011F482E3C7
:1053500003C0833019F48FE40E9493278091940353
:10536000882311F080E501C080E20E94932763E169
:1053700080E0DF91CF911F910F91FF90EF90DF9030
:105380000C947B27DF91CF911F910F91FF90EF90AD
:10539000DF90089580939603109294036093930393
:1053A00080E091E0EBE1F4E0DF019C011D922150EF
:1053B0003040E1F781E08093980310929703809347
:1053C00099030895109296030895843069F028F4A3
:1053D000813001F1833029F505C08B3079F08C30B4
:1053E00001F50EC02FEF01C021E04CE160E080919B
:1053F0009A030E94163480939A0313C021E001C0DF
:105400002FEF4AE066EF809195030E941634809357
:10541000950307C081E090919403911180E08093FF
:10542000940381E08093990308951F93CF93DF93B2
:10543000FC01EB018A81811103C08DE281932AC0B6
:1054400080FF24C081FD05C06C81CF010E94EA333A
:10545000FC018EE2819311E00AC0DE01A10FB11DB3
:1054600014966C91CF010E94EA33FC011F5F8B817F
:10547000181798F30FC0DE01A10FB11D14966C919F
:10548000CF010E94EA33FC011F5F01C010E08B8155
:10549000181788F3CF01DF91CF911F910895DF9204
:1054A000EF92FF920F931F93CF93DF938B01FB013A
:1054B000228122FF03C061EE79E104C023FF0BC00B
:1054C0006FEE79E1DF91CF911F910F91FF90EF90F7
:1054D000DF900C94023424FF03C06DEF79E1F2CF2A
:1054E00020FF83C0FB01F480FFEEFF15C0F46F2D99
:1054F0000E944428EC01E12C80E2D82E0AC0D99207
:10550000F801EE0DF11D6581CE010E949833EC018A
:10551000E3948F2D0E94D327E81688F369C023E413
:10552000FC01208328E621836F2D6F706F5F029648
:105530000E94983320E2FC012193CF016F2D0E943D
:105540004428EC016F2D607F603BC1F040F460396E
:1055500071F0603A61F0603809F04AC008C0603DFF
:1055600031F1603E79F1603C09F042C012C0F801AF
:105570006581CE010E942C2820E205C0F8016581DA
:105580000E9402282DE3FC012193CF01F8016681DE
:1055900010C0F801658170E06F5F7F4FDF91CF91A0
:1055A0001F910F91FF90EF90DF900C944D33F80115
:1055B0006581DF91CF911F910F91FF90EF90DF9068
:1055C0000C949833F80185816681F0E86F9FB001F3
:1055D0001124682B7052CE01DF91CF911F910F9152
:1055E000FF90EF90DF900C941933EC018DE28993DA
:1055F000CE01DF91CF911F910F91FF90EF90DF903F
:1056000008956F70FC012481207F622B64830895CC
:10561000FC0182E0838381E08283606C6483458344
:105620000895FC0182E0838381E08283606D64835E
:1056300045830895FC0183E0838381E08283606E6B
:105640006483505ECA018F7799278583440F452F65
:10565000441F550B46830895FC0183E0838381E05A
:105660008283606B6483458326830895FC0183E015
:10567000838381E08283606A6483458326830895FF
:10568000FC0181E08283838364830895FC0123818C
:10569000243030F4E20FF11D64832F5FFC0123837B
:1056A00008950F931F93CF93DF9381E080933A0285
:1056B00048C0E0913B02F0E0E25CFD4F1081E12F39
:1056C000F0E0EE0FFF1FE35BFD4F018128C0C12F0B
:1056D000D0E0CC0FDD1FFE01E35BFD4F80818F3FEB
:1056E00011F080131CC060913B0288E0689FB001FC
:1056F00011246B587D4FFE01E351FD4F8081918154
:105700000E94B423882341F0823049F4C35BDD4F0B
:1057100089818F3F19F403C000E001C0082F1F5F8B
:10572000002321F080913D02181788F280913B02FE
:105730008F5F80933B0280913B028F3010F010927C
:105740003B0290913C0280913B029813B2CF1092A1
:105750003A02DF91CF911F910F910895CF93DF937C
:10576000EB010E941224823029F0843049F081300C
:1057700049F404C0188289818F3F21F4198202C044
:1057800088818983DF91CF91089510923902109218
:105790003C0210923B0210923A0210923D02089590
:1057A0000C94512BCF93C0913C0220913C022F5F6F
:1057B00020933C0220913C022F3010F010923C02CA
:1057C00030913C0220913B02321308C06AEE70E037
:1057D00084E10E948922C0933C021AC0AC2FB0E041
:1057E000FD01E25CFD4F608323E0AA0FBB1F2A95F9
:1057F000E1F7AB58BD4F28E0FC0101900D922A95CE
:10580000E1F780913A02811103C0CF910C94512BA2
:10581000CF9108951F93CF93DF93EC01162F8091C2
:1058200039028823B9F10E945525A0913C0280914C
:105830003C028F5F80933C0280913C028F3010F0DD
:1058400010923C0290913C0280913B0298130BC055
:10585000A0933C020E94572587E893E10197F1F756
:1058600000C00000E0CFB0E0FD01E25CFD4F10831E
:1058700033E0AA0FBB1F3A95E1F7AB58BD4F88E064
:10588000FE0101900D928A95E1F7DF91CF911F9172
:105890000C945725DF91CF911F91089581E080935B
:1058A00039020C9457251BC00E94451A811117C05C
:1058B0000E94552590913C0280913B02981307C0AD
:1058C0000E94F525882319F01092390208C00E9421
:1058D000572587E893E10197F1F700C00000809118
:1058E00039028111E1CF089580913D020895909190
:1058F0003D02891748F4E82FF0E0EE0FFF1FE35157
:10590000FD4F80819181089590E08FEF08951F935E
:10591000CF93DF93D82F80913902811124C0109149
:105920003D02143108F024C0612F8D2F0E945623B0
:10593000C82F8F3FE9F0612F70E0660F771FFB01E2
:10594000E351FD4FD0838183635B7D4F81E0FB0199
:10595000808381838D2F0E94AE2B80913D028F5FCB
:1059600080933D0206C069E971E084E10E949822BB
:10597000CFEF81E0CF3F09F480E0DF91CF911F911D
:105980000895AF92BF92DF92EF92FF920F931F9311
:10599000CF93DF931F92CDB7DEB7D82E7B018A015C
:1059A00080913902811131C0B0903D0283E18B15A5
:1059B00008F430C06B2D8D2D0E945623482F8F3F49
:1059C00049F12B2D30E0220F331F7DEEA72E72E020
:1059D000B72EA20EB31EF501D0828183B901635B9D
:1059E0007D4FFB01F182E0828D2D49830E94AE2B19
:1059F000B801F501808191810E948E2380913D0242
:105A00008F5F80933D02498106C065EC71E084E1BF
:105A10000E9498224FEF81E04F3F09F480E00F9001
:105A2000DF91CF911F910F91FF90EF90DF90BF908A
:105A3000AF900895CF93C82F80913902811136C05D
:105A4000EC2FF0E0EE0FFF1FE351FD4F80819181BD
:105A50000E94682390913D02915090933D0221C095
:105A60004C2F50E09A012F5F3F4F440F551FFA0112
:105A7000E351FD4F220F331FD901A351BD4F8D912B
:105A80009C9191838083FA01E35BFD4FD901A35B75
:105A9000BD4F2D913C91318320836C2F0E947B233D
:105AA000CF5F80913D02C817D8F206C064EE71E066
:105AB00084E1CF910C949822CF910895CF93809157
:105AC0003902882369F014C0EC2FF0E0EE0FFF1FBD
:105AD000E351FD4F808191810E946823CF5F01C017
