:10F0000066C000007FC000007DC0000095C0000009
:10F0100079C0000077C0000075C0000073C0000018
:10F0200071C000006FC000006DC000006BC0000028
:10F0300069C0000067C0000065C0000063C0000038
:10F0400061C000005FC000005DC000005BC0000048
:10F0500059C0000057C0000055C0000053C0000058
:10F0600051C000004FC000004DC000004BC0000068
:10F0700049C0000047C0000045C00000090212005E
:10F0800001010080320904000000000000001201AC
:10F090001001FF000008C016DC050201010200019A
:10F0A0000E035500530042006100730070001C0302
:10F0B0007700770077002E00660069007300630018
:10F0C00068006C002E00640065000403090411242C
:10F0D0001FBECFEFD0E1DEBFCDBF11E0A0E0B1E0B9
:10F0E000ECE6F7EF02C005900D92A630B107D9F714
:10F0F00011E0A6E0B1E001C01D92AC33B107E1F729
:10F1000026D132C37DCFA82FB92F80E090E041E017
:10F1100050EA609530E009C02D9182279795879538
:10F1200010F084279527305EC8F36F5FA8F3089529
:10F13000EADF8D939D930895CF93CFB7CF93DF935D
:10F14000C395189BE9F7189B11C0189B0FC0189B1B
:10F150000DC0189B0BC0189B09C0189B07C0189BBB
:10F1600005C0189B03C0189B01C081C06F93C0915C
:10F170001F01DD27CA5DDE4F2F9320E400C065E04C
:10F18000189B03C02F916F91DECF0F931F934F9366
:10F1900045E55F9355E53F933BE014E003B105700F
:10F1A0002EC06A95C9F03150D8F103B10570011332
:10F1B0000BC008942795299320E4555500F46A95CF
:10F1C00069F701E063B10BC0102F66E02695299323
:10F1D00020E4555518F3E2CF0FEF63B10000162F6E
:10F1E000455500F0404066E015700030E2F221F035
:10F1F000000003B1057003C003B10570A9F001134D
:10F2000009C00894279568F200C06A95A9F700E044
:10F2100063B1E5CF102F66E0269528F20000ECCF11
:10F2200014E01CBB002717C03B503195C31BD040D6
:10F2300014E01CBB0881033CF9F00B34E9F0209189
:10F240001D011981110F1213EDCF093651F10D3245
:10F2500011F0013E39F7009324013F915F914F91E6
:10F260001F910F912F916F91CCB3C2FD69CFDF91A8
:10F27000CF91CFBFCF91189520912401222369F31C
:10F2800010912201112329F534302AF13093220103
:10F2900020931E0110911F013BE0311B30931F0191
:10F2A0001AC0009122010130A4F40AE53091000156
:10F2B00034FD12C000930001C2E1D1E011C0052766
:10F2C00010E000C005B919C0052710E0221F00C0DA
:10F2D0001DC04AE502C032ED432FC4E1D0E032E068
:10F2E00014B11560289A05B114B955E020E869E415
:10F2F00020FF052705B92795179500C000001C3F82
:10F30000F0F66695A8F7A1F720FF052705B9279520
:10F31000179500001C3FC0F629913A9541F70A7FE6
:10F3200010912301110F05B9C651D04011F010936F
:10F330001D0114E01CBB016014B11A7F402F4A7FED
:10F3400055E05A95F1F705B914B945B986CF149A25
:10F3500014BE81E085BF82E085BF94E080E0E7E8ED
:10F36000F3E13197F1F700C00000049B8F5F9150EB
:10F37000B1F7843009F0D5C1809169008063809332
:10F380006900EA9AF8942198299880E007C0A89526
:10F39000E7E8F3E13197F1F700C000008150B9F7D9
:10F3A000219A299A7894249A2C9800E010E02091D0
:10F3B0002201235027FD36C180911F01CCE0D0E00F
:10F3C000C81BD109CA5DDE4F80911E018D3209F044
:10F3D000C3C0283009F024C183EC809312018AE570
:10F3E000809300011092070188818076298188230B
:10F3F00009F442C088E091E09093210180932001BC
:10F400002330C9F49B818C812A81203339F48370A5
:10F41000E82FF0E0EE5FFE4F808109C0203A11F442
:10F420008DD105C0203C11F46D8190D180E0809396
:10F430000B0124E087C02530E9F0822F845086300C
:10F4400090F48A819B8190930D0180930C01293067
:10F4500009F40EC08E8180930E018D81827080939D
:10F460000F012FEF68C0223019F481E0809306016C
:10F4700020E068C021E066C08A8110921B01211142
:10F4800006C010921C018BE191E022E04EC02530B5
:10F4900019F4809323013DC02630A9F59B8191305A
:10F4A00019F48EE890EF04C0923041F48CE790EFAD
:10F4B000909321018093200122E121C09330F1F447
:10F4C000811108C08AEC90EF909321018093200174
:10F4D00024E015C0813041F48EEA90EF9093210131
:10F4E000809320012CE10BC0823041F480EA90EF40
:10F4F00090932101809320012EE001C020E080E460
:10F500008093070116C0283069F0293029F48093D0
:10F5100025018BE191E004C08BE191E02A3021F0DC
:10F5200020E003C085E291E021E0909321018093E7
:10F5300020012F3F39F4888187FD2E8180E8809358
:10F54000070107C08F81811104C08E81821708F4E2
:10F55000282F2093010164C08091070187FF60C0BC
:10F5600080910E01821708F4282F821B80930E01D0
:10F5700031E0811130E0DE014AC080910C01882326
:10F58000D1F0F894E0910C01F0910D018D919D91D5
:10F5900051E00C0150935700E89511247894809124
:10F5A0000C0190910D01029690930D0180930C0136
:10F5B0008823C9F00EC0F894E0910C01F0910D0180
:10F5C00083E080935700E895789407B600FCFDCF60
:10F5D000D8CF3323E1F08A2F841B8217C0F08091AB
:10F5E0000F018823A1F0F894E0910C01F0910D0136
:10F5F000329785E080935700E895789407B600FC31
:10F60000FDCFF89481E180935700E89578944C2FD2
:10F610008A2F8C1B821708F4B0CF31111092010190
:10F62000109222018091000184FF67C08091010146
:10F630008F3F09F462C0C82F893008F0C8E08C1BE6
:10F64000809301018091120198E88927809312012B
:10F65000CC2309F441C08091070187FF1FC080912E
:10F660000E018C1708F4C82F8C1B80930E01E091BB
:10F670000C01F0910D01A3E1B1E003C0E491ED9321
:10F68000FC01CF01019623E131E04A2F421B4C17C8
:10F69000A8F3F0930D01E0930C011CC0E091200150
:10F6A000F0912101A3E1B1E086FF09C084918D931F
:10F6B000319683E191E08C0F8A13F8CF07C08191D6
:10F6C0008D9383E191E08C0F8A13F9CFF0932101A0
:10F6D000E0932001C93058F46C2F83E191E028DDDC
:10F6E000CC5FCC3041F08FEF8093010104C08FEFED
:10F6F00080930101CEE1C093000184E193B1957044
:10F7000031F48150D9F71092230110921D0180919C
:10F710000601882321F0115011F4015011F0A89531
:10F7200046CE1498F8941DBA1092690081E085BF06
:10F7300015BEE0911001F09111010995F999FECFE4
:10F7400092BD81BDF89A992780B50895262FF99921
:10F75000FECF1FBA92BD81BD20BD0FB6F894FA9AB4
:0CF76000F99A0FBE01960895F894FFCFAF
:06F76C005AFF1E960A0080
:040000030000F00009
:00000001FF
