:100000000C94EC0C0C94090D0C944A230C94090DDF
:100010000C9476230C94090D0C94090D0C94090D85
:100020000C94090D0C94090D0C94090D0C94090DF8
:100030000C94090D0C94EB240C94090D0C94090DEF
:100040000C946C240C94090D0C94090D0C94090D5E
:100050000C94AA230C9400240C94090D0C94090D03
:100060000C94090D0C94090D0C94090D0C94090DB8
:100070000C94D5230C94090D0C94090D010B0D1F44
:100080000D0E0D290D2D2D2D2D20202041424F55D7
:10009000543A2020202D2D2D2D0020204D4944495B
:1000A0004D49584649582076312E30000000002036
:1000B00020202020202042793A000000000000008B
:1000C000000000004C617273204F2E20506F6E7440
:1000D0006F70706964616E000020687474703A2FEC
:1000E0002F6C61727365652E646B00000000000068
:1000F0000000000000000000000000000000000000
:100100000000002020436F707972696768742032A4
:10011000303134000000000000000000000000004A
:1001200000000000000000000000000000457272A6
:100130006F72733A00000000000000000000000031
:100140000000014B0D4E0D9D0D500D4144442046C5
:1001500041494C4544210046494C544552204144B4
:10016000444544002D2D2D204144442046696C74A3
:1001700065723A202D2D2D2D0000D30DAE0DC00E31
:10018000100E01570F5A0F5C0F660F426F6F746CA1
:100190006F6164657220616374697661746564007F
:1001A0002873656C656374206D75737420626500D7
:1001B0007072657373656420666F72203320736597
:1001C000632E29002A2A2A2A204D4944494D49589C
:1001D000464958202A2A2A2A00205365747570201F
:1001E00066696C7465727300000000000000204CAA
:1001F0006F61642070726573657400000000000018
:10020000000000205361766520707265736574008C
:100210000000000000000000204164642066696C5A
:1002200074657200000000000000000000205265AC
:100230006D6F76652066696C746572000000000061
:1002400000002052656F726465722066696C746587
:10025000727300000000002053686F77206D69649E
:1002600069206C6F670000000000000020426F6F83
:10027000746C6F6164657200000000000000000093
:10028000002041626F757400000000000000000053
:1002900000000000000001E10FE60FE80FF70F2D4E
:1002A0002D2D2053484F57204D494449204C4F474E
:1002B0003A00496E7075742031206E6F2072742F71
:1002C0007379737800496E707574203120616C6C9D
:1002D0000000000000000000496E7075742032209C
:1002E0006E6F2072742F7379737800496E70757415
:1002F000203220616C6C00000000000000004F758F
:1003000074707574206E6F2072742F737973780017
:10031000004F757470757420616C6C0000000000F3
:100320000000000001641066106E1068102D2D2D65
:100330002D20204D6573736167653A20202D2D2D8A
:100340002D00019110A2102E11AA10019D10A210D3
:100350002E11AA105052455345542053415645443E
:100360000044454641554C5453204C4F414445446C
:1003700000505245534554204C4F41444544005091
:100380005245534554204C4F4144204552523A2542
:1003900069002D2D2D2053415645205072657365FF
:1003A000743A202D2D2D002D2D2D204C4F41442011
:1003B0005072657365743A202D2D2D004465666179
:1003C000756C747300537461727420757000507290
:1003D00065736574202569002028656D707479291E
:1003E0000020434F525255505400204552523A205B
:1003F000256900017D1184111D12AC110175118454
:10040000111D12AC112D2D2D2052454D4F5645205A
:1004100046696C7465723A202D002D2D2D205245B1
:100420004F524445522046696C746572733A0054C9
:100430004553545F4D4F44450066137F1389138A1B
:100440001398139B140314A51305040704CF040188
:1004500018000090909080A0D0437572766520259A
:10046000552D3E002555004F6E2020203A20004E8D
:100470002E4F6E00000000000000004E2E4F6E2038
:10048000426C2E4B6579004E2E4F6E2057682E4BD6
:100490006579004E2E4F6666000000000000004B9C
:1004A0006579204166746572542E0043682E2041A0
:1004B00066746572542E004C6F7720203A200048F5
:1004C000696768203A200043757276653A200043D8
:1004D000757276652066696C746572004C696E652C
:1004E00061720000000047616D6D6120302E3600A2
:1004F00047616D6D6120302E380047616D6D612060
:10050000312E320047616D6D6120312E36002D5342
:100510002D207368617065002D4E2D207368617009
:10052000650000020406080A0C0E10121416181AB0
:100530001C1E20222426282A2C2E30323436383A0B
:100540003C3E40424446484A4C4E50525456585AFB
:100550005C5E60626466686A6C6E70727476787AEB
:100560007C7E80828486888A8C8E90929496989ADB
:100570009C9EA0A2A4A6A8AAACAEB0B2B4B6B8BACB
:10058000BCBEC0C2C4C6C8CACCCED0D2D4D6D8DABB
:10059000DCDEE0E2E4E6E8EAECEEF0F2F4F6F8FAAB
:1005A000FCFE00010204050607080A0B0C0D0F10E3
:1005B000111214151618191A1B1D1E1F212223258E
:1005C0002627292A2B2D2E2F313234353638393B28
:1005D0003C3E3F404243454648494B4C4E4F5152AA
:1005E000545657595A5C5E5F6163646668696B6D07
:1005F0006F7072747678797B7D7F81838587898B34
:100600008D8F919395979A9C9EA1A3A5A8AAADAF13
:10061000B2B5B7BABDC0C3C7CACED1D5DADEE3E939
:10062000F0FE0002030506080A0B0D0F1012131549
:1006300017181A1C1D1F2122242627292B2C2E3087
:1006400031333536383A3B3D3F4142444648494BC9
:100650004D4F5052545657595B5D5E6062646668F8
:10066000696B6D6F71737476787A7C7E8082848614
:1006700087898B8D8F91939597999B9D9FA1A3A51A
:10068000A8AAACAEB0B2B4B7B9BBBDC0C2C4C6C9EB
:10069000CBCED0D2D5D8DADDDFE2E5E8EBEEF1F56E
:1006A000F9FE000205070A0C0E111315181A1D1F7A
:1006B000212426282B2D2F323436383B3D3F42440F
:1006C00046484B4D4F515456585A5D5F61636668BA
:1006D0006A6C6E70737577797B7D80828486888A78
:1006E0008C8E90939597999B9D9FA1A3A5A7A9AB4D
:1006F000ADAFB1B3B5B7B9BBBDBFC0C2C4C6C8CA40
:10070000CCCDCFD1D3D5D6D8DADCDDDFE1E2E4E65B
:10071000E7E9EAECEEEFF1F2F3F5F6F7F9FAFBFCB4
:10072000FDFE0003060A0D101316191C1F222528B2
:100730002B2E3134373A3D404345484B4E515356AA
:10074000595C5E616466696C6E717376787B7D80DE
:100750008285878A8C8E919395989A9C9EA1A3A559
:10076000A7A9ABADAFB1B4B6B8B9BBBDBFC1C3C526
:10077000C7C8CACCCECFD1D3D4D6D8D9DBDCDEDF44
:10078000E1E2E3E5E6E7E9EAEBECEDEFF0F1F2F3C5
:10079000F4F5F6F7F7F8F9FAFAFBFCFCFDFDFDFEBF
:1007A000FEFE0001010203040506060708090A0B04
:1007B0000C0D0E10111213141617181A1B1D1F20E2
:1007C00022242527292B2D2F313436383B3D40421A
:1007D00045484B4E5154575A5E6164686B6F727650
:1007E0007A7D8184888C8F93969A9DA0A4A7AAADC8
:1007F000B0B3B6B9BCBEC1C3C6C8CACDCFD1D3D5BC
:10080000D7D9DADCDEDFE1E3E4E6E7E8EAEBECEDBA
:10081000EEF0F1F2F3F4F5F6F7F8F8F9FAFBFCFD77
:10082000FDFE00050A0F13171B1F2226292C2F324D
:100830003437393C3E40424446484A4C4E5051536E
:10084000555658595B5C5E5F606263646667686AB0
:100850006B6C6D6E7071727374757778797A7B7C5E
:100860007D7E8081828384858687898A8B8C8D8E2C
:1008700090919293949697989A9B9C9E9FA0A2A3E6
:10088000A5A6A8A9ABADAEB0B2B4B6B8BABCBEC04E
:10089000C2C5C7CACCCFD2D5D8DCDFE3E7EBEFF4D3
:1008A000F9FEAC15C515CD153316D5150C16C116A8
:1008B000631602020703BC080119000047656E6554
:1008C00072617465206D73672E0056616C2E203A3C
:1008D0002025690054797065203A200050726F67B6
:1008E000206368672E00381756176917021702171A
:1008F00003176C17051700000002C109010700006B
:100900002E175217661702170217031771170517CC
:1009100000000002B2090106000024174E176317F9
:100920000217021703177617051700000002A30924
:10093000010500001A174A1760170217021703175C
:100940007B1705170000000294090104000010172E
:1009500046175D17021702170317801705170000C7
:1009600000028B0901030000061742175A170217ED
:1009700002170317851705170000000282090102FC
:1009800000004D49444920496E31004D49444920F9
:10099000496E32004D49444920496E31205265610B
:1009A0006C74004D49444920496E32205265616C97
:1009B00074004D49444920496E312053797365785C
:1009C000004D49444920496E3220537973657800BF
:1009D0003919461949194A194F19741964195419C2
:1009E00001010F01EA09010100004D494449204F6E
:1009F00075740052756E6E2E207374617475732059
:100A00003A20256F00341ABE19C619241AC719587E
:100A10001AB11AEF19020207041F0A011600004D4D
:100A20006F64696679206374726C2E00546F2020A5
:100A3000203A200046726F6D203A2000E81AF51A1D
:100A4000FD1A051B151B251B701B271B040409021F
:100A5000780A010B0000DB1AF51AFD1A051B151B9D
:100A6000251B701B271B04040902700A010A0000E1
:100A7000506564616C203100506564616C20320007
:100A8000202D3E25690043432E202020203A20259A
:100A900043004761696E2020203A200044494749BD
:100AA00054414C004F6666736574203A20256900F6
:100AB000496E76657274203A20256F0000000000B0
:100AC0000000000001000100010001000100010020
:100AD0000200020002000200020002000200030005
:100AE00003000300030003000300040004000400EB
:100AF00004000400040005000500050005000500D1
:100B000005000600060006000600060006000700B5
:100B1000070007000700070007000800080008009A
:100B20000800080008000900090009000900090080
:100B300009000A000A000A000A000A000A000B0065
:100B40000B000B000B000B000B000C000C000C004A
:100B50000C000C000D000D000D000D000D000D002F
:100B60000E000E000E000E000E000F000F000F0012
:100B70000F000F000F0010001000100010001000F8
:100B800011001100110011001100110012001200DB
:100B900012001200120013001300130013001300C0
:100BA00014001400140014001400150015001500A2
:100BB0001500150016001600160016001600170086
:100BC0001700170017001700180018001800180069
:100BD0001800190019001900190019001A001A004C
:100BE0001A001A001A001B001B001B001B001B0030
:100BF0001C001C001C001C001D001D001D001D0011
:100C00001D001E001E001E001E001E001F001F00F3
:100C10001F001F00200020002000200020002100D5
:100C200021002100210022002200220022002200B7
:100C30002300230023002300240024002400240098
:100C40002500250025002500250026002600260079
:100C5000260027002700270027002800280028005A
:100C6000280029002900290029002A002A002A003A
:100C70002A002B002B002B002B002C002C002C001A
:100C80002C002D002D002D002D002E002E002E00FA
:100C90002E002F002F002F002F00300030003000DA
:100CA00030003100310031003100320032003200BA
:100CB0003200330033003300340034003400340099
:100CC0003500350035003500360036003600370077
:100CD0003700370037003800380038003900390055
:100CE000390039003A003A003A003B003B003B0033
:100CF0003B003C003C003C003D003D003D003D0011
:100D00003E003E003E003F003F003F0040004000EC
:100D100040004000410041004100420042004200CA
:100D200043004300430044004400440044004500A5
:100D30004500450046004600460047004700470082
:100D40004800480048004900490049004A004A005C
:100D50004A004B004B004B004C004C004C004D0037
:100D60004D004D004E004E004E004F004F004F0012
:100D700050005000500051005100510052005200EC
:100D800053005300530054005400540055005500C4
:100D9000550056005600570057005700580058009D
:100DA0005800590059005A005A005A005B005B0075
:100DB0005B005C005C005D005D005D005E005E004D
:100DC0005F005F005F006000600061006100610023
:100DD00062006200630063006300640064006500F9
:100DE00065006500660066006700670067006800D0
:100DF0006800690069006A006A006A006B006B00A5
:100E00006C006C006D006D006E006E006E006F0077
:100E10006F0070007000710071007200720072004B
:100E2000730073007400740075007500760076001E
:100E30007700770078007800790079007A007A00EE
:100E40007A007B007B007C007C007D007D007E00C2
:100E50007E007F007F008000800081008100820092
:100E6000820083008400840085008500860086005F
:100E70008700870088008800890089008A008A002E
:100E80008B008B008C008D008D008E008E008F00FB
:100E90008F009000910091009200920093009300C7
:100EA0009400950095009600960097009700980092
:100EB000990099009A009A009B009C009C009D005C
:100EC0009D009E009F009F00A000A100A100A20025
:100ED000A200A300A400A400A500A600A600A700ED
:100EE000A800A800A900AA00AA00AB00AC00AC00B2
:100EF000AD00AE00AE00AF00B000B000B100B20077
:100F0000B200B300B400B500B500B600B700B7003A
:100F1000B800B900BA00BA00BB00BC00BD00BD00FB
:100F2000BE00BF00C000C000C100C200C300C300BB
:100F3000C400C500C600C700C700C800C900CA0079
:100F4000CA00CB00CC00CD00CE00CF00CF00D00037
:100F5000D100D200D300D400D400D500D600D700F1
:100F6000D800D900DA00DA00DB00DC00DD00DE00AA
:100F7000DF00E000E100E200E300E300E400E50060
:100F8000E600E700E800E900EA00EB00EC00ED0015
:100F9000EE00EF00F000F100F200F300F400F500C5
:100FA000F600F700F800F900FA00FB00FC00FD0075
:100FB000FE00FF000001010102010301040106011E
:100FC0000701080109010A010B010C010D010E01C5
:100FD000100111011201130114011501170118016B
:100FE00019011A011B011D011E011F012001210110
:100FF0002301240125012601280129012A012C01B0
:101000002D012E013001310132013401350136014B
:10101000380139013A013C013D013F0140014101E4
:10102000430144014601470149014A014C014D0178
:101030004F01500152015301550156015801590108
:101040005B015C015E016001610163016501660194
:1010500068016A016B016D016F0170017201740119
:101060007601770179017B017D017E01800182019A
:101070008401860188018A018B018D018F01910114
:1010800093019501970199019B019D019F01A10188
:10109000A301A501A701AA01AC01AE01B001B201F3
:1010A000B401B701B901BB01BD01C001C201C40156
:1010B000C601C901CB01CE01D001D201D501D701B2
:1010C000DA01DC01DF01E101E401E601E901EC0103
:1010D000EE01F101F301F601F901FC01FE0101024B
:1010E000040207020A020D0210021202150218027F
:1010F0001B021E022202250228022B022E023102AE
:10110000340238023B023E024202450248024C02CF
:101110004F02530256025A025E02610265026902E0
:101120006C027002740278027C02800284028802DF
:101130008C029002940298029C02A102A502A902CC
:10114000AE02B202B702BB02C002C502C902CE02A1
:10115000D302D802DD02E202E702EC02F102F6025B
:10116000FB02010306030B03110316031C032203F6
:1011700028032D03330339033F0346034C03520373
:1011800058035F0365036C0373037A0380038703CB
:101190008E0396039D03A403AC03B303BB03C303F5
:1011A000CB03D303DB03E303EB03F403FC030504EA
:1011B0000E0417042004290433043C04460450049C
:1011C0005A0464046E04790483048E049904A4040C
:1011D000B004BB04C704D304DF04EC04F804050521
:1011E000120520052D053B054905580566057505C1
:1011F00084059405A405B405C405D505E605F805E0
:101200000A061C062F06420656066A067E06930646
:10121000A806BE06D506EB0603071B0734074D07D5
:10122000670782079D07B907D607F4071208310838
:10123000510873089508B808DC08010928094F0906
:101240007809A309CE09FC092A0A5B0A8D0AC10A9A
:10125000F70A2F0B690BA50BE40B250C690CB00CDE
:10126000FA0C470D980DED0D450EA20E040F6A0FF6
:10127000D60F4810C0103F11C6115412EC128D1336
:101280003914F114B6158A166E1764186E19901A6F
:10129000CC1B271DA41E49201D22282474260E299C
:1012A000082C772F79333538E43DD644844DAD583A
:1012B0008E67647CA49BB9CFFFFFFFFF0E1DE91C66
:1012C000EC1CF21C001D1C1EAB1D551D04070F0459
:1012D000D612021A0000506F6C7970686F6E2E2063
:1012E00073706C69740043682E72616E6765206666
:1012F000726F6D3A2025690043682E72616E6765D2
:1013000020746F20203A20256900536D6F6F746838
:1013100065204B657941543A200042726F616463E5
:101320006173742043432E3A20257900426373741D
:101330002E2050726F674368673A20257900426318
:1013400073742E20502E576865656C3A20257900FD
:10135000426373742E204368616E2E41543A2025F7
:1013600079005C1F731F7B1F7C1F861F901FBC1F93
:10137000A41F010108037C1301140000526F75744F
:1013800065206368616E6E656C004368616E2E2037
:101390003A20256900D21FE91FF11FF21FFC1F062A
:1013A000203120192001010804AF1301150000535A
:1013B0006574206368616E6E656C004368616E2EB3
:1013C000203A2025690047205E2066206720712092
:1013D0009320B1207B2001010C04E01301170000D1
:1013E0005472616E73706F73650053656D69746FCD
:1013F0006E6573203A2025690068094E0934091A80
:10140000090009E608560A3C0A62139513050AC644
:10141000133904A208BC12D0095052455345542038
:10142000434F525255505421005052455345542079
:101430004C4F4144204552523A2569005052455381
:101440004554532052455345540042616E6B2E5310
:10145000656C00004D6F64756C61742E0000427203
:101460006561746800000000556E6465662E330087
:101470000000466F6F7443746C000000506F72740C
:101480002E54696D650044617461456E7472790013
:10149000566F6C756D650000000042616C616E6393
:1014A00065000000556E6465662E390000005061CD
:1014B0006E00000000000000457870726573732EA6
:1014C00000004566662E43746C2E31004566662E1C
:1014D00043746C2E3200556E6465662E3134000004
:1014E000556E6465662E3135000047502E43746C8E
:1014F0002E31000047502E43746C2E3200004750AE
:101500002E43746C2E33000047502E43746C2E34DF
:101510000000556E6465662E32300000556E6465BD
:10152000662E32310000556E6465662E3232000040
:10153000556E6465662E32330000556E6465662E06
:1015400032340000556E6465662E32350000556EEB
:101550006465662E32360000556E6465662E32373D
:101560000000556E6465662E32380000556E646565
:10157000662E32390000556E6465662E33300000E9
:10158000556E6465662E333100004C53420053752E
:10159000737461696E500000506F7274616D2E50EB
:1015A0000000536F7374656E2E500000536F6674A5
:1015B0005000000000004C656761746F500000002F
:1015C000486F6C64320000000000566172696174FB
:1015D000696F6E00496E74656E7369747900526547
:1015E0006C2E54696D6500004174742E54696D65EC
:1015F00000004272696768746E732E00446563610F
:101600007954696D65005669625261746500000025
:101610005669624465707468000056696244656C7E
:1016200061790000556E6465662E373900004750B9
:101630002E43746C2E35000047502E43746C2E36AA
:10164000000047502E43746C2E37000047502E4345
:10165000746C2E380000506F72746143746C00001B
:10166000556E6465662E38350000556E6465662ECD
:1016700038360000556E6465662E383700004872B3
:10168000657356656C000000556E6465662E3839CA
:101690000000556E6465662E39300000526576652F
:1016A0007262000000005472656D6F6C6F00000084
:1016B00043686F727573000000004465747544657B
:1016C00070746800506861734465707468004461A8
:1016D0007461496E632E0000446174614465632E39
:1016E00000004E72706E4C53420000004E72706EDD
:1016F0004D534200000052706E4C534200000000F7
:1017000052706E4D534200000000556E6465662EA7
:1017100031303200556E6465662E31303300556EBF
:101720006465662E31303400556E6465662E313046
:101730003500556E6465662E31303600556E646531
:10174000662E31303700556E6465662E31303800B4
:10175000556E6465662E31303900556E6465662EAF
:1017600031313000556E6465662E31313100556E71
:101770006465662E31313200556E6465662E3131F6
:101780003300556E6465662E31313400556E6465E4
:10179000662E31313500556E6465662E3131360066
:1017A000556E6465662E31313700556E6465662E60
:1017B00031313800556E6465662E31313900536F12
:1017C000756E644F6666000052657365744374728B
:1017D0006C004C6F63616C4374726C004E6F746587
:1017E000734F666600004F6D6E694F6666000000BD
:1017F0004F6D6E694F6E000000004D6F6E6F4F6E43
:1018000000000000506F6C794F6E00000000430034
:10181000004323004400004423004500004600002C
:1018200046230047000047230041000041230042B7
:10183000000053797365785374617274000000532B
:1018400079732E54696D65436F6465005379732E07
:10185000536F6E67506F7300005379732E536F6E22
:101860006753656C00005379732E556E6465662E60
:101870003400005379732E556E6465662E35000072
:101880005379732E54756E655265710000537973E8
:101890006578456E6400000000005265616C742E2E
:1018A000436C6F636B00005265616C742E556E64FF
:1018B00065662E005265616C742E537461727400FB
:1018C000005265616C742E436F6E742E0000526579
:1018D000616C742E53746F700000005265616C74FB
:1018E0002E556E6465662E005265616C742E4153F0
:1018F000656E7365005265616C742E526573657414
:1019000000004E2E4F6666200000004E2E4F6E20C7
:10191000200000004B6579415420000000000000C9
:1019200000000000000050726F67436867200043AA
:1019300068616E415420000050697463685720004C
:101940000053797374656D200000010204050708D7
:101950000A0B0C0D404142434445464748494A4B17
:101960004C4D4E545B5C5D5E5F43433A25690042DB
:1019700041443A4E6F207374617475730042414460
:101980003A546F6F2073686F7274005261772064ED
:101990006174613F004368616E005573650054686F
:1019A000726F756768004469736361726400284FE1
:1019B0004646290020284F4E2900282D2900282B93
:1019C00029004E6F00596573004F6666004F6E0028
:1019D000004D4D46020AC80011241FBECFEFD0E1D2
:1019E000DEBFCDBF11E0A0E0B1E0EAE5F9E602C05C
:1019F00005900D92AE31B107D9F714E0AEE1B1E038
:101A000001C01D92AE3EB107E1F70E94D7330C949E
:101A1000AB340C940000809100010895282FCB0175
:101A2000293040F435E1239FB00111246B577F4FDB
:101A30000C942E32622F695001960C9488210E94DA
:101A4000A421882321F00E94A421875F089587E0C4
:101A50000895CF93DF931F92CDB7DEB7823029F47C
:101A60000F90DF91CF910C94CD3069E10E9430311D
:101A700089830E941F0D482F4150298161E0809188
:101A800000010E9459328093000160E00F90DF91C5
:101A9000CF910C947B3080910101089580E10895ED
:101AA000CF93813019F50E947F2A809101018150E6
:101AB0000E94B32A882389F00E94A02AC82F0E947E
:101AC000A02A6C2F625081500E94B72B0E947A2A64
:101AD00043E060E087E591E006C00E947A2A44E096
:101AE00060E08BE491E0CF910C948510823019F482
:101AF000CF910C94CD30843079F018F48330B9F460
:101B000005C08B3079F08C3091F40EC080910101CA
:101B10008F3068F48F5F09C080910101823038F006
:101B2000815003C08FE001C081E08093010160E03B
:101B300080910101CF910C947B30CF93DF93EB0127
:101B4000811103C064E671E004C081500E946F22DD
:101B5000BC01CE01DF91CF910C942E3280913903DC
:101B60000895CF93DF93D82FC0E016C08C2F0E942A
:101B7000A32A9093380380933703C0933A03D093FA
:101B80003603DD2369F0D150809137030E944B2248
:101B9000D81730F0D81BCF5F0E94A02AC81730F3A7
:101BA000DF91CF910895CF93DF93109235030E9478
:101BB000A02A80933903C0E009C08C2F0E94A32A79
:101BC0000E944B228D0F80933903CF5F0E94A02A81
:101BD000D0913903C81788F380911E018D1718F032
:101BE000D150D0931E0180911E01DF91CF910895B5
:101BF00080913503823079F0833021F0813021F0FB
:101C000060E00AC063E108C0809137030E94572258
:101C1000682F6E5F01C061E180911E010C947B30E2
:101C20001F93CF93DF93C82F80911E010E94B10DA7
:101C3000C23049F48091350381112CC0DF91CF91DE
:101C40001F910C94CD30C13041F580913603811144
:101C50001AC0809137030E9463229091350392301D
:101C600059F09330B9F0911186C0823009F409C05F
:101C700082E0809335037FC0813061F0843009F4C5
:101C800009C083E0F6CF80913503811103C0C09372
:101C9000350371C0109235036EC0809135038111F8
:101CA0002CC0C430D9F020F4C33009F060C006C0A5
:101CB000CB30D1F0CC3009F05AC01CC040911E018D
:101CC000242F30E08091390390E0019728173907DD
:101CD0000CF04DC04F5F40931E0149C080911E0122
:101CE000882309F444C002C0809139038150809355
:101CF0001E013DC010921E013AC0982F92509230A2
:101D000058F580913A030E94062CD82F192F809104
:101D100035036AE0823059F48C2F0E943031282F2D
:101D200049E06FEF8D2F0E944232D82F0AC08C2FCE
:101D30000E943031282F49E06FEF812F0E944232FC
:101D4000182F0E947F2A6D2F712F80913A030E94D5
:101D50000F2C0E947A2A0BC0813049F44C2F6091DD
:101D6000360380913703909138030E942C22809192
:101D70001E010E946C30DF91CF911F910C94F80DE1
:101D8000EF92FF921F93CF93DF931F92CDB7DEB7F1
:101D90007B0190913903891708F048C00E94B10D6A
:101DA000609136038091370390913803A701611148
:101DB00033C00E94192280913A030E94062C182FEA
:101DC0008091370399830E9463229981823079F050
:101DD0001F3F51F0112321F01A3020F4105D05C08F
:101DE00018E503C01FE301C011E4F701108B2EE3D7
:101DF000F701218B8130D1F09F3F51F0992321F0E1
:101E00009A3020F4905D05C098E503C09FE301C0BF
:101E100091E4F701928B0AC04F5F5F4F0F90DF9103
:101E2000CF911F91FF90EF900C9419220F90DF91AA
:101E3000CF911F91FF90EF900895EF92FF920F9333
:101E40001F93CF93DF93F82EE92E062F0E94763052
:101E50008957914029F510C08D2F0E94A32A8F1118
:101E600005C09E1103C0C00F11E004C00E944B22A8
:101E7000CF5FC80FDF5F03C010E0C0E0D0E00E947A
:101E8000A02AD81758F4112339F38C2FDF91CF9162
:101E90001F910F91FF90EF900C946C301111F5CFC2
:101EA000DF91CF911F910F91FF90EF900895809156
:101EB000020108958AE00895AB0195E1899FB00180
:101EC00011246C537E4FCA010C942E32823029F4B7
:101ED00081E08093020160E071C0813009F04FC061
:101EE00080910201853021F168F48230B9F020F44C
:101EF000813009F065C00FC08330A1F0843009F053
:101F00005FC013C08730D1F0B0F08830D1F0893095
:101F100009F056C031C089E791E002C08BE493E03C
:101F20000C94EC3082E493E0FBCF82E491E0F8CFB4
:101F30008CEF93E0F5CF83EF93E0F2CF86E992E068
:101F4000EFCF0E94C7258BE891E00E940E2660E04B
:101F500081E00E94CA2580EA91E00E940E2660E09E
:101F600082E00E94CA2580EB91E00E940E2680E06C
:101F70000E9439230C9428258CE790E0D1CF84303F
:101F800079F018F48330B9F405C08B3079F08C30D7
:101F900091F40EC080910201893068F48F5F09C00E
:101FA00080910201823038F0815003C089E001C085
:101FB00081E08093020160E0809102010C947B300B
:101FC000089510921F0180910301089587E00895FC
:101FD000282FCB0130911F01311108C033E1239F1D
:101FE000B001112461567D4F0C942E320895CF9389
:101FF000DF93C82F80911F01882379F0C23041F40C
:102000000E94312810921F01DF91CF910C9468300B
:102010008C2FDF91CF910C943428C23021F4DF91C2
:10202000CF910C94CD30C13049F5D0910301D3301C
:10203000B9F030F4D13051F0D23009F042C00DC0C7
:10204000D53099F078F0D630E1F511C061E081E04B
:102050000E941928D0931F0134C060E081E009C0BC
:1020600061E001C060E082E004C061E001C060E0C6
:1020700083E00E941928C0931F0123C0C43079F067
:1020800018F4C330B9F405C0CB3079F0CC3091F4FA
:102090000EC080910301863068F48F5F09C0809183
:1020A0000301823038F0815003C086E001C081E036
:1020B0008093030160E080910301DF91CF910C9444
:1020C0007B30DF91CF91089582E0089583E00895F9
:1020D0008150823010F40C94CD300895282FCB011C
:1020E000211104C06DE273E00C942E32223061F4B1
:1020F00060912001709121012091230140912201E2
:10210000820F911D0C949632089590932101809333
:102110002001609322014093230184E293E00C9418
:10212000EC3081E080932401909104019B3010F009
:1021300080930401809104010895109224018091FC
:102140000401089580912401882311F08BE0089503
:102150008CE00895CF93DF931F92CDB7DEB7823026
:1021600029F40F90DF91CF910C94CD309091240100
:10217000813009F045C080910401992351F08150CC
:102180000E94AA2D0E94CD3043E060E084E593E0F8
:102190000EC08B3089F40E947F2A0E94AC2B0E94D3
:1021A0007A2A0E94CD3042E060E081E693E00F9011
:1021B000DF91CF910C94851061E081500E94C32C77
:1021C000813009F447C0853009F444C00E947F2A59
:1021D0008091040160E081500E94C32C89830E9499
:1021E0007A2A0E94CD308981811105C043E060E0E8
:1021F00081E793E0DCCF41E0682F8FE793E0D7CF12
:10220000992311F09AE001C09BE0843079F018F432
:102210008330C1F405C08B3079F08C3099F40FC055
:1022200080910401891770F48F5F0AC080910401C6
:10223000823040F0815004C09093040103C081E0DB
:102240008093040160E0809104010F90DF91CF91B1
:102250000C947B300F90DF91CF9108951F93CF9313
:10226000DF93182FCB0111110AC0209124012223E2
:1022700019F062E973E030C067EA73E02DC01B30EB
:1022800048F5113029F465EC73E00E942E3205C048
:10229000412F6EEC73E00E949632EC0161E0812FD9
:1022A00081500E94C32C813021F0D8F0853049F450
:1022B00004C068ED73E0CE010FC045E061EE73E04D
:1022C00003C0482F6AEE73E0CE01DF91CF911F91DA
:1022D0000C9496326CEB73E0DF91CF911F910C94CC
:1022E0002E32DF91CF911F9108951092260181E047
:1022F0008093250180910501089510922601109286
:1023000025018091050108950E94A02A8F5F0895FC
:10231000CF93843099F018F48330E1F405C08B300A
:1023200099F08C30B9F413C0C09105010E94A02A25
:10233000C81780F4809105018F5F0AC08091050164
:10234000823040F0815004C00E94A02A01C081E088
:1023500080930501CF910895CF93DF93C82F8130EB
:1023600079F5809125018823B9F0C0910501D0E06D
:102370000E94A02A90E0C817D9070CF05BC00E9409
:102380007F2A8091050181500E94462B0E947A2A63
:10239000DF91CF910C94683080912601811109C0A2
:1023A000D09105010E94A02AD81719F0C0932601E8
:1023B00031C010922601809105010E946C3033C01B
:1023C000823021F4DF91CF910C94CD3080912601A1
:1023D000882331F1D09105018C2F0E948811C09182
:1023E00005010E94A02AC81303C0D093050122C092
:1023F000809105018D17F1F00E947F2A60910501FF
:1024000061508D2F81500E94B72B0E947A2A8D2F08
:102410000E946C30809105010E946C3062E004C023
:102420008C2F0E94881160E080910501DF91CF918F
:102430000C947B30DF91CF9108951F93CF93DF935E
:10244000182FEB0181110AC080912501882319F012
:1024500065E074E021C06AE174E01EC00E94A02A19
:10246000412F50E0282F30E024173507DCF0812F72
:1024700081500E94A32A90912601992351F09091B6
:102480000501191306C00E946F22BC01CE010196FE
:1024900004C00E946F22BC01CE01DF91CF911F9139
:1024A0000C942E32DF91CF911F9108955F926F921D
:1024B0007F928F929F92AF92BF92CF92DF92EF92D4
:1024C000FF920F931F93CF93DF93CDB7DEB764973F
:1024D0000FB6F894DEBF0FBECDBF27982F9A259A6E
:1024E0002D9894E080E0E7E8F3E13197F1F700C040
:1024F00000001F9B8F5F9150B1F794B19F7594B905
:1025000095B19F7595B9843009F0B4C085E00E94FB
:102510001F3385E50E9444338AEA0E94443382E9EE
:102520000E94443389E40E94443384E20E9444338D
:102530000E94B0220E94862581E00E9439238FEFFD
:102540000E94BC3380E20E94BC3381E60E94BC330F
:102550008AE50E94BC3380E20E94BC33C12CD12C9E
:10256000E12CF12CA12C90E2B92E21E4822E37EC43
:10257000932E40E4742E55E5652E6AEA562E60E0EF
:1025800080E00E94CA258FE294E00E940E260E94FD
:10259000A223682FCE0101960E941632FC01B1924F
:1025A0008F010E943F23682FC8010E941632FC0150
:1025B000B192CF01AA2039F0E0907800F090790034
:1025C00070927C0006C0C0907800D0907900809214
:1025D0007C0090927A00B7010E947931FC01B1929F
:1025E000CF01B6010E947931FC01B082118260E016
:1025F00081E00E94CA25CE0101960E94FC2560E080
:1026000002C06091C6008091C00087FDFACFCE0164
:1026100001960E941632FC01B192CF0160E002C027
:102620006091CE002091C80027FDFACF0E9416329B
:10263000FC01108260E082E00E94CA25CE01019672
:102640000E94FC250E94A22383FF03C05092C60073
:1026500005C00E94A22384FD6092C600FFE72AE124
:1026600086E0F15020408040E1F700C0000081E0AA
:10267000A82685CF64960FB6F894DEBF0FBECDBFF7
:10268000DF91CF911F910F91FF90EF90DF90CF904E
:10269000BF90AF909F908F907F906F905F900895C4
:1026A000A82FB0E095E0899FF0011124E85DFE4F6E
:1026B000E081A85ABE4FE63018F080EB8C93089565
:1026C000F0E0ED5AFB4FE491EC930895E8E4F1E07B
:1026D00080E090E02081222339F001963396863005
:1026E0009105C1F78FEF0895FC01EE0FFF1FE80F72
:1026F000F91FEA5BFE4F108291E09283089590E00B
:10270000FC01EE0FFF1FE80FF91FEA5BFE4F12827C
:102710000895089595E0899FD0011124A85DBE4FCA
:1027200095E0FB0101900D929A95E1F70C945013FE
:1027300095E0899FF0011124E85DFE4F85E0DB0103
:1027400001900D928A95E1F708951F93CF93DF933F
:10275000182FC62F842F6AE00E943031282FC230F4
:10276000D9F020F4C13009F045C006C0C33011F1E2
:10277000C43009F03FC032C085E0189FE001112449
:10278000C85DDE4F44EA60E088810E945932888348
:10279000812F0E9450132EC085E0189FE001112464
:1027A000C85DDE4F4FE760E88C810E9442328C8327
:1027B00063E00FC085E0189FF0011124E85DFE4F33
:1027C00042815381420F511D27FD5A955383428305
:1027D00062E08CE0912F0E941D0F0CC085E0189FD5
:1027E000E0011124C85DDE4F46E060E089810E946F
:1027F0005932898360E08CE0912F0E941D0FDF9198
:10280000CF911F910895FF920F931F93CF93DF9362
:10281000C82FCA01623009F455C030F4662359F05C
:10282000613009F082C02CC0633009F45CC06430B0
:1028300009F07BC069C0D0E0FE01EE0FFF1FEC0F76
:10284000FD1FEA5BFE4FF0804F2D69E574E00E94AA
:1028500096328C0185E08C9FB0018D9F700D112404
:10286000675D7E4F8F2D0E948415482F64E674E0CB
:10287000C801DF91CF911F910F91FF900C94963278
:1028800067E674E00E942E3225E0C29FE001112429
:10289000C85DDE4F6881663068F42CE0629FB0014D
:1028A000112461597B4FDF91CF911F910F91FF90C0
:1028B0000C942E326650DF91CF911F910F91FF90B3
:1028C0000C94C02667EB74E00E942E3225E0C29F74
:1028D000B0011124675D7E4FDF91CF911F910F9161
:1028E000FF900C945C156FEB74E00E942E3225E093
:1028F000C29FB0011124675D7E4FDF91CF911F9180
:102900000F91FF900C946A1567EC74E00E942E32D0
:1029100025E0C29FB0011124675D7E4FDF91CF910A
:102920001F910F91FF900C946015DF91CF911F9133
:102930000F91FF900895FF920F931F93CF93DF9312
:10294000EB01082F10E08C81807FF801E85AFE4FE0
:102950009081891341C085E0809FF001819FF00D37
:102960001124E85DFE4F8081863038F0FD8086506E
:102970000E94CF26F81230C012C0823059F0853044
:1029800081F0813009F00BC08D810E94B226811147
:1029900006C022C08D810E94B22681111DC082E036
:1029A00001C081E0C80FD11D8C81F801EE0FFF1F1F
:1029B000E00FF11FEA5BFE4F808391E0918395E089
:1029C000909FB001919F700D1124675D7E4F0E9412
:1029D00084158C8382E001C081E0DF91CF911F914B
:1029E0000F91FF900895DF92EF92FF920F931F9344
:1029F000CF93DF931092270168E2E62E61E0F62E76
:102A000008E411E0C0E0D0E075E0D72EF7011082B5
:102A1000DC9EC001DD9E900D1124875D9E4F0E94BB
:102A20005415F80110828C2F0E9450132196F5E066
:102A3000EF0EF11C0D5F1F4FC630D10539F7DF9146
:102A4000CF911F910F91FF90EF90DF9008951F930A
:102A5000CF93DF93C7E4D1E010E08881882331F081
:102A6000188260E08CE0912F0E941D0F1F5F23965B
:102A7000163099F7DF91CF911F9108952EEFAC0199
:102A8000249FC001259F900D112497FF02C08158FB
:102A90009F4F9C01220F232F221F330B260F311D26
:102AA00067FD3A95C9010895FC01108280E490E029
:102AB0009283818313820895FB0163810C94C43156
:102AC000FB016081FAE06F9FB001112464527B4FDB
:102AD0000C942E32FB0141815281EEEFE49F900174
:102AE000E59F300D112437FF02C021583F4F220FC0
:102AF000232F221F330BFB014381240F311D47FD80
:102B00003A95B9010C947931DB01EC9190E8E99F99
:102B1000F0011124E80FF11DEE5DFA4FE4911196DA
:102B20002D913C911297E29FC001E39F900D1124DB
:102B3000880F892F881F990B13962C91820F911D56
:102B400027FD9A95803891051CF497FD03C00895E0
:102B50008FE7089580E00895E3E7F1E020E030E0BA
:102B60009081992341F02F5F3F4F32962A303105F3
:102B7000B9F78FEF0895F901EE0FFF1FEE58FE4FE2
:102B8000808381E08183822F0895E82FF0E0EE0FAB
:102B9000FF1FEE58FE4F11820895E82FF0E0EE0F70
:102BA000FF1FEE58FE4F60830895E82FF0E0EE0F10
:102BB000FF1FE25AFE4F80819181FB019183808348
:102BC00008950F931F93CF93DF931F92CDB7DEB776
:102BD0008B01E82FF0E0EE0FFF1FE25AFE4F8081DD
:102BE00081110AC0418160E0C8010F90DF91CF914F
:102BF0001F910F910C9457292181815029830E94A4
:102C0000CF262981482F60E0C8010F90DF91CF9136
:102C10001F910F910C9460291F93CF93DF93CDB731
:102C2000DEB728970FB6F894DEBF0FBECDBF182FC2
:102C3000BE016F5F7F4F0E94E115E12FF0E0EE0FC4
:102C4000FF1FEE58FE4F6081CE0101960E94022ABE
:102C500081E028960FB6F894DEBF0FBECDBFDF919E
:102C6000CF911F9108950F931F93CF93DF93CDB70B
:102C7000DEB728970FB6F894DEBF0FBECDBF082F82
:102C800010E0000F111FF801E25AFE4FDB012D91F9
:102C90003C9131832083BE016F5F7F4F0E94E1151D
:102CA000F801EE58FE4F6081CE0101960E94382A4D
:102CB00028960FB6F894DEBF0FBECDBFDF91CF913F
:102CC0001F910F910895DF92EF92FF920F931F9340
:102CD000CF93DF93CDB7DEB729970FB6F894DEBF59
:102CE0000FBECDBFD82E162F6AE0842F49870E94D1
:102CF00030314985113081F40D2D10E0000F111F86
:102D0000025A1E4F282F40EA60E0F80180810E949D
:102D10005932F801808327C0123029F56AE0842FE8
:102D20000E9430310D2D10E0000F111FAEE5EA2E8C
:102D3000A1E0FA2EE00EF11E282F4FE760E0F70128
:102D400081810E945932F7018183BE016F5F7F4FFD
:102D50008D2D0E94E115F801EE58FE4F6081CE01E5
:102D600001960E94022A29960FB6F894DEBF0FBE84
:102D7000CDBFDF91CF911F910F91FF90EF90DF902A
:102D80000895CF93C82FCA01611103C06CEB78E09E
:102D900011C06130B1F464ED78E00E942E32EC2F66
:102DA000F0E0EE0FFF1FE25AFE4F6081611105C097
:102DB0006CED78E0CF910C942E326150CF910C9451
:102DC000C026623069F4EC2FF0E0EE0FFF1FE25AEC
:102DD000FE4F41814F5F6AEC78E0CF910C949632C0
:102DE000CF91089580E090E0FC01E25AFE4F1082FE
:102DF0001182FC01EE58FE4F11820296843191053A
:102E000099F70895089580E00895089590919101AB
:102E10009F3F21F48093910180E008958FEF089502
:102E200090919F019F3F21F480939F0180E008953E
:102E30008FEF0895909192019F3F21F4809392012A
:102E400080E008958FEF08959091A0019F3F21F4B5
:102E50008093A00180E008958FEF089590919301F1
:102E60009F3F21F48093930180E008958FEF0895B0
:102E70009091A1019F3F21F48093A10180E00895EA
:102E80008FEF08958FEF8093910108958FEF8093D6
:102E90009F0108958FEF8093920108958FEF8093A3
:102EA000A00108958FEF8093930108958FEF809391
:102EB000A101089560939101089560939F01089581
:102EC0006093920108956093A00108956093930127
:102ED00008956093A1010895CA0161EC79E00C9412
:102EE0002E32CA0162EB79E00C942E32CA0163EAF9
:102EF00079E00C942E32CA0164E979E00C942E3208
:102F0000CA016BE879E00C942E32CA0162E879E0DC
:102F10000C942E3280918B01982F907F903941F440
:102F200090918D01911104C08F70806880938B0106
:102F3000089510928601109290018FEF8093910175
:102F400080939201809393011092940110929E01BC
:102F500080939F018093A0018093A1010895AF9277
:102F6000BF92CF92DF92EF92FF920F931F93CF9376
:102F7000DF93CDB7DEB728970FB6F894DEBF0FBE4C
:102F8000CDBF182F0E943726082F843091F481E09E
:102F90008B838C831D83CE0101960E941B27609139
:102FA00092016F3F09F48CC0CE0101960E94022A63
:102FB00087C0FF24F39484E0D82ECC24CA9492E0F6
:102FC000B92EA02EAA9480918601811149C0109239
:102FD0008A0110928901F09286010023A9F0F092F3
:102FE0008A0110938B01812F0E9422268F5F80938C
:102FF0008F0181E08A1518F0F092900102C01092C2
:103000009001EE24E3940EC080919001882329F072
:10301000F0928A01B092890104C0D0928901C092D5
:103020008F01E12C90918F0180918A01981345C006
:103030008091890181608093890187E891E00E94F5
:103040001027809191018F3F41F00E948A17609173
:10305000910187E891E00E94022A109286012DC01A
:10306000011123C0612F87E891E00E947A29909195
:103070008F0180918A01981323C08091890181601A
:103080008093890187E891E00E9410278091910147
:103090008F3F41F00E948A176091910187E891E08B
:1030A0000E94022A109286010BC0809189018860DB
:1030B000809389011092860186CFEE2009F483CF98
:1030C00028960FB6F894DEBF0FBECDBFDF91CF912B
:1030D0001F910F91FF90EF90DF90CF90BF90AF9036
:1030E0000895AF92BF92CF92DF92EF92FF920F932B
:1030F0001F93CF93DF93CDB7DEB728970FB6F89421
:10310000DEBF0FBECDBF182F0E943726082F843098
:1031100091F481E08B838C831D83CE0101960E9404
:1031200035276091A0016F3F09F48CC0CE01019654
:103130000E94022A87C0FF24F39424E0D22ECC24DC
:10314000CA9432E0B32EA82EAA94809194018111E2
:1031500049C01092980110929701F09294010023B7
:10316000A9F0F092980110939901812F0E942226D4
:103170008F5F80939D0181E08A1518F0F0929E0187
:1031800002C010929E01EE24E3940EC080919E0135
:10319000882329F0F0929801B092970104C0D09250
:1031A0009701C0929D01E12C90919D018091980121
:1031B000981345C08091970181608093970185E9BC
:1031C00091E00E942A2780919F018F3F41F00E9449
:1031D0008A1760919F0185E991E00E94022A10926E
:1031E00094012DC0011123C0612F85E991E00E9457
:1031F0007A2990919D0180919801981323C0809124
:10320000970181608093970185E991E00E942A27C8
:1032100080919F018F3F41F00E948A1760919F012A
:1032200085E991E00E94022A109294010BC08091DE
:1032300097018860809397011092940186CFEE20C9
:1032400009F483CF28960FB6F894DEBF0FBECDBF2A
:10325000DF91CF911F910F91FF90EF90DF90CF9072
:10326000BF90AF9008959091940180918601892B31
:1032700008958091A201811107C081E08093A2018D
:103280008093A40180E008958FEF08951092A20129
:1032900008950895FB0180818093A4010895809191
:1032A000A401FB0180830895613069F450E0477FF9
:1032B0004330510531F04430510529F41092A401F6
:1032C00008956093A4010895CA01611104C06AEED3
:1032D00079E00C942E32613031F44091A40163EF17
:1032E00079E00C94963208951F93CF93DF93EB010E
:1032F0008C810E943726843089F408C0FE01E10FDA
:10330000F11D84810E944E241F5F01C010E08B815B
:103310001817A0F3CE010E944F2725C08091A40169
:10332000882349F09C818091A301981304C08A816D
:1033300082608A8309C08A818D7F8A838C810E9402
:103340004E248C818093A30111E007C0FE01E10FA0
:10335000F11D84810E944E241F5F8B811817B0F3EA
:10336000CE010E94442780E0DF91CF911F91089504
:103370001092A2018FEF8093A301089595E0899F99
:10338000F0011124E55CFC4F10820895089595E04A
:10339000899FF0011124E55CFC4F8181DB018C9356
:1033A000828111968C930895CF93DF93EC018981EC
:1033B000813031F018F0823049F404C080EA03C053
:1033C00080EC01C080ED8B838FEF05C090EB9B8379
:1033D00083500E94CF268C83DF91CF9108951F9355
:1033E000CF93DF93182F842F613089F46AE00E9415
:1033F000303125E0129FE0011124C55CDC4F282FFD
:1034000041EA60E089810E945932898312C06230AA
:1034100081F46AE00E94303195E0199FE0011124A7
:10342000C55CDC4F282F41EA61E08A810E94593255
:103430008A8325E0129FC0011124855C9C4FDF9197
:10344000CF911F910C94D419FB012081F5E08F9F3F
:10345000C0011124855C9C4FFC012183FB0121816B
:10346000FC0122830C94D419CF93DF93EBE3F3E0B8
:10347000C0E0D0E08081882339F021963596C530B0
:10348000D105C1F78FEF11C085E08C9FF0018D9FB2
:10349000F00D1124E55CFC4F83E08183828381E0A1
:1034A0008083CF010E94D4198C2FDF91CF91089592
:1034B0001F93CF93DF93EB019C81492F407F282FEF
:1034C00030E055E0859FF0011124E55CFC4F8381DD
:1034D000481332C084818F3F19F04D8148132CC0AE
:1034E00085E0829FF001839FF00D1124E55CFC4F85
:1034F000892F8F7091819150923010F01E8101C000
:103500001D819281913019F0923051F404C092E003
:103510009B83806C02C09B83806D8C831D830AC05B
:1035200093E09B83806B8C83828183500E94CF26A3
:103530008D831E8382E001C081E0DF91CF911F91D6
:103540000895613031F018F0623041F405C060EA4E
:1035500001C060EC0C94932660EDFCCF63500C949A
:10356000C026CF93C82FCA01611105C06FE17AE070
:10357000CF910C942E32613061F464E37AE00E94C2
:103580002E3225E0C29FF0011124E55CFC4F6181E1
:103590000DC0623071F46CE27AE00E942E3225E0B8
:1035A000C29FF0011124E55CFC4F6281CF910C9425
:1035B000A11ACF91089590915D03911107C091E0F8
:1035C00090935D0380935E0380E008958FEF0895EC
:1035D00090916103911107C091E0909361038093F2
:1035E000620381E008958FEF089594E0899FF001D0
:1035F0001124E35AFC4F1082089594E0899FF00152
:103600001124E35AFC4F6183089594E0899FF001EF
:103610001124EB5AFC4FDB014D915D916D917C9132
:103620004083518362837383089594E0899FF001FE
:103630001124EB5AFC4F80819181A281B381FB015F
:1036400080839183A283B383089580E00895CF930C
:10365000DF93C82FD62F842F6AE00E943031282FA5
:10366000D230B1F018F4D130C1F505C0D330E9F053
:10367000D43099F527C084E0C89FE0011124CB5ACB
:10368000DC4F4EE960E08A810E9459328A8325C06E
:1036900084E0C89FE0011124CB5ADC4F4FEF60E07B
:1036A00088810E945932888318C084E0C89FE00155
:1036B0001124CB5ADC4F4FE760E889810E944232E7
:1036C00089830BC084E0C89FE0011124CB5ADC4FF2
:1036D00081E012160CF080E08B83DF91CF9108958A
:1036E000CF93C82FCA01623051F130F4662351F0F4
:1036F000613009F04FC019C06330B1F1643009F096
:1037000049C03CC0C11103C060E77AE002C068E76D
:103710007AE00E942E3224E0C29FF0011124E35A85
:10372000FC4F438160E87AE032C024E0C29FF001A0
:103730001124EB5AFC4F428166E87AE028C062E926
:103740007AE00E942E3224E0C29FF0011124EB5A4D
:10375000FC4F6081611105C06CE97AE0CF910C9457
:103760002E32CF910C949F3124E0C29FF00111249E
:10377000EB5AFC4F418164EA7AE009C024E0C29F21
:10378000F0011124EB5AFC4F438160EB7AE0CF91BA
:103790000C949632CF910895CF93C82F0E94C424E1
:1037A000AC0184E0C89F90011124F901E35AFC4F59
:1037B0008281803420F44B3A524030F403C04535C6
:1037C000514010F480E001C08FE7F901E35AFC4F4B
:1037D0008283F901EB5AFC4F8381F901E35AFC4FD4
:1037E000882321F08FE79281891B01C08281CF91CC
:1037F00008951F93CF93DF93C82F0E94C424FC0128
:1038000034E0C39FE0011124DE01AB5ABC4F8C9120
:1038100011961C91E11594E0F90738F4EE0FFF1FA3
:10382000E454F54F2591349102C02FEF3FEFA82FBC
:10383000B0E00E947634472F582F692F7727812FC9
:10384000992787FD9095840F951F97FD04C08038B8
:1038500091051CF403C080E001C08FE7FE01E35A2C
:10386000FC4F9281292F2F77382F321B232F11F4F1
:10387000906808C097FF05C027FD219522300CF401
:1038800001C0982FFE01E35AFC4F9283CB5ADC4FC4
:103890008B81882319F0892F809501C0892F8F771C
:1038A000DF91CF911F91089584E08093570381E0C9
:1038B0008093580392E3909355039FEF90935603A0
:1038C0009AE090935B0380935C03109259031092EB
:1038D0005A030895CF93DF93CDB7DEB729970FB67C
:1038E000F894DEBF0FBECDBF80915D03882331F118
:1038F00080915503811103C00E94CC1B03C080E05E
:103900000E94F91B282F809160032817B9F020939B
:1039100060038091570329870E94CF262985482F6D
:1039200060E0CE0101960E94602960915E03CE01A5
:1039300001960E94022A81E08093650380916103D1
:10394000882339F180915903811104C081E00E94DC
:10395000CC1B03C081E00E94F91B282F80916403D7
:103960002817B9F02093640380915B0329870E9494
:10397000CF262985482F60E0CE0101960E9460295C
:1039800060916203CE0101960E94022A81E0809339
:10399000540329960FB6F894DEBF0FBECDBFDF915A
:1039A000CF91089580916503882339F010926503C3
:1039B00060E086E090E00E941D0F80915403882310
:1039C00039F01092540360E087E091E00E941D0FEF
:1039D00008951092A50108958091A5018111609329
:1039E000A6010895FB0180819181A281B38180931A
:1039F000DF019093E001A093E101B093E20108950B
:103A00008091DF019091E001A091E101B091E2018C
:103A1000FB0180839183A283B3830895CF93DF93C7
:103A20009091A501911127C08093A60181E0809318
:103A3000A5018093DF0187E08093E0011092E1010E
:103A40008FE08093E2018FEF8093A7011092A8018D
:103A5000EAEAF1E0AEEAB1E01082EF0121971882C4
:103A6000138212821C923696169681E0E43DF80786
:103A700099F780E001C08FEFDF91CF9108952091F9
:103A8000E001EAEAF1E090E00AC0DF0111973C9121
:103A90003F3F19F43081381731F09F5F369692130B
:103AA000F4CF8FEF0895892F0895CF93DF93D82F08
:103AB000C62F842F65E00E943031282FC43071F169
:103AC00038F4C230C9F008F5C13009F041C006C071
:103AD000C63061F190F1C730D9F52FC04FE060E0FA
:103AE0008091DF010E9459328093DF0162E08EE015
:103AF0009D2F0E941D0F2CC049E061E08091E001E4
:103B00000E9459328093E00123C045E060E080913B
:103B1000E1010E9459328093E1011AC091E0181628
:103B20000CF090E08091E2018E7F0FC08091E20165
:103B30008B7F12164CF494E008C08091E2018D7FD7
:103B4000121614F492E001C090E0892B8093E201F8
:103B5000DF91CF910895CA016330F1F020F4613014
:103B600069F090F408C0653061F128F1663079F1B0
:103B70006730D1F532C066ED72E11BC04091DF01C4
:103B80004F5F66EE72E12EC04091E0012091DF01AF
:103B9000420F68EF72E126C06AE073E10E942E32A4
:103BA0006091E101662319F070E00C94793169ECC1
:103BB00079E10C942E324091E20141706AE173E1A7
:103BC00011C04091E20142706CE273E10BC0409180
:103BD000E20144706EE373E105C04091E20142707E
:103BE00060E573E10C94963208956091A7016F3FF0
:103BF00011F00E94502981E09091A7019F3F09F4A4
:103C000080E008951F93CF93DF93EC0110E00CC088
:103C10006091DF01610FCE010E9450296091A601E1
:103C2000CE010E94022A1F5F8091E001181780F3E5
:103C3000DF91CF911F9108951F93CF93DF93EB01F5
:103C40008C81807F803B09F48EC048F4803989F0F4
:103C5000803A09F46FC0803809F0A1C045C0803DAA
:103C600009F493C0803E09F48BC0803C09F097C0F2
:103C700082C04D813091E001AAEAB1E02FEF9FEFC1
:103C800010E00EC0FD01319780818F3F39F05C91CB
:103C9000541749F0821710F4282F912F1F5F1696A2
:103CA0001313F0CF192F1F3F09F47BC06091DF0180
:103CB000610FCE010E9450298091DF01810F809316
:103CC000A7018D8126E0129FF0011124EB55FE4FD4
:103CD00085838FEF84838E81818720E1829FC0015D
:103CE00011249087878324C08D810E943F1D182F47
:103CF0008F3F09F456C06091DF01680FCE010E942A
:103D0000502986E0189FF0011124EB55FE4F8EEFED
:103D100084832091E001E9EAF1E090E007C080812E
:103D200081508E3F08F480839F5F36969213F7CFC1
:103D300082E038C08D810E943F1D182F8F3F89F18E
:103D40006091DF01680FCE010E9450298E8196E0BC
:103D5000199FF0011124EB55FE4F81878091E101FD
:103D6000882331F31EC08091E20180FF12C0CE0192
:103D70000E94021E16C08091E20181FDF8CF09C0A9
:103D80008091E20182FDF3CF04C08091E20183FDC6
:103D9000EECFCE010E94F51D8111CACF02C081E095
:103DA00001C080E0DF91CF911F910895CF92DF9203
:103DB000EF92FF920F931F93CF93DF93CDB7DEB7B0
:103DC00028970FB6F894DEBF0FBECDBF8091A80133
:103DD000811160C08091A501811102C083E05BC0A8
:103DE0008091E10181114DC0F9CF2D2D30E0C29EAF
:103DF000F001C39EF00D1124EB55FE4F84818F3FDF
:103E0000F1F5478150856091E101CA01062E02C09B
:103E1000880F991F0A94E2F7841B950B418550E1A6
:103E2000459F800D911D112402C0969587956A9536
:103E3000E2F7908787837C0194E0F694E7949A9563
:103E4000E1F72F5F3F4FC29E8001C39E100D1124EA
:103E50000B551E4FD8018C918E1589F06091DF01B2
:103E60006D0D2E2D4581CE0101960E946A2960912B
:103E7000A601CE0101960E94022AF801E082D394A5
:103E800003C0D12C86E0C82E8091E001D81608F43A
:103E9000ACCFA4CF81508093A80128960FB6F89498
:103EA000DEBF0FBECDBFDF91CF911F910F91FF906D
:103EB000EF90DF90CF900895E3EEF1E080E090E0A6
:103EC0002081222339F0019632968A309105C1F77C
:103ED0008FEF0895FC01EE0FFF1FED51FE4F118291
:103EE00091E090830895E82FF0E0EE0FFF1FED5171
:103EF000FE4F108208950895FB019081E82FF0E0B5
:103F0000EE0FFF1FED51FE4F91830895E82FF0E073
:103F1000EE0FFF1FED51FE4F8181FB01808308955D
:103F2000FB019481292F207F203F61F09F70E82FB3
:103F3000F0E0EE0FFF1FED51FE4F8181981302C09C
:103F400082E0089581E00895CF93DF93C82F842FF6
:103F5000613079F46AE00E943031D0E0CC0FDD1F8F
:103F6000CD51DE4F282F4FE060E089810E94423220
:103F70008983DF91CF910895E82FCA01611104C0B0
:103F80006CE773E10C942E32613059F4F0E0EE0FDF
:103F9000FF1FED51FE4F41814F5F6AE873E10C94C2
:103FA00096320895EBE3F3E080E090E02081222355
:103FB00039F00196329685309105C1F78FEF08955B
:103FC000FC01EE0FFF1FE55CFC4F118291E0908336
:103FD0000895E82FF0E0EE0FFF1FE55CFC4F108224
:103FE00008950895FB019081E82FF0E0EE0FFF1F88
:103FF000E55CFC4F91830895E82FF0E0EE0FFF1F82
:10400000E55CFC4F8181FB0180830895FB01948175
:10401000907F903F61F0E82FF0E0EE0FFF1FE55C2E
:10402000FC4F8181892BFB01848382E0089581E02C
:104030000895CF93DF93C82F842F613079F46AE01D
:104040000E943031D0E0CC0FDD1FC55CDC4F282F43
:104050004FE060E089810E9442328983DF91CF91F5
:104060000895E82FCA01611104C06FEA73E10C944E
:104070002E32613059F4F0E0EE0FFF1FE55CFC4F8B
:1040800041814F5F6BEB73E10C9496320895EBE343
:10409000F3E080E090E02081222339F0019632960F
:1040A00085309105C1F78FEF0895FC01EE0FFF1FDA
:1040B000E55CFC4F118291E090830895E82FF0E0D9
:1040C000EE0FFF1FE55CFC4F108208950895E82F66
:1040D000F0E0EE0FFF1FE55CFC4FDB018C9181836C
:1040E0000895E82FF0E0EE0FFF1FE55CFC4F8181A3
:1040F000FB0180830895CF93DF93C82F842F613015
:1041000079F46CE00E943031D0E0CC0FDD1FC55C4B
:10411000DC4F282F40E660EA89810E944232898381
:10412000DF91CF910895CF93DF93EB019C81907F36
:10413000903921F0903A11F0903879F4E82FF0E0BE
:10414000EE0FFF1FE55CFC4F21814FE760E08D81A2
:104150000E9442328D8382E001C081E0DF91CF91E5
:104160000895E82FCA01611104C060EE73E10C9458
:104170002E32613051F4F0E0EE0FFF1FE55CFC4F92
:1041800041816AEE73E10C94963208951092F70122
:104190001092F8010895E091F701EA3050F4EF5FD2
:1041A000E093F701F0E0EE0FFF1FE950FE4F808330
:1041B00061830895E091F701EA3050F4EF5FE093F6
:1041C000F701F0E0EE0FFF1FE950FE4F808361839F
:1041D0000895CF93DF93D82FC62F0E94A6239091E6
:1041E000F7019A3078F49F5F9093F7010E94A8231B
:1041F000E091F701F0E0EE0FFF1FE950FE4FD08392
:10420000C18304C0DF91CF910C94A823DF91CF919B
:1042100008951F93CF93DF9300D01F92CDB7DEB7E1
:10422000182F6091F80180E00E94CA25612FCE010D
:1042300001960E94163289810E94E2258A810E949D
:10424000E2258CE30E94E2258091F8018E5F8231A5
:1042500018F48093F80102C01092F8010F900F90AB
:104260000F90DF91CF911F9108950F931F93CF93DC
:10427000DF93CDB7DEB727970FB6F894DEBF0FBE3A
:10428000CDBF8C016091F80180E00E94CA25B80181
:10429000CE0101960E944531FC011082CE010196AB
:1042A0000E94FC258091F8018A5F823118F4809386
:1042B000F80102C01092F80127960FB6F894DEBFFD
:1042C0000FBECDBFDF91CF911F910F910895EF9257
:1042D000FF921F93CF93DF931F92CDB7DEB7182FB6
:1042E000E82EF92E07C0F70181917F0169830E94B2
:1042F000092169818E2D811B8617A8F30F90DF910C
:10430000CF911F91FF90EF9008951092F7010895BB
:10431000CF93DF932091F701621798F4C62FD0E076
:10432000CC0FDD1FC750DE4F68810E94C4312DE2E3
:10433000FC012193CF01698170E0DF91CF910C9452
:104340007931DF91CF9108958091F7010895E82F99
:10435000862FE03160F4F0E0EE0FFF1FE750FC4ED7
:1043600025913491F90125913491F90109948FEF48
:104370000895E82F892FE03170F4F0E0EE0FFF1F71
:10438000E750FC4E259134912E5F3F4FF901459146
:104390005491FA0109940895E82F892FE03170F4BF
:1043A000F0E0EE0FFF1FE750FC4E259134912C5F9B
:1043B0003F4FF90145915491FA0109940895E82F6E
:1043C000892FE03170F4F0E0EE0FFF1FE750FC4E54
:1043D000259134912A5F3F4FF90145915491FA019B
:1043E00009940895E82F892FE03170F4F0E0EE0F82
:1043F000FF1FE750FC4E25913491285F3F4FF90194
:1044000045915491FA0109940895E82F892FE031DC
:1044100070F4F0E0EE0FFF1FE750FC4E2591349151
:10442000265F3F4FF90145915491FA01099481E0CB
:104430000895E82F892FE03170F4F0E0EE0FFF1FB0
:10444000E750FC4E25913491245F3F4FF901A5912F
:10445000B491FD0109940895E82F892FE03170F49B
:10446000F0E0EE0FFF1FE750FC4E25913491225FE4
:104470003F4FF901A591B491FD0109940895E82FEA
:10448000F0E0EE0FFF1FE750FC4E859194914096AF
:10449000FC0184910895E82FF0E0EE0FFF1FE75034
:1044A000FC4E859194914196FC0184910895E82FEA
:1044B000F0E0EE0FFF1FE750FC4E8591949142967D
:1044C000FC0184910895E82FF0E0EE0FFF1FE75004
:1044D000FC4E859194914396FC0184910895E82FB8
:1044E000F0E0EE0FFF1FE750FC4E8591949144964B
:1044F000FC0125913491C90108950F931F93E82F72
:10450000F0E0EE0FFF1FE750FC4E85919491469628
:10451000FC010591159125913491B801C9011F91B4
:104520000F910895CF92DF92EF92FF92CF936B019C
:104530007C01C0E08C2F0E947D226C157D058E05CC
:104540009F0529F0CF5FC031A9F78FEF01C08C2FF5
:10455000CF91FF90EF90DF90CF9008952C98089521
:1045600088E10FB6F89480936000109260000FBE4F
:104570002FEF22B911B888EF85B914B828B987E2AE
:1045800090E017B82BB91AB82C9A249A2B98239A32
:104590002D98259A5B9A5398179A0F98E9E6F0E0C0
:1045A000208124602083E99AEBE6F0E020812068F6
:1045B0002083E8E6F0E020812160208322B1286397
:1045C00022B921B1277C21B99093C5008093C40002
:1045D0001092C00028E92093C10026E02093C20079
:1045E00010920D0210920E029093CD008093CC0099
:1045F0001092C80080E98093C9002093CA001092ED
:10460000100210920F02109280008AE080938100C5
:1046100087EA91E6909389008093880082E08093F6
:104620006F001092B00097E09093B10084BD95E0C8
:1046300095BD16BC93E197BD80936E001092110258
:10464000109213021092120280E480937C0087E89B
:1046500080937A0083E080937E00089581110C940A
:10466000AE222C9A0895882311F02D9A08952D9842
:104670000895882311F02B9A08952B98089589B1F5
:1046800083FB882780F990B1991F9927991F990F6B
:10469000892B08951F920F920FB60F9211242F931A
:1046A0003F934F935F936F937F938F939F93AF93BA
:1046B000BF93EF93FF9360B180B165FB662760F90C
:1046C00091E0692780780E949F2EFF91EF91BF9122
:1046D000AF919F918F917F916F915F914F913F919A
:1046E0002F910F900FBE0F901F9018951F920F9251
:1046F0000FB60F9211242F933F934F935F936F93B5
:104700007F938F939F93AF93BF93EF93FF9360B18A
:1047100089B165FB662760F991E0692788700E947E
:10472000DD2EFF91EF91BF91AF919F918F917F917E
:104730006F915F914F913F912F910F900FBE0F900E
:104740001F90189580B1809588730895F894089506
:10475000789408951F920F920FB60F9211242F9301
:104760003F934F935F936F937F938F939F93AF93F9
:10477000BF93EF93FF930E94AE228091C6000E94E8
:10478000AF1780E00E942E23FF91EF91BF91AF9170
:104790009F918F917F916F915F914F913F912F9159
:1047A0000F900FBE0F901F9018951F920F920FB68B
:1047B0000F9211242F933F934F935F936F937F93A7
:1047C0008F939F93AF93BF93EF93FF930E94AE227B
:1047D0008091CE000E94711880E00E942E23FF91EC
:1047E000EF91BF91AF919F918F917F916F915F9169
:1047F0004F913F912F910F900FBE0F901F901895E2
:104800001F920F920FB60F9211242F933F934F9345
:104810005F936F937F938F939F93AF93BF93EF9328
:10482000FF930E94AE228091C00085FF1BC0809143
:104830000E0290910D02891781F0E82FF0E0EC5EF6
:10484000FD4F90819093C6008D3118F010920E02AA
:1048500009C08F5F80930E0205C08091C1008F7DDB
:104860008093C10080E00E942E23FF91EF91BF91C1
:10487000AF919F918F917F916F915F914F913F91F8
:104880002F910F900FBE0F901F90189581E02091EF
:104890000D0290910E02291380E00895E0910D021F
:1048A000ED3118F010920D0204C09E2F9F5F90937F
:1048B0000D0220910E0290910D02291303C0E09386
:1048C0000D0204C0F0E0EC5EFD4F80838091C100DA
:1048D00080628093C10008951F920F920FB60F92CD
:1048E00011242F933F934F938F939F9340911102E5
:1048F00020911202309113028091780090917900FA
:10490000820F931F411114C09695879596958795B0
:10491000909333028093320210921302109212028B
:1049200080E480937C0087EC80937A0081E020C053
:104930004430A1F496958795969587959093350286
:1049400080933402109213021092120281E4809339
:104950007C0087EC80937A0085E00AC09093130274
:104960008093120287EC80937A00842F8F5F877088
:10497000809311029F918F914F913F912F910F90B2
:104980000FBE0F901F901895811105C02091340221
:104990003091350209C0813029F4209132023091E2
:1049A000330202C020E030E0C9010895811106C041
:1049B000F894209134023091350207C0813039F4E7
:1049C000F8942091320230913302789402C020E0B2
:1049D00030E0C90108951F920F920FB60F92112473
:1049E0002F933F934F935F936F937F938F939F93F7
:1049F000AF93BF93EF93FF9380910F0290911002BA
:104A000001969093100280930F020E946A1C0E94EC
:104A1000D61E0E941B2FFF91EF91BF91AF919F91E6
:104A20008F917F916F915F914F913F912F910F9057
:104A30000FBE0F901F90189580910F029091100259
:104A40000895F89480910F0290911002789408953F
:104A50002DE088E190E00FB6F894A895809360006F
:104A60000FBE20936000F894FFCF80913602811131
:104A700016C018B817B85E9A5D9882E48A95F1F767
:104A800000C05F9A82E48A95F1F700C096B18BB1BD
:104A90008F718BB997FD03C081E0809336028091BE
:104AA00036020895CF93C82F0E9435258823E1F35D
:104AB000C8B98FEF87B95E985D9A82E48A95F1F75D
:104AC00000C05F9A82E48A95F1F700C08BB18F75C0
:104AD0008BB910923602CF910895CF93C82F0E94C0
:104AE00035258823E1F3C8B98FEF87B95E985D98C3
:104AF00082E48A95F1F700C05F9A82E48A95F1F723
:104B000000C05F9810923602CF910895CF9318B8E5
:104B100017B88BB18F718BB98AB1806E8AB92FEFBC
:104B200089EF90E0215080409040E1F700C0000004
:104B3000C1E0C093360280E30E946D258FE295E7C5
:104B40000197F1F700C00000C093360280E30E9495
:104B50006D2587E893E10197F1F700C00000C0934D
:104B6000360280E30E946D258CE30E946D2588E06B
:104B70000E946D2581E00E946D2586E00E946D25D2
:104B80008EE00E946D2580E8CF910C946D2581E028
:104B90000C946D25843010F4643128F06DEF70E0D2
:104BA00082E00C94CB2080FF02C090E401C090E032
:104BB00081FF02C084E101C080E06058690F860F68
:104BC0000C946D250C9452250F931F93CF93DF9374
:104BD0001F92CDB7DEB7082F10E006C0802F698383
:104BE0000E9452251F5F69811613F8CF0F90DF9145
:104BF000CF911F910F9108951F93CF93DF93182F9B
:104C0000EC0102C00E9452259C2F911B89918111B9
:104C1000F9CF892FDF91CF911F9108951F93CF93E3
:104C2000DF93182FEC0103C00E94522521969C2F80
:104C3000911BFE0184918111F7CF892FDF91CF91D4
:104C40001F910895803F50F0813F11F481E0089555
:104C5000833FE1F3823F49F080E0089587FFFCCF76
:104C6000807F803C99F3803D89F382E0089587FF3F
:104C700012C0982F907F903F51F4883F70F4803F8E
:104C800011F485E00895873FE1F383E00895903BB8
:104C900031F482E0089580E0089584E0089581E091
:104CA0000895262F30E0603248F44AE0429FB00178
:104CB000439F700D1124665B7B4E1BC0603478F4FB
:104CC000205231094AE0429FB001439F700D1124E8
:104CD000665B7B4E0E942E326AE875E10AC0205462
:104CE00031094AE0429FB001439F700D1124625781
:104CF0007A4E0C942E32CF93AC01862F6CE00E943A
:104D00008234C82F292F30E0B901660F771F620F58
:104D1000731F625F774ECA010E942E326C2F65505E
:104D2000CF910C94C431603F68F0262F30E0205FB3
:104D300031094DE0429FB001439F700D11246E5C1C
:104D4000774E0EC062956F70262F30E028503109E3
:104D500049E0429FB001439F700D11246E5F764E73
:104D60000C942E326CE00E94823491509A3030F4D0
:104D7000E92FF0E0E05FFE4F8081089580E0089524
:104D80006F3138F4E62FF0E0E65BF64E64910C9458
:104D90005126462F4F5169E679E10C9496328F31B6
:104DA00030F4E82FF0E0E65BF64E849108958F51E1
:104DB000089520916B03203278F4A0916B0328E0D2
:104DC000A29FD0011124A251BC4F28E0FC01019008
:104DD0000D922A95E1F705C06EE770E08CE00E9425
:104DE000CB2080916B038F5F80936B0380916B036B
:104DF000803210F010926B03089510926D0388E0DA
:104E000080936803109269031092670310926603FF
:104E100010926A0381E080936B0380936C03089582
:104E200020916903213031F420916703211102C0E0
:104E30000C94D926089520916903213051F42091D2
:104E40006703211106C020916603211102C00C9452
:104E5000D926089520916903223031F42091670307
:104E6000211102C00C94D9260895209169032230A3
:104E700051F420916703211106C02091660321118E
:104E800002C00C94D926089520916903233031F48F
:104E900020916703211102C00C94D9260895209116
:104EA0006903233051F420916703211106C020913A
:104EB0006603211102C00C94D9260895DF92EF9267
:104EC000FF920F931F93CF93DF9380916903882301
:104ED00009F4A7C080916703811112C080916B0310
:104EE000882311F0815001C08FE190916A038917E6
:104EF00039F080936A0381E080936C0310926D0314
:104F000080916C03882309F48CC010926C03C0E07C
:104F1000D0E060E2D62E7E0155E0EE0CFF1C5A95E3
:104F2000E1F7C70182599C4F20916A0330916D03CC
:104F3000231B2C0F022F035007FD005EE8E00E9F9D
:104F40008001112402511C4FB8010E946428FC0109
:104F5000C7018A589C4FD192E817F907E0F3B801CE
:104F6000CF010E949E2821969E0145E0220F331F0B
:104F70004A95E1F722593C4F03C0FC01D192CF0181
:104F800082179307D0F3C430D10529F6C0E0D0E0F2
:104F900060E08C2F0E94CA25F12C8E0185E0000F65
:104FA000111F8A95E1F7809168038F0D803238F4E4
:104FB000F801E80FF11DE259FC4F808101C080E249
:104FC0000E94E225F394F4E1FF12EDCF2196C43064
:104FD000D105F1F662E180E00E94CA258091690363
:104FE000813011F481E307C0823011F482E303C001
:104FF000833019F48FE40E94E225809167038823AF
:1050000011F080E501C080E20E94E22563E180E0CA
:10501000DF91CF911F910F91FF90EF90DF900C9453
:10502000CA25DF91CF911F910F91FF90EF90DF90F4
:10503000089580936903109267036093660380E08C
:1050400091E0EEEEF3E0DF019C011D922150304033
:10505000E1F781E080936B0310926A0380936C0305
:105060000895109269030895843069F028F481301E
:1050700001F1833029F505C08B3079F08C3001F5D2
:105080000EC02FEF01C021E04CE160E080916D0384
:105090000E94423280936D0313C021E001C02FEFC4
:1050A0004AE066EF809168030E9442328093680371
:1050B00007C081E090916703911180E080936703BE
:1050C00081E080936C0308951F93CF93DF93FC01DD
:1050D000EB018A81811103C08DE281932AC080FF98
:1050E00024C081FD05C06C81CF010E941632FC01F5
:1050F0008EE2819311E00AC0DE01A10FB11D14966A
:105100006C91CF010E941632FC011F5F8B81181732
:1051100098F30FC0DE01A10FB11D14966C91CF0161
:105120000E941632FC011F5F01C010E08B8118172E
:1051300088F3CF01DF91CF911F910895DF92EF9215
:10514000FF920F931F93CF93DF938B01FB0122817B
:1051500022FF03C06FE679E104C023FF0BC06DE7B7
:1051600079E1DF91CF911F910F91FF90EF90DF9048
:105170000C942E3224FF03C06BE879E1F2CF20FFBC
:1051800083C0FB01F480FFEEFF15C0F46F2D0E9479
:105190009326EC01E12C80E2D82E0AC0D992F801C6
:1051A000EE0DF11D6581CE010E94C431EC01E39446
:1051B0008F2D0E942226E81688F369C023E4FC01A3
:1051C000208328E621836F2D6F706F5F02960E9407
:1051D000C43120E2FC012193CF016F2D0E94932660
:1051E000EC016F2D607F603BC1F040F4603971F0DD
:1051F000603A61F0603809F04AC008C0603D31F1A2
:10520000603E79F1603C09F042C012C0F80165814E
:10521000CE010E947B2620E205C0F80165810E9434
:1052200051262DE3FC012193CF01F801668110C0C6
:10523000F801658170E06F5F7F4FDF91CF911F9123
:105240000F91FF90EF90DF900C947931F801658118
:10525000DF91CF911F910F91FF90EF90DF900C9411
:10526000C431F80185816681F0E86F9FB001112497
:10527000682B7052CE01DF91CF911F910F91FF905B
:10528000EF90DF900C944531EC018DE28993CE01D3
:10529000DF91CF911F910F91FF90EF90DF900895D4
:1052A0006F70FC012481207F622B64830895FC01D0
:1052B00082E0838381E08283606C64834583089508
:1052C000FC0183E0838381E08283606B6483458398
:1052D00026830895FC0183E0838381E08283606AF2
:1052E0006483458326830895FC0181E08283838360
:1052F00064830895FC012381243030F4E20FF11D12
:1053000064832F5FFC01238308950F931F93CF9332
:10531000DF9381E080933A0244C0F0E0E25CFD4F0D
:105320001081E12FF0E0EE0FFF1FE35BFD4F0181E5
:1053300028C0C12FD0E0CC0FDD1FFE01E35BFD4F85
:1053400080818F3F11F080131CC060913C0288E087
:10535000689FB00111246B587D4FFE01E351FD4F52
:10536000808191810E940522882341F0823049F496
:10537000C35BDD4F89818F3F19F403C000E001C09A
:10538000082F1F5F002321F080913D02181788F23B
:1053900080913C028F5F80933C028F3010F010921E
:1053A0003C02E0913C0280913B028E13B6CF1092FA
:1053B0003A02DF91CF911F910F910895CF93DF9320
:1053C000EB010E946322823029F0843049F0813061
:1053D00049F404C0188289818F3F21F4198202C0E8
:1053E00088818983DF91CF910895109239021092BC
:1053F0003B0210923C0210923A0210923D02089534
:105400000C948529CF93C0913B022C2F2F5F2F3016
:1054100018F420933B0202C010923B0230913B02F1
:1054200020913C02321308C06AEE70E084E10E94D1
:10543000DA20C0933B021AC0AC2FB0E0FD01E25C61
:10544000FD4F608323E0AA0FBB1F2A95E1F7AB58FD
:10545000BD4F28E0FC0101900D922A95E1F7809163
:105460003A02811103C0CF910C948529CF91089500
:105470001F93CF93DF93EC01162F8091390288237D
:10548000A9F10E94A623A0913B028A2F8F5F8F3043
:1054900018F480933B0202C010923B0290913B02B1
:1054A00080913C0298130BC0A0933B020E94A8235A
:1054B00087E893E10197F1F700C00000E2CFB0E088
:1054C000FD01E25CFD4F108333E0AA0FBB1F3A954C
:1054D000E1F7AB58BD4F88E0FE0101900D928A952F
:1054E000E1F7DF91CF911F910C94A823DF91CF9129
:1054F0001F91089581E0809339020C94A8231BC06A
:105500000E943319811117C00E94A62390913B027B
:1055100080913C02981307C00E944624882319F00A
:105520001092390208C00E94A82387E893E10197EE
:10553000F1F700C00000809139028111E1CF089598
:1055400080913D02089590913D02891748F4E82F1B
:10555000F0E0EE0FFF1FE351FD4F80819181089530
:1055600090E08FEF08951F93CF93DF93D82F809112
:105570003902811124C010913D02143108F024C079
:10558000612F8D2F0E94A721C82F8F3FE9F0612F37
:1055900070E0660F771FFB01E351FD4FD0838183DD
:1055A000635B7D4F81E0FB01808381838D2F0E94AF
:1055B000DE2980913D028F5F80933D0206C069E93C
:1055C00071E084E10E94E920CFEF81E0CF3F09F450
:1055D00080E0DF91CF911F910895AF92BF92DF924B
:1055E000EF92FF920F931F93CF93DF931F92CDB74C
:1055F000DEB7D82E7B018A0180913902811131C03A
:10560000B0903D0283E18B1508F430C06B2D8D2DD9
:105610000E94A721482F8F3F49F12B2D30E0220F08
:10562000331F7DEEA72E72E0B72EA20EB31EF5013A
:10563000D0828183B901635B7D4FFB01F182E082FF
:105640008D2D49830E94DE29B801F5018081918169
:105650000E94DF2180913D028F5F80933D0249814E
:1056600006C065EC71E084E10E94E9204FEF81E023
:105670004F3F09F480E00F90DF91CF911F910F9180
:10568000FF90EF90DF90BF90AF900895CF93C82F19
:1056900080913902811136C0EC2FF0E0EE0FFF1F30
:1056A000E351FD4F808191810E94B92190913D028B
:1056B000915090933D0221C04C2F50E09A012F5FF2
:1056C0003F4F440F551FFA01E351FD4F220F331F87
:1056D000D901A351BD4F8D919C9191838083FA0193
:1056E000E35BFD4FD901A35BBD4F2D913C9131830D
:1056F00020836C2F0E94CC21CF5F80913D02C81780
:10570000D8F206C064EE71E084E1CF910C94E920F8
:10571000CF910895CF9380913902882369F014C006
:10572000EC2FF0E0EE0FFF1FE351FD4F80819181E0
:105730000E94B921CF5F01C0C0E080913D02C8172F
:1057400078F310923D0206C06BEF71E084E1CF91D7
:105750000C94E920CF9108950E948A2B80E00E944A
:10576000B32A81E00E94B32A8FE00C94B32AEF920F
:10577000FF921F93CF93DF93162F909139029111CF
:105780003BC0482F50E0440F551FFA01E351FD4F35
:1057900060819181212F30E0220F331FE901C35135
:1057A000DD4FA881B981B183A08368839983435B6E
:1057B0005D4FDA016C9111969C91ADE4EA2EA2E066
:1057C000FA2EE20EF31ED7012D913C91DA012D93B2
:1057D0003C93D7016C9311969C93682F80819181A3
:1057E0000E94CC21612F88819981DF91CF911F91F7
:1057F000FF90EF900C94CC2165E172E084E1DF91A1
:10580000CF911F91FF90EF900C94E920E82FF0E0EA
:10581000EE0FFF1FE35BFD4F8081918108950F9391
:105820001F93CF93DF9300D0CDB7DEB77A83698320
:1058300090913902911119C090913D028917D0F4CD
:10584000082F10E0000F111FF801E351FD4FBE01BA
:105850006F5F7F4F80810E94DE29F801E35BFD4F7F
:1058600089819A819183808305C06CE272E084E132
:105870000E94E9200F900F90DF91CF911F910F911F
:105880000895FC0189E480838EE68183A62FB0E031
:10589000A65EBE4F8C9182833396CF010895CF933D
:1058A000C82F80911503909116039C012F5F3F4FE5
:1058B00030931603209315036C2F0E949D34909112
:1058C00017039C2790931703CF9108958091150398
:1058D000909116039C012F5F3F4F30931603209346
:1058E00015030E94953490911703982790931703FE
:1058F00008950F931F93CF93DF9310921603109286
:105900001503C0E0D0E011E0FE01EF52F64E049125
:105910000E94662C081310E02196C630D105A1F72D
:10592000812FDF91CF911F910F9108951F93CF93F6
:10593000DF931092160310921503C0E0D0E0FE0131
:10594000EF52F64E84910E944F2C2196C630D1051D
:10595000B1F7C6E0D0E01BEAD0931603C09315035D
:105960001093170380E00E944F2C809117030E9430
:105970004F2CC853DF4FC63D87E0D80769F7DF914A
:10598000CF911F9108953F924F925F926F927F92B5
:105990008F929F92AF92BF92CF92DF92EF92FF923F
:1059A0000F931F93CF93DF931F92CDB7DEB7E62EF1
:1059B000611104C089830E948A2B898128EC829F0F
:1059C000C0011124069690931603809315038BEA69
:1059D000809317030E94662CD82EF12CC12C49E12C
:1059E000442E43E0542E90C00091150310911603ED
:1059F00058018FEFA81AB80AB0921603A0921503A7
:105A0000C8010E949534782E609017036826609232
:105A100017034801E2E08E0E911C909216038092CB
:105A20001503C5010E949534382E6826609217032D
:105A30005801F3E0AF0EB11CB0921603A09215030B
:105A4000C4010E949534982E6826609217030C5F5B
:105A50001F4F1093160300931503C5010E94953440
:105A6000282F682660921703832D90E0A0E0B0E015
:105A7000772766279729622B79290E949222A82EE0
:105A80000E94662C882E0E94662C982E0E94662CFE
:105A9000B82E809318032AE02817E8F009E113E0F4
:105AA00015C08091150390911603AC014F5F5F4FB5
:105AB00050931603409315030E949534F801819387
:105AC0008F0190911703982790931703802F8419C3
:105AD0008B1538F305C062EC70E080E10E94E9208C
